:10000000A0C30000CFC30000CDC30000CBC30000DD
:10001000C9C30000C7C30000C5C30000C3C30000BC
:10002000C1C30000BFC30000BDC30000BBC30000CC
:10003000B9C300000C94C425B5C30000B3C30000CD
:10004000B1C30000AFC30000ADC30000ABC30000EC
:10005000A9C30000A7C30000A5C300000C9485231A
:10006000A1C300000C94A0220C9477229BC3000033
:1000700099C3000097C3000095C3000093C300001C
:1000800091C300008FC300008DC300008BC300002C
:1000900089C3000087C3000085C300000C940A10C8
:1000A00081C300007FC300007DC300007BC300004C
:1000B00079C3000077C3000075C3000073C300005C
:1000C00071C300006FC300006DC300006BC300006C
:1000D00069C3000067C3000065C3000063C300007C
:1000E00061C30000BA181B1826185A181B18761876
:1000F0009B1819187B217E216D2171217721B52153
:10010000822186218C21902194219A219E21A22155
:10011000B521A821AC21B02107634236B79BD8A7EF
:100120001A39685618AEBAAB558C1D3CB7CC57631C
:10013000BD6DEDFD753EF6177231BF000000803FCA
:1001400008000000BE922449123EABAAAA2ABECDE6
:10015000CCCC4C3E00000080BEABAAAAAA3E000058
:100160000000BF000000803F000000000008417850
:10017000D3BB4387D1133D190E3CC3BD4282AD2B87
:100180003E68EC8276BED98FE1A93E4C80EFFFBE7F
:1001900001C4FF7F3F00000000001F1C1F1E1F1E28
:1001A0001F1F1E1F1E1F0505050507050808080857
:1001B000020202020A0A08080404040401010101FF
:1001C00001010101030303030303030304070707FA
:1001D0000C0C0C0C0C0C0C0C02020202060606069F
:1001E000060606060B0B0B0B0B0B0B0B010210206C
:1001F000200808102040102040800201020108045D
:1002000002010102040810204080804020100804F0
:100210000201800402018040201008040201080449
:10022000020101020408102040800102040810208D
:100230004080646F6E652E00496E697469616C69F7
:1002400073696E672044485432322073656E736F51
:10025000722E2E2E0900646F6E652E00496E697431
:1002600069616C6973696E6720495272656D6F745C
:10027000652073656E736F722E2E2E0900646F6E8B
:10028000652E00496E697469616C6973696E6720D7
:1002900052544320636F6D6D756E69636174696F4D
:1002A0006E732E2E2E0900536574757020636F6D6A
:1002B000706C657465210057726F6E672072656D92
:1002C0006F7465210020485454502F312E310D0A8F
:1002D00000474554202F6170692F436F64652F6C70
:1002E00061746573742F002C22616374696F6E4EA4
:1002F000616D650022616374696F6E223A0050552A
:1003000054202F6170692F436F64652F6C61746591
:10031000737420485454502F312E310D0A002F731E
:10032000746174757320485454502F312E310D0A66
:1003300000505554202F6170692F446576696365BC
:100340002F002200504F5354202F6170692F61639A
:10035000636F756E7420485454502F312E310D0A3E
:10036000004448435020726562696E643A20737598
:100370006363657373004448435020726562696E1D
:10038000643A206661696C65640044484350207299
:10039000656E6577616C3A2073756363657373008E
:1003A000444843502072656E6577616C3A206661FF
:1003B000696C656400444843502072656E657761DE
:1003C0006C3A206E6F7468696E6720686170706542
:1003D0006E6564004469646E277420777269746581
:1003E0002C20746861742773207768617420796F9A
:1003F000752077616E7465642C2072696768743F3C
:1004000000474C4F42414C204C4F434B204F4646F7
:100410002E00474C4F42414C204C4F434B204F4EF7
:100420002E004C696768742061646D696E206D6F81
:100430006465204F46462E004C69676874206164ED
:100440006D696E206D6F6465204F4E2E004375738D
:10045000746F6D206D6F64653A206C6967687420F5
:100460004F46462E00437573746F6D206D6F646543
:100470003A206C69676874204F4E2E00504F5354D9
:10048000202F6170692F656E747279204854545022
:100490002F312E310D0A003B003A003A0020002F88
:1004A000002F007B22456D61696C223A2261646DE8
:1004B000696E4061646D696E2E6F7267222C2250E6
:1004C000617373776F7264223A2241646D696E5F63
:1004D00070726F6A656B7430222C2252656D656D87
:1004E0006265724D65223A2266616C7365227D0DEC
:1004F0000A00436F6E74656E742D4C656E67746888
:100500003A2000646973636F6E6E656374696E6729
:100510002E00646973636F6E6E656374696E672E17
:10052000002D2D2D2D2D2D2D2D2D2D2D2D2D2D2D28
:100530002D002D2D2D2D2D2D2D2D2D2D2D2D2D2D18
:100540002D2D000D0A007D0D0A007B22537461746D
:1005500065223A00000020002300260029002C001C
:100560002F00320000010000030106010901000014
:100570002100240027002A002D0030003300010153
:100580000000040107010A010000220025002800E4
:100590002B002E003100340002010000050108018B
:1005A0000B0100000A0B02090C0D0E0807030401E1
:1005B000000000000000000000000000000000003B
:1005C0000000000000000000000000000000121108
:1005D000100000000000000000000000000000000B
:1005E0000000000000000000227D0D0A007D2C228A
:1005F0006465766963654964223A22002C224C695D
:100600006768745374617465223A002C22416972E0
:1006100054656D7065726174757265223A00222CA2
:100620002241697248756D6964697479223A002CB7
:1006300022536F696C4465736372697074696F6E7D
:10064000223A2200222C22536F696C4D6F69737419
:10065000757265223A003A0020002D0030007B229E
:100660006D656173757265223A7B224461746554CD
:10067000696D65223A2200636F6E6E656374696FFF
:100680006E206661696C6564006F6B00436163682E
:10069000652D436F6E74726F6C3A206E6F2D6361BF
:1006A0006368650D0A00436F6E74656E742D54792E
:1006B00070653A206170706C69636174696F6E2F48
:1006C0006A736F6E0D0A00436F6E6E656374696FB7
:1006D0006E3A20636C6F73650D0A00486F73743A4D
:1006E000206761726475696E6F70726F6A6563749A
:1006F0002E617A75726577656273697465732E6EA3
:1007000065740D0A004D616B65206120485454509A
:100710002072657175657374202E2E2E2000227D47
:100720000D0A00222C226465766963654964223AC9
:1007300022007B226461746554696D65223A22004F
:10074000A94011241FBECFEFD1E2DEBFCDBF00E034
:100750000CBF15E0A0E0B2E0ECEAF4E900E00BBF6A
:1007600002C007900D92A432B107D9F727E0A4E2A6
:10077000B5E001C01D92A03DB207E1F713E0C1EA68
:10078000D3E000E006C021970109802FFE010E94FE
:100790001947C03AD10780E00807A9F70E94FD2E4B
:1007A0000C94544A2DCC80E090E00895089508956B
:1007B00008950895CF93DF93DB011696ED91FC9198
:1007C0001797C481D5811796DC93CE9316977583BE
:1007D0006483209719F08881998102C08FEF9FEF81
:1007E0001496CD91DC911597209719F05881498185
:1007F00002C05FEF4FEF252F342F281739070CF475
:100800009C012F5F3F4F2D933C93A681B78110979A
:1008100021F09C9111968C9102C09FEF8FEF492F90
:10082000582F421753070CF4A9014F5F5F4F5183B4
:100830004083CF01DF91CF910895CF93DF93DB0108
:100840001496ED91FC9115972681378115963C936E
:100850002E9314977783668316968D919C911797A4
:10086000009739F0EC01588149812115310531F4A7
:1008700009C02115310519F15FEF4FEFE9018881BA
:10088000998102C08FEF9FEF252F342F281739074A
:100890000CF49C012F5F3F4F2D933C93A481B581B5
:1008A000109721F09C9111968C9102C09FEF8FEFD1
:1008B000492F582F421753072CF4A90103C02FEFDB
:1008C0003FEFE8CF4F5F5F4F51834083CF01DF9110
:1008D000CF910895CF93DF93EB01488150E04053CF
:1008E000584F052E000C660B770B2AE08FEC96E034
:1008F0000E94B42E81EA94E00E94A428498150E02D
:1009000060E070E02AE08FEC96E00E94B42E8FE960
:1009100094E00E94A4284A8150E060E070E02AE060
:100920008FEC96E00E94B42E8DE994E00E94A428FA
:100930004B8150E060E070E02AE08FEC96E00E948E
:10094000B42E8BE994E00E94A4284C8150E060E032
:1009500070E02AE08FEC96E00E94B42E89E994E0E2
:100960000E94A4284D8150E060E070E02AE08FEC06
:1009700096E00E94B42E87E994E0DF91CF910C9429
:10098000C5280F931F93CF93DF9300D000D0CDB72E
:10099000DEB78C01BC016A5F7F4FCE0101960E94D9
:1009A000E924BE016F5F7F4FF8018685978592DF4E
:1009B00026960FB6F894DEBF0FBECDBFDF91CF9164
:1009C0001F910F910895FC01118614861786768376
:1009D00065838EEA92E091838083118A108A138A5C
:1009E000128A158A148AF78BE68B108E87E090E0C6
:1009F0009383828308956F3F7105A9F0A4F06B354E
:100A000081E0780754F0693B81E078074CF064316D
:100A100072404CF489EA94E0089583E994E00895E3
:100A200088E994E008958CE994E008958F929F926C
:100A3000AF92BF92DF92EF92FF920F931F93CF93EB
:100A4000DF937C01EA0161E082E00E94D62268EE39
:100A500073E080E090E00E94412380917B00877FDB
:100A600080937B0081E480937C0080917A00806495
:100A700080937A0080917A0086FDFCCF8091780087
:100A80002091790090E0922B998388830C851D85B5
:100A9000C8010E948B2A8823A9F1D80116968C914F
:100AA0008B3041F178F18551823060F5D8016C913D
:100AB00070E080E090E00E94084320E030E040E8F1
:100AC00053E40E9469434B015C01F8018181682F66
:100AD00070E080E090E00E940A439B01AC01C501F8
:100AE000B4010E9491442DEC3CEC4CEC5DE30E947F
:100AF00069430CC0F801608170E080E090E00E94E2
:100B0000084304C060E070E080EC9FE76887798765
:100B10008A879B870C851D85C8010E948B2A8823A4
:100B2000E1F1D80116968C918B3029F0B0F1855106
:100B3000823048F032C0F801628170E080E090E0DD
:100B40000E9408432EC0D8011296DC906D2D6F775D
:100B500070E080E090E00E940A4320E030E040E84E
:100B600053E40E9469434B015C01F8018381682FC3
:100B700070E080E090E00E940A439B01AC01C50157
:100B8000B4010E9491442DEC3CEC4CEC5DE30E94DE
:100B90006943D7FE06C0905804C060E070E080EC66
:100BA0009FE76C837D838E839F8360E082E00E9459
:100BB000D622D701ED91FC91C489D5890CE016E1CC
:100BC00020E030E0E12C41E06CE774E0CE010E94CF
:100BD0003F2ACE01DF91CF911F910F91FF90EF90AF
:100BE000DF90BF90AF909F908F900C94A312DC0188
:100BF0002D913C912115310529F48DEA94E00E9454
:100C0000062920C062177307ECF4DC011296ED91FF
:100C1000FC9113972481358181E090E0309769F051
:100C2000681779076CF02115310551F00280F381C6
:100C3000E02D248135810196F1CF6817790714F0F2
:100C4000C901089580E090E0089560E070E040966A
:100C5000CEDF009701F408950F931F93CF93DF9396
:100C6000EC018B0186E090E00E945D41FC01118265
:100C7000108213821282158304838881D80114960E
:100C80008C9314978E819F8118969C938E931797BF
:100C900041E019964C932A813B8188819981232BCD
:100CA00019F4FB83EA831CC06C817D8171836083AE
:100CB000DB0114962D913C911597D8011B963C931E
:100CC0002E931A971C964C93D9011E961C930E9343
:100CD0001D971F964C93DB011396FC93EE9312978E
:100CE000FD83EC83019699838883DF91CF911F91D7
:100CF0000F910895FC0122813381C9010197039767
:100D000048F081E02530310539F02630310521F0F9
:100D100080E0089581E0089508950F931F93CF9385
:100D2000DF93FC016A30710551F5C481D58160E023
:100D300070E0A1E0B0E06C177D07ECF59B01265F49
:100D40003F4F828193818D0102C0000F111F2A95B0
:100D5000E2F798014115510519F0802B912B04C041
:100D600020953095822393239383828357FF02C07B
:100D70004F5F5F4F559547956F5F7F4FDCCFA281E7
:100D8000B381452B59F021E030E002C0220F331F20
:100D90006A95E2F7CD01822B932B0BC081E090E0A6
:100DA00002C0880F991F6A95E2F7809590958A2373
:100DB0009B2393838283DF91CF911F910F9108959D
:100DC0004F925F926F927F928F929F92AF92BF925B
:100DD000CF92DF92EF92FF920F931F93CF93DF9307
:100DE00000D01F92CDB7DEB77C016A30710509F0E3
:100DF00055C0FC014480558000E010E0A12CB12CCE
:100E000066246394712C041515050CF045C0C801C7
:100E10000A96B30102C0660F771F8A95E2F7F701C1
:100E200082819381862397230E9406476B01B80134
:100E3000012E000C880B990B0E940A439B01AC0108
:100E400060E070E080E090E40E9492459B01AC017C
:100E5000B501BB0C880B990B29833A834B835C83C8
:100E60000E940A434B015C01B601DD0C880B990B13
:100E70000E940A4329813A814B815C810E94694327
:100E80009B01AC01C501B4010E9491440E945D45E3
:100E90005B010F5F1F4FB7CFC50111C081E090E02C
:100EA0009C0102C0220F331F6A95E2F7B901F701D6
:100EB00082819381822393230E940647CB010F9066
:100EC0000F900F900F90DF91CF911F910F91FF9096
:100ED000EF90DF90CF90BF90AF909F908F907F90DA
:100EE0006F905F904F90089569E070E069CF67E080
:100EF00070E066CF65E070E063CFCF93DF93EC01E5
:100F0000F9DF892B49F040E050E065E070E0CE0168
:100F100004DF82E294E008C041E050E065E070E068
:100F2000CE01FBDE88E394E0DF91CF910C94C528DD
:100F300064E070E045CFCF93DF93EC01F9DF892BBC
:100F400061F08DE494E00E94C52840E050E064E048
:100F500070E0CE01E2DE61E00BC085E694E00E9425
:100F6000C52841E050E064E070E0CE01D6DE60E0EC
:100F700086E0DF91CF910C94D62261E070E020CF23
:100F800060E070E01DCFCF93DF93EC01F9DF892B98
:100F900049F040E050E060E070E0CE01BEDE81E06C
:100FA00094E020C041E050E060E070E0CE01B5DEAA
:100FB00040E050E065E070E0CE01AFDE40E050E0A0
:100FC00067E070E0CE01A9DE40E050E069E070E04B
:100FD000CE01A3DE40E050E06DE070E0CE019DDE8A
:100FE00082E194E0DF91CF910C94C528DC01569604
:100FF0004D915C9157975496ED91FC915597CA018C
:101000009595879550962D913C91519740FF0AC038
:10101000D901A80FB91F4D915C91E40FF51F019004
:10102000F081E02D820F931F1994DC0156964D91AB
:101030005C9157975496ED91FC915597CA019595FF
:10104000879550962D913C91519740FF0AC0D90148
:10105000A80FB91F4D915C91E40FF51F0190F0812D
:10106000E02D820F931F199521E0892B09F420E0D0
:10107000822F0895EF92FF920F931F93CF93DF93E8
:10108000EC0119861C861F867E836D83598B488BE5
:101090003B8B2A8B81E090E09B838A8384EA92E0F9
:1010A00099838883FD8AEC8A1F8B0E8BC8019595E6
:1010B000879500FF0CC0FA01E80FF91F0190F0813D
:1010C000E02DEE0DFF1D0190F081E02D01C0F70134
:1010D000840F951F199521E0892B09F420E0288FB2
:1010E00084E090E09B838A83DF91CF911F910F91E1
:1010F000FF90EF900895EF92FF920F931F93CF937D
:10110000DF937C01EB018A0180E090E02097C9F039
:101110000097B9F48A819B81FC01208531850217F3
:10112000130724F40C80DD81C02D06C02017310781
:1011300044F40E80DF81C02DA801BE01C701DBDFB2
:10114000E5CFDF91CF911F910F91FF90EF90089520
:10115000EF92FF920F931F93CF93DF938C017B014C
:10116000EA01209771F488E090E00E945D41EC0173
:10117000198218821D821C821F821E82FB82EA82D3
:1011800071C0EA81FB81DB0118962D913C91199782
:10119000808591852817390774F54C815D81C801D8
:1011A000D7DF9D838C83009721F0FC012081318162
:1011B00002C02FEF3FEFEE81FF81309719F04081A1
:1011C000518102C04FEF5FEF241B350B22303105F8
:1011D00009F048C0DC0112962D913C911397E2165C
:1011E000F30628F0BC01C801E5DA9D838C83BE01BB
:1011F000C80123DB36C0E617F707A0F54E815F81F3
:10120000C801A6DF9F838E83009721F0FC01208117
:10121000318102C02FEF3FEFEC81FD81309719F053
:101220004081518102C04FEF5FEF241B350B22300C
:101230003105C1F4DC011296ED91FC911397D701B1
:1012400018964D915C9119972085318524173507A3
:101250002CF0BC01C801F1DA9F838E83BE01C80166
:10126000A9DAEC01EE81FF81309719F020813181FC
:1012700002C02FEF3FEFEC81FD81309719F05081D4
:10128000418102C05FEF4FEF852F942F82179307A4
:101290000CF4C901019699838883CE01DF91CF9127
:1012A0001F910F91FF90EF900895EF92FF920F938F
:1012B0001F93CF93DF938C01DC011696ED91FC9187
:1012C000179780819181892B09F44BC0E280F380CC
:1012D000F701C081D181E114F10409F442C088858D
:1012E0004E815F81EC81FD81288139818823A9F0BD
:1012F000CA019595879540FF0AC0D901A80FB91F6B
:101300004D915C91E40FF51F0190F081E02D820F6B
:10131000931F19950197F9F414C0CA019595879503
:1013200040FF0AC0D901A80FB91F4D915C91E40F8D
:10133000F51F0190F081E02D820F931F1995892BE5
:1013400051F48A819B81DF91CF911F910F91FF9082
:10135000EF900C940629D7011696ED90FC90179704
:10136000B7CFF8018481958180FD06C0D80112961F
:10137000ED91FC91139715C0D801ED91FC91119757
:101380009C0135952795E20FF31F0190F081E02D28
:1013900012962D913C911397E20FF31F0190F0816B
:1013A000E02D95958795D8012D913C91820F931F43
:1013B000DF91CF911F910F91FF90EF901994FC0155
:1013C0008289938972DF80E090E00895CF93DF9364
:1013D000EC01F5DFCE0129DE888FDF91CF910895F2
:1013E0008F929F92AF92BF92EF92FF920F931F93B3
:1013F000CF93DF93EC017B01480159017983688326
:101400005987488788E090E00E945D41FC01118285
:1014100010821382128215821482F782E6829F83E1
:101420008E838A829B82AC82BD82DF91CF911F9195
:101430000F91FF90EF90BF90AF909F908F90089585
:101440000F931F93CF93DF93EC018B0188E090E023
:101450000E945D41FC0188E0DF011D928A95E9F759
:10146000118300838E819F819583848388819981F4
:101470009C012F5F3F4F39832883938382838A8126
:101480009B81892B19F4FB83EA8306C0AC81BD8163
:101490001796FC93EE931697FD83EC83DF91CF9123
:1014A0001F910F910895CF92DF92EF92FF92CF9309
:1014B000DF93EC016B8170E080E090E00E940843D4
:1014C0006B017C018C81682F70E080E090E00E94CD
:1014D000084320E030E040E752E40E94F5449B01DD
:1014E000AC01C701B6010E9491446B017C018D8162
:1014F000682F70E080E090E00E94084320E030E038
:1015000041E655E40E94F5449B01AC01C701B601D8
:101510000E949144DF91CF91FF90EF90DF90CF90A8
:10152000089580E3FB0180833296842F82958F702B
:1015300090E1899F401911244A3014F4405D01C0A4
:10154000495C4293482F8111F0CF089585ED809337
:10155000BC008091BC0084FDFCCF1092260508954C
:1015600040912106262F30E0240F311D2132310514
:10157000DCF4209126052430C9F4FC0180E090E0E1
:10158000861758F4309121062191DC01A150BA4F01
:10159000A30FB11D2C930196F3CF80912106680F04
:1015A0006093210680E0089581E0089582E0089527
:1015B0000895E0912A0580912905E81730F4F0E0BC
:1015C000ED56F94F808190E008958FEF9FEF0895D9
:1015D00090912A0580912905981750F4E92FF0E0A1
:1015E000ED56F94F208130E09F5F90932A0502C0AD
:1015F0002FEF3FEFC90108958091290590E02091D8
:101600002A05821B91090895CF92DF92EF92FF92F3
:101610000F931F93CF93DF937C01262F972F8A017F
:1016200080914E06882391F0C62FD72F6E01C40EED
:10163000D51ECC15DD0569F06991D701ED91FC91BE
:101640000190F081E02DC7011995F3CF642F822F0F
:1016500087DFC801DF91CF911F910F91FF90EF902D
:10166000DF90CF900895CF93DF931F92CDB7DEB771
:10167000698320914E062223D1F020912705203244
:1016800040F021E030E0FC013383228380E090E0F1
:1016900014C080912805E82FF0E0E15BF94F9981B3
:1016A00090838F5F809328058093270504C061E0B5
:1016B000CE01019655DF81E090E00F90DF91CF9150
:1016C0000895089580E090E008952F923F924F9200
:1016D0005F926F927F928F929F92AF92BF92CF92C2
:1016E000DF92EF92FF920F931F93CF93DF93CDB7CB
:1016F000DEB7E3970FB6F894DEBF0FBECDBF7C0117
:101700001A012B0139010E9479234B015C018701E9
:101710000D5B1F4FC8010E94EE1D18161906A4F09C
:101720000E947923DC01CB0188199909AA09BB0918
:10173000281639064A065B06D8F062E370E080E0BE
:1017400090E00E944123E6CF42E250E0BE016F5F8D
:101750007F4FC8010E94881D8981823011F080E08E
:1017600061C1F8018489958983349105C1F702C06C
:101770008FEF58C16D817E818F8198850E942147AE
:101780004B015C01F301608371838283938346E0A4
:1017900050E0B701685F7F4FCE014D960E947747BA
:1017A000892BE9F6F70180819181A281B3818816A6
:1017B0009906AA06BB0698F284819581A681B78115
:1017C00088159905AA05BB0550F289899A89AB89C4
:1017D000BC8986879787A08BB18B8EECA82EB12C05
:1017E000C8010E94A71DF1E0AF1AB108C9F719A6F8
:1017F000670182E2C80ED11CF701B696FBA7EAA7E3
:10180000C7018A969DA78CA73C974F0189969FA7F1
:101810008EA73897F9ABE8AB1701F6E12F0E311C14
:10182000C5979BAB8AABF801818D928D181619066E
:101830000CF0F7C0C8010E94A71D8333910509F47D
:10184000CBC0FCF481309105C9F11CF4892B59F30C
:10185000DCC083309105D1F1069709F0D6C0C801EC
:101860000E94A71D5C0144E050E06AA97BA9C80161
:101870000E94881D412C512CBB24F4E0AF1AB10802
:1018800040C08A33910509F47BC03CF4853391054F
:1018900069F0C69709F440C0B8C08B33910509F4CC
:1018A00085C08F3F910509F4BECFAFC0C8010E942B
:1018B000A71DC8010E94A71D89A7B5CFC8010E9416
:1018C000A71D44E050E068A979A93AC0C8010E9468
:1018D000A71D5C0144E050E0B101C8010E94881DD1
:1018E000412C512CBB2494E0A91AB1084A145B0482
:1018F0000CF099CFC8010E94A71DEFEF4E1A5E0AA7
:10190000F5CF4A145B040CF08ECFC8010E94A71DCE
:101910008FEF481A580AF5CFC8010E94A71DB82EAC
:10192000F701828D811110C0838D81110DC0848DCE
:1019300081110AC0858D811107C044E050E0B401D7
:10194000C8010E94881D6FCFEEA5FFA54080518081
:1019500062807380B401CE0183960E9467228DA1BC
:101960009EA1AFA1B8A584159505A605B70529F3D5
:10197000BB2009F458CFC8010E94A71DBA94F8CF24
:10198000C8010E94A71D44E050E06AA57BA5C801DC
:101990000E94881DF70166A177A180A591A50E94EC
:1019A000214766A377A380A791A73DCFC8010E94D6
:1019B000A71D44E050E06CA57DA5C8010E94881DCC
:1019C000F70162A573A584A595A50E94214762A78A
:1019D00073A784A795A727CFC8010E94A71D44E03D
:1019E00050E0B601C8010E94881DF70162A173A1F1
:1019F00084A195A10E94214762A373A384A395A308
:101A000066A777A780AB91AB0ECFC8010E94A71D38
:101A1000B82EBB2009F407CFC8010E94A71DBA94B5
:101A2000F8CF89A5E3960FB6F894DEBF0FBECDBF01
:101A3000DF91CF911F910F91FF90EF90DF90CF90AA
:101A4000BF90AF909F908F907F906F905F904F90DE
:101A50003F902F9008957F928F929F92AF92BF9266
:101A6000CF92DF92EF92FF920F931F93CF93DF936A
:101A7000CDB7DEB7A6970FB6F894DEBF0FBECDBFC9
:101A80008C01762E942E852E20E2B22ECE01019668
:101A90007C01FC012B2D11922A95E9F784E593E056
:101AA0009AA389A38FEF8BA38CA38DA38EA3680128
:101AB00083E4C80ED11C43E450E0BE016F5D7F4F4C
:101AC000C6010E94B21F019609F4BCC081E089835F
:101AD0008A8386E0A82EAB821C82F801648175811E
:101AE000868197810E9421476D837E838F839887AB
:101AF00089869A8680E890E09C878B874CE150E04D
:101B0000B701C6010E94471EF7012B2D11922A959D
:101B1000E9F7480188E0880E911CF401D701019093
:101B20000D92AA94E1F740E150E0B701C6010E948E
:101B3000471EF7011192BA94E9F796E0A92EB12C4D
:101B400040E250E0B701C6010E94471EF1E0AF1A23
:101B5000B108B1F783E6898392E89A8393E59B8382
:101B60008C8385E38D8381E08E837F829DE39887DC
:101B700097E099878A8786E0F401DE011B96019041
:101B80000D928A95E1F78CE0898B8A8B64EB74E087
:101B9000CE0143960E948447F8014385BE01675EEB
:101BA0007F4FC801BEDCF8014485BE01655E7F4FF2
:101BB000C801B7DCF8014585BE01635E7F4FC801EF
:101BC000B0DC4EE150E0B701C6010E94471EF3E0D1
:101BD0007F121EC082E3898384E08A83F8019685A0
:101BE0009B8397859C8390899D8391899E8396E3AF
:101BF0009F838887828D8987838D8A87848D8B8751
:101C0000858D8C874CE050E0B701C6010E94471ECD
:101C100087E3898386E08A8391E09B8393E09C83BA
:101C20008D838FE08E838AE38F838BE388878FEFAA
:101C3000898749E050E0B701C6010E94471EC601EE
:101C40000E94741FA6960FB6F894DEBF0FBECDBFDC
:101C5000DF91CF911F910F91FF90EF90DF90CF9088
:101C6000BF90AF909F908F907F900895EF92FF92DA
:101C70000F931F93CF93DF931F92CDB7DEB78C01E5
:101C80007B01FB01608169830E941D4469816817A3
:101C900019F0C8010E942544C7010F90DF91CF9130
:101CA0001F910F91FF90EF9008950F931F93CF9383
:101CB000DF93EC0162EF74E091D663EA74E0CE0149
:101CC00061D48C01BC01CE0102960E94D328B801D8
:101CD0008FEC96E00E94D328CE01A1D6CE019FD6EC
:101CE00063EA74E0CE01DF91CF911F910F9176C42A
:101CF0002F923F924F925F926F927F928F929F921C
:101D0000AF92BF92CF92DF92EF92FF920F931F9309
:101D1000CF93DF93CDB7DEB727970FB6F894DEBF2A
:101D20000FBECDBF8C010E94D3422FEC37E040E0C4
:101D300050E00E943344DC01CB010196A11DB11D8E
:101D4000F80184839583A683B78380839183A283DC
:101D5000B3835801F3E4AF0EB11CC5010E94EF1E1E
:101D600064E470E0C5010E94041F882309F437C1B0
:101D70000E9479232B013C01812C912C1D82C801EA
:101D80008E5B9F4F9F838E8343E0342E58EEC52E8B
:101D900053E0D52EE12CF12C62E0262EAE81BF81DE
:101DA0008C91833009F402C181111FC0F801848134
:101DB0009581A681B7810196A11DB11D848395836C
:101DC000A683B7830E947923641975098609970948
:101DD000A70196010E945F44A90161E0C8013BDEB2
:101DE00081E0AE81BF818C93C2C08430F1F4F801F0
:101DF00084819581A681B7810196A11DB11D84833F
:101E00009583A683B7830E9479236419750986098F
:101E10009709A70196010E945F44A90163E0C801E8
:101E20001ADEAE81BF812C92A2C0813051F5F8013B
:101E300042AD53AD64AD75AD9E012F5F3F4FC801FC
:101E400044DC8D83823009F092C089819A81AB8114
:101E5000BC81F80184839583A683B7830E9479238C
:101E60006419750986099709A70196010E945F44C4
:101E7000A90163E0C801EFDDED81AE81BF81EC9384
:101E80007DC0823009F073C0D801DA964D915D9122
:101E90006D917C91DD979E012F5F3F4FC80115DC4E
:101EA0008D83853009F05CC0EE81FF813082F801BE
:101EB00082A193A1A4A1B5A1892B8A2B8B2B41F4DC
:101EC00084E893E0A0E0B0E082A393A3A4A3B5A329
:101ED000F80186A197A1A0A5B1A5892B8A2B8B2BF0
:101EE00061F482A193A1A4A1B5A1B695A7959795F8
:101EF000879586A397A3A0A7B1A7F80182A593A56C
:101F0000A4A5B5A5892B8A2B8B2BA9F482A193A11B
:101F1000A4A1B5A1AC01BD0123E0769567955795C5
:101F200047952A95D1F7841B950BA60BB70B82A773
:101F300093A7A4A7B5A7F80186A197A1A0A5B1A5CD
:101F400086A797A7A0ABB1AB82A593A5A4A5B5A57D
:101F500082AB93ABA4ABB5AB88248394912C0EC019
:101F6000FD81F63021F4AE81BF811C9207C0BD8196
:101F7000BF3F21F4EE81FF8110821D82F1E08F16B8
:101F8000910409F40BCF0E947923DC01CB01841961
:101F90009509A609B709F80126A937A940AD51ADA1
:101FA000281739074A075B0708F0F8CEC5010E94D9
:101FB000EF1EF80184819581A681B7810196A11D4C
:101FC000B11D84839583A683B7830E947923F8018A
:101FD000FE966083718382839383C40102C080E094
:101FE00090E027960FB6F894DEBF0FBECDBFDF910D
:101FF000CF911F910F91FF90EF90DF90CF90BF9006
:10200000AF909F908F907F906F905F904F903F9098
:102010002F9008951F920F920FB60F9211240BB6B6
:102020000F922F933F934F935F936F937F938F9371
:102030009F93AF93BF93EF93FF938091B900887FF5
:10204000803609F49CC068F5883209F45BC090F4CE
:10205000803109F454C038F4882309F4F6C088307C
:1020600009F44DC0F5C0883109F44CC0803209F440
:102070005DC0EEC0803409F468C048F4803309F4D0
:1020800055C0883309F0E4C080939206D8C08035EB
:1020900009F44FC0883509F45DC0883409F0D8C010
:1020A000D6C0883909F4C7C0A8F4883709F467C0D6
:1020B00038F4883609F463C0803709F460C0C8C0BA
:1020C000883809F4B8C0803909F45FC0803809F055
:1020D000BFC05BC0803B09F486C038F4803A09F485
:1020E00066C0883A09F47FC0B3C0803C09F4A7C039
:1020F000883C09F4A4C0883B09F48AC0A9C0809137
:102100008F0610C09091910680919006981770F5F7
:10211000E091910681E08E0F80939106F0E0E15905
:10212000F94F80818093BB0085EC86C08093920636
:102130008EC0E091910681E08E0F80939106809190
:10214000BB00F0E0E159F94F8083909191068091B6
:1021500090066EC0E091910681E08E0F809391060B
:102160008091BB00F0E0E159F94F80838091250513
:1021700081116DC081E08093240584EA61C083E011
:102180008093260510924506CFCF80914506803278
:1021900008F051C0E091450681E08E0F809345061E
:1021A0008091BB00F0E0EB5DF94F8083BDCF85EC03
:1021B0008093BC001092260580914506803230F451
:1021C000E0914506F0E0EB5DF94F10826091450625
:1021D00070E0E0912306F091240685E296E01995DF
:1021E0001092450635C084E08093260510922206A1
:1021F00010922106E0911F06F0912006199580911A
:102200002106811105C081E0809321061092FF050F
:10221000E091220681E08E0F80932206F0E0E150EB
:10222000FA4F80818093BB00909122068091210615
:10223000981708F479CF85E88093BC0009C085EC35
:102240008093BC001092260503C0109292067ED99E
:10225000FF91EF91BF91AF919F918F917F916F917E
:102260005F914F913F912F910F900BBE0F900FBE3A
:102270000F901F901895CF93DF93EB010E941D44A0
:102280008883CE01DF91CF9108952F923F924F9294
:102290005F926F927F928F929F92AF92BF92CF92F6
:1022A000DF92EF92FF920F931F93CF93DF93CDB7FF
:1022B000DEB7A9970FB6F894DEBF0FBECDBF5C01A5
:1022C0004B015DA34CA33AA329A30BA3E8A6DFA26D
:1022D000CEA219821A821B821C82FE0135968AE1E7
:1022E000DF011D928A95E9F7C5014CD1282E00E047
:1022F00010E0312CD12CC12C7501B2E0EB0EF11C99
:10230000C7010E94F61F882309F480C0C701AAD71D
:10231000892BB1F3C7010E94D41D8F8FC11070C0EB
:10232000282F082E000C330B632C712CF401E60DC2
:10233000F71D449150E02417350719F4DD2009F406
:10234000D4C0E491F0E02E173F0709F4F8C0DD2077
:1023500009F4F3C04BA1442309F4D4C0BE01615E6B
:102360007F4F8EA19FA1800F911F80DC0F5F1F4FB9
:102370008F8D082E000C990BECA1FDA1E60DF71D29
:10238000249130E08217930709F0B8C0E491F0E09F
:102390008E179F0709F0B3C03394321408F4AFC00E
:1023A000222D30E04BA1442309F4BCC08EA19FA193
:1023B000800F911F48A5442309F4ACC02C01421A98
:1023C000530A84EBC82E82E0D82E320184E0680ED6
:1023D000711CD6016D916D01C20169A70E941D4457
:1023E00069A5681719F0C2010E942544BFEF4B1A76
:1023F0005B0A4614570469F7DD24D394CC24C394B4
:102400006F8D8FEC96E00E94982E80CF1E8E82E119
:1024100095E00E94C528C7010E9419206BEB74E06B
:102420008FEC96E00E94FC2ECE0101960E940629B8
:102430004BA1411135C029818E010E5F1F4FF8015C
:1024400080E090E0222329F0203209F001962191CA
:10245000F9CF0E941729298180E090E0222339F0EA
:10246000203209F00196D8012D918D01F7CF892BEB
:1024700089F08AEC94E00E940629CE0101960E9420
:10248000DF42E9A1FAA19183808382ED94E00E946A
:10249000062906C084EF91E0A9A1BAA18D939C936F
:1024A00069ED74E08FEC96E00E94FC2EE9A1FAA1A0
:1024B000808191810E941729A9960FB6F894DEBFFA
:1024C0000FBECDBFDF91CF911F910F91FF90EF9085
:1024D000DF90CF90BF90AF909F908F907F906F9044
:1024E0005F904F903F902F9008953394321408F4EA
:1024F00087CF6CA17DA1C50145D0282E312CDD24CC
:10250000D3947ECFE1E0F0E0EC0FFD1FE00FF11F70
:1025100080832CCF18A2BE01605E7F4F821B930B7D
:10252000A5DB6ACFF801E21BF30B81E090E08C0F92
:102530009D1FE80FF91F10825FCF312C61CFDD2086
:1025400009F45ECF07CFCF93DF93EC012296CE0143
:102550000E94F61F882369F0CE0184D6892BB9F337
:10256000CE010E94D41D682F8FEC96E00E94982E19
:10257000F3CF83E095E00E94C528CE01DF91CF9193
:102580000C941920FB01249180E090E0222331F08B
:102590000196FB01E80FF91F2491F8CF0895FB0184
:1025A00001900020E9F7CF010197861B970B089552
:1025B000CF93DF93EB0102960E94FC2EBE018FECBD
:1025C00096E00E94FC2EFE0101900020E9F7CF0169
:1025D00001978C1B9D0BDF91CF910895CF92DF92D5
:1025E000EF92FF920F931F93CF936B01FB01C49166
:1025F00000E010E07C01F2E0EF0EF11CCC2381F052
:102600000F5F1F4F6C2FC7010E94982E6C2F8FEC0D
:1026100096E00E94982EF601E00FF11FC491EECFD4
:10262000C801CF911F910F91FF90EF90DF90CF9055
:1026300008954F925F926F927F928F929F92AF9286
:10264000BF92EF92FF920F931F93CF93DF9300D02F
:102650001F92CDB7DEB72A013B0119821A821B8275
:102660001C82CB01BA010E945D454B015C019F9227
:102670006F938BEE94E09F938F938E010F5F1F4FAC
:102680001F930F930E948B47F80101900020E9F7F8
:102690007F01E01AF10AB401990C880B990B0E9492
:1026A0000A439B01AC01C301B2010E94904420E0A7
:1026B00030E040E251E40E9469434B015C010F901D
:1026C0000F900F900F900F900F9020E030E0A90135
:1026D0000E948E4520E030E040E05FE387FD05C0CA
:1026E000C501B4010E94914404C0C501B4010E9417
:1026F00090440E945D459F938F937F936F938BEEE1
:1027000094E09F938F931F930F930E948B47F80140
:1027100001900020E9F73197CF01801B910B0FB694
:10272000F894DEBF0FBECDBF8E0D9F1D0F900F9092
:102730000F900F90DF91CF911F910F91FF90EF902D
:10274000BF90AF909F908F907F906F905F904F90D1
:1027500008954F925F926F927F928F929F92AF9265
:10276000BF92CF92DF92EF92FF920F931F93CF937E
:10277000DF9300D01F92CDB7DEB74C016A017B0119
:1027800019821A821B821C82CB01BA010E945D450C
:102790002B013C015F926F938BEE94E09F938F939C
:1027A0008E010F5F1F4F1F930F930E948B47B8013D
:1027B000C401FEDE5C0167E074E0C401F9DEA80E2E
:1027C000B91EB201550C880B990B0E940A439B015C
:1027D000AC01C701B6010E94904420E030E040E225
:1027E00051E40E9469436B017C010F900F900F90A0
:1027F0000F900F900F9020E030E0A9010E948E45CD
:1028000020E030E040E05FE387FD05C0C701B6018E
:102810000E94914404C0C701B6010E9490440E94E6
:102820005D459F938F937F936F938BEE94E09F937F
:102830008F931F930F930E948B47B801C401B8DE9A
:102840000FB6F894DEBF0FBECDBF8A0D9B1D0F9053
:102850000F900F900F90DF91CF911F910F91FF90EC
:10286000EF90DF90CF90BF90AF909F908F907F9030
:102870006F905F904F900895DF92EF92FF920F93C9
:102880001F93CF93DF931F92CDB7DEB77C018B01EF
:10289000D42EBE016F5F7F4FC801EDDC82E0E80EF1
:1028A000F11C6981662319F10F5F1F4FDD2041F094
:1028B000C7010E94982E69818FEC96E00E94982EA5
:1028C0009981892F8F7D81548A3158F09D3249F04A
:1028D00090539A3030F06EEE74E08FEC96E00E94E8
:1028E000FC2EBE016F5F7F4FC801C5DCDACFC80187
:1028F0000F90DF91CF911F910F91FF90EF90DF909C
:102900000895CF93DF93EB0140E0B6DF8C1B9D0B66
:10291000DF91CF910895CF93DF93EB0141E0ACDFDE
:102920008C1B9D0BDF91CF910895FC0182899389C7
:102930000E94550980E090E00895EF92FF920F9376
:102940001F93CF93DF931F92CDB7DEB77C01BE01FB
:102950006F5F7F4F80E090E08EDC00E010E082E06F
:10296000E80EF11C6981662381F00F5F1F4FC701DC
:102970000E94982E69818FEC96E00E94982EBE01ED
:102980006F5F7F4FC80177DCEDCF0F90DF91CF9164
:102990001F910F91FF90EF900895CF93DF9340E543
:1029A00050E066EF74E00296BAD7EC010E94172956
:1029B00081E0CD2B09F480E0DF91CF910895FB01F8
:1029C0002491DA0180E090E0222339F02D930196E2
:1029D000FB01E80FF91F2491F7CF0895EF92FF92C2
:1029E0001F93CF93DF93FB011491EB017C01F2E085
:1029F000EF0EF11C2196112361F0612FC7010E9497
:102A0000982E612F8FEC96E00E94982EFE01149173
:102A1000F1CFDF91CF911F91FF90EF90089563E484
:102A200075E0DCCFAF92BF92CF92DF92EF92FF9230
:102A30000F931F93CF93DF93CDB7DEB728970FB6D1
:102A4000F894DEBF0FBECDBF8C0162EF74E0C6DF2D
:102A50006AE475E0C80196DD7C0119821A821B8246
:102A60001C821D821E821F821886D801ED91FC9166
:102A700083818F9382818F938BEEA82E84E0B82E72
:102A8000BF92AF92CE0101966C019F938F930E94EB
:102A90008B47F60101900020E9F73197EC19FD0909
:102AA000EE0EFF1E66E475E0C8016CDDE80EF91E4F
:102AB000B701C80102960E94D328B7018FEC96E0B7
:102AC0000E94D328C801ABDFC801A9DF6AE475E022
:102AD000C80184DD19821A821B821C821D821E821B
:102AE0001F821886D801ED91FC9183818F9382819A
:102AF0008F93BF92AF92DF92CF920E948B47B60125
:102B0000C80156DD66E475E0C80168DD0FB6F894CB
:102B1000DEBF0FBECDBF28960FB6F894DEBF0FBE46
:102B2000CDBFDF91CF911F910F91FF90EF90DF907C
:102B3000CF90BF90AF9008958F929F92AF92BF9227
:102B4000CF92DF92EF92FF920F931F93CF93DF9379
:102B5000CDB7DEB72C970FB6F894DEBF0FBECDBF52
:102B60004C0162EF74E03ADFCE0101960E94CF2360
:102B7000BE016F5F7F4FCE0107960E94E92481E876
:102B8000C82E84E1D82EE12CF12C0FEC12E120E0CC
:102B900030E042EC52E160E070E0CE0107965C016B
:102BA000C4010E94782D8C01BC01C40102960E94D0
:102BB000D328B8018FEC96E00E94D328C4012FDF00
:102BC000C4012DDFBE016F5F7F4FC5010E94E92464
:102BD0009BE8C92E94E1D92EE12CF12C08ED12E1ED
:102BE00020E030E04EEE52E160E070E0C4010E946F
:102BF000782D2C960FB6F894DEBF0FBECDBFDF91B7
:102C0000CF911F910F91FF90EF90DF90CF90BF90E9
:102C1000AF909F908F9008952F923F924F925F9226
:102C20006F927F928F929F92AF92BF92CF92DF92DC
:102C3000EF92FF920F931F93CF93DF93CDB7DEB741
:102C400068970FB6F894DEBF0FBECDBF3C0162EFB0
:102C500074E0C4DECE0101960E94CF23D3010D9112
:102C60001C91C8010E9498079E878D87D8011C96E9
:102C7000ED91FC911D97B481BF878581888B26805B
:102C80009781998BA085AA8BB185BB8B82858C8B14
:102C900093859D8B50804180652D742DD8011E96A3
:102CA0008D919C911F970E94FB048E8B392EB80149
:102CB0006A5F7F4FCE0107960E94E92429E1822EA8
:102CC00023E1922EA12CB12C31E8C32E34E1D32E76
:102CD000E12CF12C0FEC12E120E030E042EC52E16B
:102CE00060E070E0E1E08D859E85892B09F4E0E0ED
:102CF000EF9399899F932F92A889AF93BF85BF9334
:102D0000ED89EF93FC89FF938B898F939A899F9329
:102D10003F92AE89AF934F925F922E01B7E04B0E78
:102D2000511C5F924F92C3010E94AF2B8C01BC01DA
:102D3000C30102960E94D328B8018FEC96E00E944E
:102D4000D328C3016CDEC3016ADEF3010081118167
:102D5000C8010E9498079E878D87D8011C96ED9127
:102D6000FC911D97B481BF878581888B9681998B53
:102D7000A781AA8BB085BB8B81858C8B92859D8B1F
:102D8000A385AE8B30802180632D722DF80186855E
:102D900097850E94FB048F8B988FB8016A5F7F4FE5
:102DA000C2010E94E92489EA882E83E1982EA12C91
:102DB000B12C9BE8C92E94E1D92EE12CF12C08ED21
:102DC00012E120E030E04EEE52E160E070E0E1E040
:102DD0008D859E85892B09F4E0E0EF939A899F9376
:102DE000A989AF93B889BF93EF85EF93FE89FF93CD
:102DF0008D898F939C899F93AB89AF93B88DBF9337
:102E0000EF89EF932F923F92FE013796FF93EF9356
:102E1000C3010E94AF2B0FB6F894DEBF0FBECDBF2B
:102E200068960FB6F894DEBF0FBECDBFDF91CF918D
:102E30001F910F91FF90EF90DF90CF90BF90AF90D8
:102E40009F908F907F906F905F904F903F902F90CA
:102E500008958F929F92BF92CF92DF92EF92FF924E
:102E60000F931F93CF93DF938C01DC011696ED91A6
:102E7000FC911797408150E060E070E02AE08FEC11
:102E800096E00E94B42E60E28FEC96E00E94982EAD
:102E9000F801408550E060E070E02AE08FEC96E0B9
:102EA0000E94B42E60E28FEC96E00E94982ED8012A
:102EB0001296ED91FC911397858196810E940629C7
:102EC000F8018181FCEFCF2EC80E82E395E00E94CD
:102ED000C528D8011696ED91FC9117971896DC90AD
:102EE0008081D81AB12CEC2CF12C6D2D70E0D8011A
:102EF00018968C91189790E01696ED91FC91179783
:102F00002081821B91092C91820F911D68177907EE
:102F10000CF054C1F8018281938140960E94F7051C
:102F2000EC01892B09F436C1D8011696ED91FC917C
:102F300017978081B81202C06EE301C060E28FEC87
:102F400096E00E94982EB394AD81BE81FD01019060
:102F50000020E9F73197EA1BFB0BEE15FF0510F493
:102F6000912C1CC0812C912C8C1468F4ED81FE8175
:102F7000E80DF91D60818FEC96E00E94982EBFEF5E
:102F80008B1A9B0AF1CFCE010E947A06811145C0AF
:102F900060E28FEC96E00E94982E3FC06D817E81AA
:102FA000FB0101900020E9F73197E61BF70B292D73
:102FB00030E0C7018E1B9F0B969587952817390720
:102FC00038F460E28FEC96E00E94982E9394E6CF5E
:102FD0008FEC96E00E94FC2E912CAD81BE81FD010C
:102FE00001900020E9F73197EA1BFB0BC7018E1B0C
:102FF0009F0B292D30E0AC014170552796958795A0
:10300000840F951F2817390708F0BDCF60E28FECB9
:1030100096E00E94982E9394E0CFEA81FB81E830FD
:10302000F10508F0ACC08827EE58FF4F8F4F0C9485
:1030300019476BE2A0C060E28FEC96E00E94982EE8
:1030400060E28FEC96E00E94982E94C0EC89FD8996
:1030500090818E89981302C060E201C06FE58FEC09
:1030600096E00E94982E8A819B818B7F6E890297C1
:1030700009F4B3C070E08FEC96E00E94D328EC898D
:10308000FD8990818E89981313C074C0672B09F451
:10309000AEC06FE68FEC96E00E94982EEC89FD8919
:1030A000208131818E899F892817390709F462C0F0
:1030B0006FE561C0EC89FD89208131818E899F890E
:1030C0002817390711F460E201C06FE58FEC96E034
:1030D0000E94982E8A819B818B7F6E897F890297BF
:1030E000A9F28FEC96E00E94D328D8CFCE010E949F
:1030F000F607288D398D8217930711F460E201C01D
:103100006FE58FEC96E00E94982E8A819B818B7FE1
:10311000688D798D029709F46CC08FEC96E00E945F
:10312000D328CE010E94F607288D398D8217930788
:1031300009F0BECF1FC0CE010E941508988D8913DB
:1031400002C060E201C06FE58FEC96E00E94982E0D
:103150008A819B818B7F688D029709F454C070E04F
:103160008FEC96E00E94D328CE010E941508988D1E
:1031700089139ECF60E28FEC96E00E94982ECE01DC
:103180000E947A06811112C060E28FEC96E00E94E4
:10319000982E0CC0C0E0F8018181C81738F460E2B5
:1031A0008FEC96E00E94982ECF5FF5CF60E974E037
:1031B0008FEC96E00E949F2ED39497CE81E295E00B
:1031C000DF91CF911F910F91FF90EF90DF90CF9003
:1031D000BF909F908F900C94C528662311F06FE6E6
:1031E00001C068E78FEC96E00E94982E48CF68E710
:1031F00051CF672B11F06FE601C068E78FEC96E0C6
:103200000E94982E8ECF662311F06FE601C068E70A
:103210008FEC96E00E94982EA7CFCF93DF931F925A
:10322000CDB7DEB76983DC01ED91FC910280F381BB
:10323000E02D41E050E0BE016F5F7F4F19950F9088
:10324000DF91CF910895DC01ED91FC91068CF78D13
:10325000E02D199591E089270895862F089581E042
:1032600086270895FC018485843011F00C9453273F
:1032700080E090E0089508958CBD9DBD08958F92E3
:103280009F92AF92BF92CF92DF92EF92FF920F93F5
:103290001F93CF936C015B017A01FC01C485C4309C
:1032A00041F481E090E0F6019383828380E090E036
:1032B00047C08A014130584010F000E018E080E536
:1032C00090E0DADF8C2F0E94252A4C0163E070E049
:1032D0008C2FEAD5873111F08C3121F480169106BC
:1032E00070F302C000E010E080E590E0C5DF9801D7
:1032F000A50160E070E08C2F0E94C22960E270E0BE
:103300008C2F0E944C2962E070E08C2FCDD584FD7B
:103310000EC063E070E08C2FC7D5811104C08C2FE4
:103320000E94C227BECF80E590E0A6DFECCF40E14F
:1033300062E070E08C2F95D5012B09F4B2CFC70164
:10334000CF911F910F91FF90EF90DF90CF90BF90A2
:10335000AF909F908F900895CF92DF92FF920F933E
:103360001F93CF93DF93FC012485243009F073C0B1
:103370006A01EB018C01F12C8F2D0E948B288111A9
:1033800003C0F801F48607C08B7F8831D1F3F39432
:10339000F4E0FF12F1CFF8018485843009F45BC0BA
:1033A00020910002309101022F5F3F4F11F420E085
:1033B00030EC3093010220930002409100025091C2
:1033C000010220E061E00E94D527F801F4848A819F
:1033D0008F3F51F48B818F3F91F48C818F3F79F433
:1033E0008D818F3F61F434C0811109C08B818111BF
:1033F00006C08C81811103C08D81882349F1C114DD
:10340000D10431F180E590E037DFBE016E5F7F4F80
:103410008F2D90E0982F882744E050E0845F9B4FE9
:103420000E940B27B6018F2D8ED564E070E08F2DA2
:103430000E944C29C801D2D5873181F061E070E04B
:1034400080E090E00E944123C801C8D58111F2CFED
:1034500084E0F801848780E090E002C081E090E0A1
:10346000DF91CF911F910F91FF90DF90CF90089542
:103470002F923F924F925F926F927F928F929F9284
:10348000AF92BF92CF92DF92EF92FF920F931F9372
:10349000CF93DF93CDB7DEB765970FB6F894DEBF55
:1034A0000FBECDBF7C016B013A01FB0120E080E043
:1034B00090E06AE03191332309F140ED430F4A3047
:1034C00080F4689FA001699F500D1124CA01C09724
:1034D000830F911D37FD9A958F3F910559F350F356
:1034E00013C03E3289F4233079F0D301A20FB11D0D
:1034F00012968C932F5F80E090E0DCCF233021F494
:10350000F301858381E020C0F7014281538164810A
:1035100075818091760790917707A0917807B09197
:103520007907481759076A077B0709F483C10E9486
:1035300079238701085F1F4F6F7077277C5FC80171
:1035400063D4813019F080E090E0D0C184E593E04D
:103550009A838983F70182819381A481B5818B83CA
:103560009C83AD83BE8345E350E0BE016F5F7F4F18
:10357000C801F8D4892B19F4C12CD12C57C10E9451
:103580007923F701778366837627672776277A83FF
:10359000698342E050E0BE016F5F7F4FC80177D37F
:1035A00081E090E09E878D8742E050E0BE01635F3E
:1035B0007F4FC8016CD380E091E09E878D8742E009
:1035C00050E0BE01635F7F4FC80161D31E861D8638
:1035D00042E050E0BE01635F7F4FC80158D342E034
:1035E00050E0BE01635F7F4FC80151D342E050E01D
:1035F000BE01635F7F4FC8014AD35601F501808148
:10360000882301F1F6015F018191811113C0450109
:103610008C189D081814190484F48F8641E050E03A
:10362000BE01615F7F4FC80132D3A401B601C8015A
:103630002ED303C08E3239F7EACF6501FFEFCF1AE0
:10364000DF0ADCCF1F8641E050E0BE01615F7F4FA3
:10365000C8011DD3C12CDD24D394DE86CD8642E083
:1036600050E0BE01635F7F4FC80111D3DE86CD8677
:1036700042E050E0BE01635F7F4FC80108D3C8013C
:1036800033D4892B09F478CF63E0A62EB12CF2E075
:103690006F0E711C0E9479231B012C01C8019ED260
:1036A000181619069CF00E947923DC01CB018219BF
:1036B0009309A409B50989389341A105B105C8F456
:1036C00062E370E080E090E0DCD7E8CFF701428170
:1036D000538164817581808D918DA28DB38D481742
:1036E00059076A077B0741F4848D958DC59721F4AE
:1036F00006C02FEF3FEF90C02EEF3FEF8DC0F701D8
:1037000081A192A10C970CF49BC04CE050E0BE014B
:103710006F5F7F4FC801FCD18B8190E0982F882785
:103720002C81822B9A8B898B298130E0322F2227A2
:103730004A81242BF701468157814217530709F02C
:103740007CC097FF7AC08F709270892B09F0CBC034
:10375000CF80D12CDC2CCC248885C82AC114D1047C
:1037600009F4BEC0812C912C8D8190E0982F882780
:103770002E81822B8816990608F465C0812C912C25
:1037800041E050E0BE016D5E7F4FC801C1D18B8921
:10379000982F907C09F083C0811177C08B898111AB
:1037A000EFCF42E050E0BE01615F7F4FC801B0D172
:1037B00042E050E0BE01635F7F4FC801A9D1C8015C
:1037C000C6D1C801C4D1C801C2D1C801C0D142E02C
:1037D00050E0BE016F5E7F4FC8019AD18F859889F6
:1037E0008115914009F05FC02D853E853227232742
:1037F00032272130310509F056C089899A8981150F
:10380000944009F06AC044E050E0B301C8012C8B39
:103810003D8B7ED12C893D896901F1E0AF1AB10859
:1038200029F02FEFC216D20609F434CFC801D7D23F
:10383000C6015CC08EEF9FEF59C02CEF3FEFECCF7D
:103840002DEF3FEFE9CF41E050E0BE01635F7F4FD6
:10385000C8015ED18D8581110FC08D858111F3CF97
:10386000C80175D1C80173D1C80171D1C8016FD128
:10387000FFEF8F1A9F0A78CF8D859FEF980F9D8756
:10388000882359F3C80163D1F7CF8B899FEF980F35
:103890009B8B882309F482CFC80159D1F6CFC80188
:1038A00056D11B8A7BCF412C512C89899A89982724
:1038B000892798274816590630F4C80148D18FEF58
:1038C000481A580AF2CFEFEF8E1A9E0A8C149D0404
:1038D00009F056CF26EF3FEF9FCF27EF3FEF9CCF6A
:1038E0002AEF3FEF99CF2BEF3FEF96CF65960FB6BC
:1038F000F894DEBF0FBECDBFDF91CF911F910F9126
:10390000FF90EF90DF90CF90BF90AF909F908F90FF
:103910007F906F905F904F903F902F900895CF923F
:10392000DF92EF92FF920F931F93CF93DF93CDB768
:10393000DEB7AF970FB6F894DEBF0FBECDBF7C01E8
:103940006A0104E513E01A8309831C861B8688EE4E
:1039500093E0A0E0B0E08D879E87AF87B88B84EEC0
:1039600092E09A878987188F0F8B198E1A8E1B8E7B
:103970001C8E84E089A31DA30CA31EA21FA218A65F
:1039800019A680916E0790916F07A0917007B09172
:1039900071078CA79DA7AEA7BFA78B839C83AD8320
:1039A000BE8318861F82AE014C5D5F4FCE0101962B
:1039B0005FDD81309105B1F4D701ED91FC91068472
:1039C000F785E02D1BA70AA78EA19FA1A8A5B9A5E1
:1039D0008CA79DA7AEA7BFA7A601BE01665D7F4FBE
:1039E000C7011995AF960FB6F894DEBF0FBECDBFD5
:1039F000DF91CF911F910F91FF90EF90DF90CF90CB
:103A00000895CF93DF931F92CDB7DEB76983DC01B2
:103A1000ED91FC910280F381E02D41E050E0BE0188
:103A20006F5F7F4F19950F90DF91CF910895FC0143
:103A3000818D928D0895FC0184899589089524E5EE
:103A400033E0FC0131832083FB0140895189628985
:103A50007389FC0142835383648375830895DC0179
:103A6000ED91FC91048CF58DE02D199480E0089582
:103A7000FC019485FB018485981303C081E0943098
:103A800009F480E0089521E0FC018485843009F484
:103A900020E0822F08950895CF93DF931F92CDB732
:103AA000DEB7FC01218D328D232B49F0BE016F5F03
:103AB0007F4F808D0E943427898190E002C08FEF74
:103AC0009FEF0F90DF91CF9108950F931F93CF93A6
:103AD000DF931F92CDB7DEB78C01DC01ED91FC9135
:103AE0000084F185E02D1995892B51F0BE016F5F9F
:103AF0007F4FF80184850E943427898190E002C0BD
:103B00008FEF9FEF0F90DF91CF911F910F9108954D
:103B1000CF93DF93FC01218D328D2115310519F4EE
:103B20008FEF9FEF11C0EC014217530708F0A90176
:103B3000888D0E9473271816190694F7298D3A8DDF
:103B4000281B390B3A8F298FDF91CF9108950F935E
:103B50001F93CF93DF931F92CDB7DEB7FC01218D6A
:103B6000328D232B61F08C0141E050E0BE016F5F8C
:103B70007F4F808D0E947327181619061CF08FEF57
:103B80009FEF08C0F801818D928D0197928F818FF0
:103B9000898190E00F90DF91CF911F910F9108954F
:103BA000FC0184850C947327CF93DF931F92CDB7CC
:103BB000DEB741E050E0BE016F5F7F4FFC018485BE
:103BC0000E947327181619061CF4898190E002C020
:103BD0008FEF9FEF0F90DF91CF9108950F931F9379
:103BE000CF93DF93CDB7DEB728970FB6F894DEBF3B
:103BF0000FBECDBF8C01F801818D928D892B49F0CC
:103C0000D801ED91FC910284F385E02DC80119954E
:103C1000F2CF808D0E945327181619065CF548E0F4
:103C200050E0BE016F5F7F4FD80158968C910E9483
:103C300073279C0118161906DCF489819A81AB81DF
:103C4000BC81F801808B918BA28BB38B8D8190E02E
:103C5000982F88272E81820F911D958B848B2F8121
:103C600030E0322F22278885280F311D328F218F97
:103C7000C90102C080E090E028960FB6F894DEBF3C
:103C80000FBECDBFDF91CF911F910F910895AF92DD
:103C9000BF92CF92DF92FF920F931F93CF93DF9348
:103CA0008C015B01EA01FC01C688D788F08C80E5B5
:103CB00090E0E2DA8F2D0E94252A8C179D0720F4D0
:103CC0008F2D0E94252AEC019E01A501B6018F2DA2
:103CD0000E94C229D0DAF801868997898C0F9D1F2E
:103CE000978B868BCE01DF91CF911F910F91FF9023
:103CF000DF90CF90BF90AF900895CF92DF92EF9278
:103D0000FF920F931F93CF93DF93CDB7DEB7AF979B
:103D10000FB6F894DEBF0FBECDBF7C016A0104E58B
:103D200013E01A8309831C861B8688EE93E0A0E0CB
:103D3000B0E08D879E87AF87B88B84EE92E09A873C
:103D40008987188F0F8B198E1A8E1B8E1C8E84E01C
:103D500089A31DA30CA31EA21FA218A619A68091B9
:103D60006E0790916F07A0917007B09171078CA7B3
:103D70009DA7AEA7BFA78B839C83AD83BE83188608
:103D80001F82AE014C5D5F4FCE01019671DB813029
:103D90009105B1F4D701ED91FC910488F589E02DEE
:103DA0001BA70AA78EA19FA1A8A5B9A58CA79DA70F
:103DB000AEA7BFA7A601BE01665D7F4FC7011995DB
:103DC000AF960FB6F894DEBF0FBECDBFDF91CF9197
:103DD0001F910F91FF90EF90DF90CF900895CF93B8
:103DE000DF93EC01888D843061F00E94C227E88D5A
:103DF000F0E0EE0FFF1FEA5BF94F1182108284E0C2
:103E0000888FDF91CF910895EF92FF921F93CF9308
:103E1000DF93FC01208D243011F080E01CC07B0179
:103E2000EC0110E0812F0E948B28811102C0188FB5
:103E300005C08831E1F31F5F1430A1F7888D84300D
:103E400061F3FD86EC861A8E198E20E0A70162E0F0
:103E50000E94D52781E0DF91CF911F91FF90EF90D5
:103E600008950F931F93CF93DF931F92CDB7DEB7C3
:103E7000282F30E02C5F3F4F322F22278901060F79
:103E8000171F49837FD780EF95D7812F93D7802F36
:103E900091D74981842F8ED773D781E00F90DF911E
:103EA000CF911F910F9108950F931F93CF93DF939D
:103EB0001F92CDB7DEB790E00496982F88278C012B
:103EC000060F171F5FD78FE075D7812F73D7802F0D
:103ED00071D780E06FD7898353D789810F90DF91A5
:103EE000CF911F910F910895CF93FC01C08D80E574
:103EF00090E0C2D960E270E08C2F0E944C2962E011
:103F000070E08C2FD1DF84FD14C062E070E08C2F54
:103F1000CBDF83FF09C048E162E070E08C2FA1DFB6
:103F2000AAD980E090E00DC0A6D980E590E0A4D9A0
:103F3000E6CF40E162E070E08C2F93DF9CD981E016
:103F400090E0CF910895CF93DF93C82FD62F472FBE
:103F500060E170E086DF4D2F61E170E08C2FDF9132
:103F6000CF917FCFFF920F931F93CF93DF93FB01EE
:103F7000DC0157961C921E9256975896FC908281AF
:103F8000811109C08381811106C08481811103C020
:103F900085818823D9F041155105C1F08A01EF01CF
:103FA00080E590E069D9BE016E5F7F4F2F2D30E034
:103FB000922F882744E050E0845F9B4F2CD7B801B4
:103FC0008F2DC1DF58D981E090E002C080E090E001
:103FD000DF91CF911F910F91FF900895FC0184858F
:103FE000843011F00C948B2880E00895CF93DF93F8
:103FF000FC0124852430C9F0EC01F0DF843181F02C
:10400000882371F0883161F08C3161F4E881F981A5
:104010000084F185E02DCE01199521E0892B19F45A
:1040200020E001C021E0822F01C080E0DF91CF912C
:104030000895CF92DF92EF92FF921F93CF93DF9379
:10404000FC011485143071F1EC0180E590E014D985
:1040500068E070E0812F0E944C290DD94AD36B0192
:104060007C01CE01BBDF882399F061E070E080E045
:1040700090E007D33ED3DC01CB018C199D09AE093A
:10408000BF09883E9340A105B10558F38C857AD7C6
:10409000EC85F0E0EE0FFF1FEA5BF94F1182108212
:1040A00084E08C87DF91CF911F91FF90EF90DF909C
:1040B000CF900895FC01538D448D252F30E0842F3F
:1040C00090E0821B930B541710F0CF960895019740
:1040D0000895FC01918D828D981761F0828DDF012A
:1040E000A80FB11D5D968C91928D9F5F9F73928FEB
:1040F00090E008958FEF9FEF0895FC01918D828DE0
:10410000981731F0828DE80FF11D858D90E00895AC
:104110008FEF9FEF0895FC01918D228D892F90E004
:10412000805C9F4F821B91098F73992708958FECB4
:1041300096E0F1DF21E0892B09F420E0822F089539
:10414000FC01848DDF01A80FB11DA35ABF4F2C9134
:10415000848D90E001968F739927848FA689B78903
:104160002C93A089B1898C9180648C93938D848DDC
:10417000981306C00288F389E02D80818F7D8083AB
:104180000895EF92FF920F931F93CF93DF93EC016B
:1041900081E0888F9B8D8C8D981305C0E889F98903
:1041A000808185FD23C0F62E0B8D10E00F5F1F4F21
:1041B0000F731127E02E8C8DE8120BC00FB607FC91
:1041C000FACFE889F989808185FFF5CFCE01B8DF84
:1041D000F2CF8B8DFE01E80FF11DE35AFF4FF08205
:1041E0000B8FEA89FB898081806207C0EE89FF8995
:1041F0006083E889F98980818064808381E090E030
:10420000DF91CF911F910F91FF90EF900895CF9381
:10421000DF93EC01888D8823C1F0EA89FB898081D6
:1042200085FD05C0A889B9898C9186FD0EC00FB6A1
:1042300007FCF5CF808185FFF2CFA889B9898C91E1
:1042400085FFEDCFCE017CDFE8CFDF91CF910895E0
:1042500080E090E0892B19F06ADF811125C080E0B1
:1042600090E0892B41F080E090E0892B21F00E94C2
:10427000000081111CC080E090E0892B41F080E0BB
:1042800090E0892B21F00E940000811113C080E092
:1042900090E0892BA1F080E090E0892B81F00E94D2
:1042A000000081110AC008950E940000D8CF0E942A
:1042B0000000E1CF0E940000EACF0C9400000895B6
:1042C00090E0FC013197E231F10508F04EC08827FB
:1042D000E658FF4F8F4F0C941947809180008F77DD
:1042E00003C0809180008F7D80938000089580912D
:1042F0008000877FF9CF84B58F7702C084B58F7D2A
:1043000084BD08958091B0008F7703C08091B00084
:104310008F7D8093B0000895809190008F7707C0C3
:10432000809190008F7D03C080919000877F809363
:10433000900008958091A0008F7707C08091A00021
:104340008F7D03C08091A000877F8093A000089597
:10435000809120018F7707C0809120018F7D03C05D
:1043600080912001877F8093200108953FB7F894C2
:104370008091B9069091BA06A091BB06B091BC0697
:1043800026B5A89B05C02F3F19F00196A11DB11DB0
:104390003FBFBA2FA92F982F8827820F911DA11DEB
:1043A000B11DBC01CD0142E0660F771F881F991F28
:1043B0004A95D1F70895CF92DF92EF92FF92CF9373
:1043C000DF93EC01072E000C880B990B0E940A4327
:1043D0006B017C0120E030E040E45FE30E94694330
:1043E00020E030E048E452E40E94F5440E945D453C
:1043F000C617D707D4F020E030E040EA5FE3C701FA
:10440000B6010E94694320E030E048E452E40E9493
:10441000F54420E030E040E85FE30E9491440E94D0
:104420005D4521E06C177D070CF420E0822F90E0C1
:10443000DF91CF91FF90EF90DF90CF9008958F9212
:104440009F92AF92BF92CF92DF92EF92FF920F9323
:104450001F93CF93DF937C018B016C0182E0C80E28
:10446000D11C4701E5E08E0E911CC0E0D0E0F601C2
:1044700041916F0150E060E070E02AE0C8010E94C5
:10448000B42E5C016EE2C8010E94982E8A0D9B1D1D
:10449000C80FD91FC814D90451F7F701458150E05E
:1044A00060E070E02AE0C8010E94B42E8C0F9D1FCE
:1044B000DF91CF911F910F91FF90EF90DF90CF9000
:1044C000BF90AF909F908F9008950E94734724E50E
:1044D00033E0FC0131832083FB0140815181628103
:1044E0007381FC01428353836483758308951F9213
:1044F0000F920FB60F9211240BB60F922F933F938A
:104500004F935F936F937F938F939F93AF93BF93DB
:10451000EF93FF938FEC96E013DEFF91EF91BF9145
:10452000AF919F918F917F916F915F914F913F914B
:104530002F910F900BBE0F900FBE0F901F901895EC
:104540001F920F920FB60F9211240BB60F922F935A
:104550008F939F93EF93FF93E091DF06F091E00636
:104560008081E091E506F091E60682FD12C090811F
:104570008091E8068F5F8F732091E906821751F0D2
:10458000E091E806F0E0E153F94F958F8093E8065B
:1045900001C08081FF91EF919F918F912F910F909A
:1045A0000BBE0F900FBE0F901F9018951F93CF93C7
:1045B000DF93282F30E0F901EE55FA4F8491F9018D
:1045C000E451FE4FD491F901EA55FE4FC491CC233A
:1045D000C1F0162F811174DEEC2FF0E0EE0FFF1FFB
:1045E000E857FA4FA591B4918FB7F894111105C00F
:1045F0009C91ED2FE095E92302C0EC91ED2BEC931B
:104600008FBFDF91CF911F910895CF93DF9390E0FB
:10461000FC01E451FE4F2491FC01EA55FE4F8491C8
:10462000882361F190E0880F991FFC01E259FA4F4D
:10463000C591D491FC01E857FA4FA591B49161114D
:1046400009C09FB7F8948881209582238883EC91D4
:104650002E230BC0623061F49FB7F8943881822F0B
:10466000809583238883EC912E2B2C939FBF06C0CB
:104670008FB7F894E8812E2B28838FBFDF91CF91DD
:1046800008958F929F92AF92BF92CF92DF92EF9256
:10469000FF926B017C016ADE4B015C01C114D10405
:1046A000E104F104E9F062DEDC01CB01881999092B
:1046B000AA09BB09883E9340A105B10578F321E022
:1046C000C21AD108E108F10888EE880E83E0981E2E
:1046D000A11CB11CC114D104E104F10421F7DECF07
:1046E000FF90EF90DF90CF90BF90AF909F908F9012
:1046F00008952FB7F8946091B5067091B606809131
:10470000B7069091B8062FBF08951F920F920FB66B
:104710000F9211242F933F938F939F93AF93BF9347
:104720008091B5069091B606A091B706B091B806F3
:104730003091B40623E0230F2D3720F40196A11DFC
:10474000B11D05C026E8230F0296A11DB11D2093BF
:10475000B4068093B5069093B606A093B706B093BF
:10476000B8068091B9069091BA06A091BB06B091A7
:10477000BC060196A11DB11D8093B9069093BA069F
:10478000A093BB06B093BC06BF91AF919F918F9150
:104790003F912F910F900FBE0F901F901895CF92C1
:1047A000DF92EF92FF920F931F93CF93DF93EC0171
:1047B00081E080934E0688E68093B3061092280528
:1047C0001092270560E08AE797E00E94330B809102
:1047D0002705813208F045C0909126059111FCCF44
:1047E00092E09093260591E0909325059FEF90939A
:1047F00092061092910680939006AFE4B6E02FE601
:1048000036E0F9019E2F921B981718F49D91919311
:10481000F9CF10928F0680918F06806D80938F065E
:1048200080912405813061F41092240580918F06D7
:104830008093BB008091BC0083FDF8CF85EC01C064
:1048400085EE8093BC00809126058230E1F3809153
:1048500092068F3F31F080919206803211F0809164
:104860009206109228051092270510924E0680910C
:1048700026058111FCCF81E08093260580932505D4
:104880009FEF909392061092910696E09093900677
:1048900080938F0680918F06806D80938F06809124
:1048A0002405813061F41092240580918F06809355
:1048B000BB008091BC0083FDF8CF85EC01C085EE84
:1048C0008093BC00809126058130E1F380919106B0
:1048D000873018F48091910601C087E0AFE6B6E01A
:1048E00023E936E0F9019E2F921B981718F49D9149
:1048F0009193F9CF10922A05809329058AE797E0D2
:104900000E94E80A8F77982F92959F701AEF082FD0
:10491000919F000D11248AE797E00E94E80A9C010C
:10492000332794E0359527959A95E1F7F82E129F55
:10493000F00C11248AE797E00E94E80A9C013327D3
:1049400044E0359527954A95E1F7E82E129FE00C53
:1049500011248AE797E00E94E80A8AE797E00E941C
:10496000E80A9C01332754E0359527955A95E1F7DD
:10497000D82E129FD00C11248AE797E00E94E80AF3
:104980009C01332764E0359527956A95E1F7C82E99
:10499000129FC00C11248AE797E00E94E80A9C014C
:1049A000332774E0359527957A95E1F7129F800DAE
:1049B00011248883C982DA82EB82FC820D83CE01C6
:1049C000DF91CF911F910F91FF90EF90DF90CF90EB
:1049D0000895FC01DB018C91808311968C911197D5
:1049E000818312968C911297828313968C911397E0
:1049F000838314968C911497848315968C91858368
:104A000008958F929F92AF92BF92CF92DF92EF92D2
:104A1000FF920F931F93CF93DC011796CC911797BA
:104A2000662311F08C2F01C080E018962C91189706
:104A300030E0220F331F2C5A3A4F40E050E0BA01C9
:104A4000F90105911491F80190819C23981315C0E8
:104A50006A017B019FEFC91AD90AE90AF90A1D9672
:104A60008D909D90AD90BC905097481559056A0562
:104A70007B0538F4B701A601E3CF342F252FCB01F6
:104A800004C030E020E080E090E0632F722FCF91EF
:104A90001F910F91FF90EF90DF90CF90BF90AF905C
:104AA0009F908F9008958F929F92AF92BF92CF92D6
:104AB000DF92EF92FF920F931F93CF93DF93DA0170
:104AC000CD91DC91FB0184859585C817D9070CF041
:104AD00049C0CE01880F991F0284F385E02DE80FAD
:104AE000F91F80809180C170DD27F1E0CF272097EA
:104AF00019F484E690E002C08CE99FEF59016A0145
:104B00007801E80EF91EB701C40155DC892B89F440
:104B1000E00EF11EB701C4014EDC892B69F4B70128
:104B2000600F711FC40147DC892BF9F023E030E0EE
:104B300005C021E030E002C022E030E0D5018D91D7
:104B40009C91119701968217930744F0F501118209
:104B50001082D6018D919C91119701968D939C9313
:104B6000CE0105C081E090E002C08FEF9FEFDF91A2
:104B7000CF911F910F91FF90EF90DF90CF90BF905A
:104B8000AF909F908F9008951F920F920FB60F9243
:104B900011240BB60F922F933F934F935F936F9314
:104BA0007F938F939F93AF93BF93CF93DF93EF93B5
:104BB000FF9320912C0530E0F901EE55FA4F8491D6
:104BC000F901E451FE4FD491F901EA55FE4FC49129
:104BD000CC2399F0811174DBEC2FF0E0EE0FFF1F76
:104BE000EC5AFA4FA591B491EC91ED2331E020E01D
:104BF00009F430E0832F922F02C080E090E02091F2
:104C00003005309131052F5F3F4F309331052093B0
:104C1000300520912F05253618F026E020932B052E
:104C200020912B052430D9F128F4223069F023306B
:104C3000D9F060C0253009F453C0263009F05AC0BD
:104C400021E02093FC0553C0009709F053C0209148
:104C50003005309131052436310508F443C01092F7
:104C6000FC0510922F051DC08130910509F042C04E
:104C7000E0912F0521E02E0F20932F05F0E02091E9
:104C8000300530913105EE0FFF1FE55DFA4F30879B
:104C90002783109231051092300524E029C0009737
:104CA000B9F4E0912F0521E02E0F20932F05F0E0BD
:104CB0002091300530913105EE0FFF1FE55DFA4F71
:104CC00030872783109231051092300523E010C001
:104CD00020913005309131052536310558F007C057
:104CE000009741F4109231051092300503C025E081
:104CF00020932B0520912E052223B1F0892B51F40E
:104D000080912D05882321F080912D0561E009C057
:104D10002F9A0AC080912D05882329F080912D05B6
:104D200060E044DC01C02F98FF91EF91DF91CF91BB
:104D3000BF91AF919F918F917F916F915F914F91B3
:104D40003F912F910F900BBE0F900FBE0F901F90B1
:104D5000189508951F93CF93DF93182F66E270E0A4
:104D6000A3D8C82FD0E067E270E0812F9DD8DC2F58
:104D7000CC279E01282BC901DF91CF911F91089567
:104D80002C9A08952C9808951F93CF93DF93182F92
:104D900060E270E089D8C82FD0E061E270E0812F36
:104DA00083D8DC2FCC279E01282BC901DF91CF911E
:104DB0001F9108958EBD00000DB407FEFDCF8EB586
:104DC0000895CF92DF92EF92FF920F931F93CF93AC
:104DD000DF93EC017A018B016C01C40ED51ECC155A
:104DE000DD0579F0CFDF8FE0E5DF8D2FE3DF8C2F5E
:104DF000E1DF219680E0DEDFF80181938F01C0DFE3
:104E0000EECFC701DF91CF911F910F91FF90EF90EF
:104E1000DF90CF900895CF92DF92EF92FF920F93A1
:104E20001F93CF93DF93EC017A018B016C01C40EC9
:104E3000D51ECC15DD0571F0A5DF80EFBBDF8D2F12
:104E4000B9DF8C2FB7DF2196F80181918F01B2DF96
:104E500097DFEFCFC701DF91CF911F910F91FF90A7
:104E6000EF90DF90CF9008951F93CF93DF931F9221
:104E70001F92CDB7DEB7182F80E590E069837A8363
:104E80000E943C1921E041E050E069817A81812F44
:104E900013D20E943B1981E090E00F900F90DF91B8
:104EA000CF911F910895FF920F931F93CF93DF939C
:104EB000F82E80E590E00E943C19C0E0D0E08F2DF4
:104EC00049DF8C01892B19F08F2D44DFEC01C017CD
:104ED000D107A9F70E943B19CE01DF91CF911F9115
:104EE0000F91FF900895AF92BF92CF92DF92EF9211
:104EF000FF921F93CF93DF93182F5B017A0180E518
:104F000090E00E943C19C0E0D0E0812F23DF6C01CB
:104F1000892B19F0812F1EDFEC01CC15DD05A9F7D7
:104F2000209799F463E070E0812F0E94541F843130
:104F3000E1F08823D1F0C1E0D0E08C3111F4C0E081
:104F4000D0E0D195C195D10910C0EC16FD060CF446
:104F5000E7011C161D064CF420E0AE01B501812FBF
:104F6000ABD160E470E0812F97D10E943B19CE0154
:104F7000DF91CF911F91FF90EF90DF90CF90BF9086
:104F8000AF900895CF93C82F80E590E00E943C1920
:104F900060E170E08C2F80D14FEF62E070E08C2FE9
:104FA0000E94311FCF910C943B19FF920F931F93D6
:104FB000CF93DF931F921F92CDB7DEB7F82E8A01F1
:104FC0002A836983DFDF80E590E00E943C192A8113
:104FD0006981462F422B60E070E08F2D0E94311FC7
:104FE0000115110551F40091BD061091BE060F5F29
:104FF0001F4F1093BE060093BD06412F64E070E082
:105000008F2D0E94311F402F65E070E08F2D0E9490
:10501000311F61E070E08F2D3FD10E943B1981E08C
:105020000F900F90DF91CF911F910F91FF900895F6
:10503000BF92CF92DF92EF92FF920F931F93CF9385
:10504000DF9300D000D0CDB7DEB7FC01208D243037
:1050500009F050C06A017B018C01B12C63E070E063
:105060008B2D0E94541F811103C0F801B08E06C021
:105070008831D9F3B394F4E0BF12F0CFF801808DFA
:105080008430C1F196E0E8E0F3E0DE011196019092
:105090000D929A95E1F7F70193819F779C83948114
:1050A0009D8395819E83B7016E5F7F4F90E0982F1F
:1050B000882744E050E0845F9B4FADDEB601F801E5
:1050C000808D0E94A31FF801808D90E0982F882783
:1050D00046E050E0BE016F5F7F4F8A5F9B4F9BDED3
:1050E000F801128E118E20E8A60162E0808D5DDF4E
:1050F00081E001C080E026960FB6F894DEBF0FBEB7
:10510000CDBFDF91CF911F910F91FF90EF90DF9076
:10511000CF90BF9008951F93CF93DF931F92CDB789
:10512000DEB7182F80E590E00E943C1963E070E044
:10513000812F0E94541F89830E943B1989810F90FF
:10514000DF91CF911F9108950F931F93CF93DF931A
:105150008C01C0E0D0E0F801EC0FFD1F64916623E4
:1051600071F0E091CF06F091D0060190F081E02D32
:105170008FEC96E01995892B11F02196ECCFCE019A
:10518000DF91CF911F910F910895CF93DF93DCDFD3
:10519000EC0160E974E08FEC96E0D1D58C0F9D1F97
:1051A000DF91CF910895CF92DF92EF92FF920F930C
:1051B0001F93CF93DF936B01770FEE08FF08F7FE85
:1051C00019C0EC016DE2B4D58C0144275527BA0112
:1051D0004C195D096E097F092AE0CE01C5D5800F03
:1051E000911FDF91CF911F910F91FF90EF90DF9072
:1051F000CF9008952AE0B701A601DF91CF911F91CA
:105200000F91FF90EF90DF90CF90AEC5CF93DF93DB
:10521000BC018FEC96E093D5EC0160E974E08FEC73
:1052200096E08DD58C0F9D1FDF91CF910895CF9281
:10523000DF92EF92FF92CF93DF936C01990FEE080C
:10524000FF08F7FE14C06DE28FEC96E071D5EC011B
:1052500044275527BA014C195D096E097F092AE0D8
:105260008FEC96E081D57C01EC0EFD1E07C02AE094
:10527000B701A6018FEC96E077D57C0160E974E078
:105280008FEC96E05CD58E0D9F1DDF91CF91FF9046
:10529000EF90DF90CF900895CF93C82F462F61E015
:1052A00070E00E94311F61E070E08C2F0E94541F5B
:1052B0008111F9CFCF9108958F929F92AF92BF92B3
:1052C000CF92DF92EF92FF920F931F93CF93DF93D2
:1052D000B82E4B018A01A22E68E270E00E94541F92
:1052E000C82FD0E069E270E08B2D0E94541FDC2FA4
:1052F000CC27C82B9E013770CB2CD12CC601880F30
:10530000991FAC014953594F6A01FA01808191817B
:10531000820F931FA801420F531F4130584090F055
:1053200060E078E07B01E21AF30AA701B40149DDED
:10533000A8014E195F09B4016E0D7F1DF601808131
:10534000918102C0A801B4013CDDA1100EC0C00FC4
:10535000D11F4D2F68E270E08B2D0E94311F4C2F22
:1053600069E270E08B2D0E94311FDF91CF911F9178
:105370000F91FF90EF90DF90CF90BF90AF909F90F4
:105380008F9008959F92AF92BF92CF92DF92EF924B
:10539000FF920F931F93CF93DF93982E8B015A01A7
:1053A000690164E270E00E94541FE82EF12C65E26E
:1053B00070E0892D0E94541FFE2CEE24E82AE7019C
:1053C000C00FD11F9E013770E92CF12CC701880F47
:1053D000991FAC014154594F7A01FA0180819181A2
:1053E000820F931FA9014C0D5D1D4130584088F07C
:1053F00000E018E0021B130BA801B5010CDDA601AB
:10540000401B510BB501600F711FF7018081918125
:1054100002C0A601B501FFDCCC0DDD1D4D2F64E2FD
:1054200070E0892D0E94311F4C2F65E270E0892DBC
:10543000DF91CF911F910F91FF90EF90DF90CF9070
:10544000BF90AF909F900C94311FFF920F931F93CA
:10545000CF93DF93F82EC0E0D0E08F2D95DC8C0148
:10546000892B19F08F2D90DCEC01C017D107A9F71B
:10547000CE01DF91CF911F910F91FF900895CF92B0
:10548000DF92EF92FF920F931F93CF93DF93EC0184
:105490006B01F42E0E94CD14882391F185E097E0F2
:1054A00074DEB601CE01E11003C00E94EE1406C006
:1054B0000296A2D4B6018FEC96E09ED46BED76E016
:1054C000CE010E94EE14FF2019F0CE010E949D141F
:1054D00067EC76E0CE010E94EE1466EA76E0CE013B
:1054E0000E94EE146CE876E0CE010E94EE14CE012C
:1054F000F8011995CE010E940F1589E896E002C0C7
:1055000087E796E0DF91CF911F910F91FF90EF9089
:10551000DF90CF903ACE8F929F92AF92BF92CF9270
:10552000DF92EF92FF920F931F93CF93DF93CDB74C
:10553000DEB7C054D1400FB6F894DEBF0FBECDBF6A
:105540008C01D7D8F801C184D284E384F4849B0110
:10555000AC012C193D094E095F0969017A0130ED52
:10556000C31637E0D306E104F10410F48189AAC020
:10557000F80161877287838794871482138212826D
:105580001182108261E0858111D86AEF70E080E0BD
:1055900090E077D861E0F801858137D860E0F801C4
:1055A000858104D864E170E080E090E06AD8F894E6
:1055B00061E0F80185810E94D6228BE990E0019795
:1055C000F1F762E0F801858120D883E290E001974D
:1055D000F1F760E0C80115DA672B682B692B21F41D
:1055E000F801118A78943FC061E0C8010ADA672B9C
:1055F000682B692BA9F39E012F5F3F4F79015E0154
:105600003FEBA31A3EEFB30A670160E0C801F9D986
:10561000F601608371838283938361E0C801F1D9CD
:10562000F6016483758386839783F8E0CF0ED11CDF
:10563000CA14DB0451F7789420E030E0F701408190
:1056400051816281738184809580A680B7804115E5
:1056500051056105710529F081149104A104B1047B
:1056600021F4F801118A80E02DC0F90183E0F5955D
:10567000E7958A95E1F7E00FF11F8081880F4815C3
:1056800059056A057B0508F4816080832F5F3F4FD1
:10569000F8E0EF0EF11C2832310581F6F801248183
:1056A00030E04081818190E0840F911D4281840F20
:1056B000911D4381840F911D99272817390789F679
:1056C00081E0818BC05CDE4F0FB6F894DEBF0FBE69
:1056D000CDBFDF91CF911F910F91FF90EF90DF90A1
:1056E000CF90BF90AF909F908F9008950F931F938E
:1056F00000D86093D7067093D8068093D90690930C
:10570000DA06E091CF06F091D0060484F585E02D0D
:105710008FEC96E0199597FF1FC00E9479230091A6
:10572000D7061091D8062091D9063091DA06DC010F
:10573000CB01801B910BA20BB30B0091D3061091F0
:10574000D4062091D5063091D60680179107A2077E
:10575000B307B8F28FEF9FEF1F910F9108952F922B
:105760003F924F925F926F927F928F929F92AF92F1
:10577000BF92CF92DF92EF92FF920F931F93CF933E
:10578000DF93CDB7DEB72D970FB6F894DEBF0FBE0F
:10579000CDBF3C018DA18C879EA19D875F834E83E9
:1057A000DB86CA86998688866EE576E0C301FA01B3
:1057B00019954C01EBA1FCA1808190E08053984F9A
:1057C0009F938F938BEE94E09F938F93CE010196DE
:1057D0006C019F938F930E948B47B601C301F80120
:1057E0001995880E991E6AE576E0C301EE81FF8166
:1057F0001995880E991E0F900F900F900F900F9093
:105800000F90A12CB12C8BEE282E84E0382EA11401
:10581000B10451F4EBA1FCA18181482E512CFAE096
:105820004F1651043CF10FC181E0A816B10451F4A8
:10583000EBA1FCA18281482E512CFAE04F165104B5
:10584000CCF016C182E0A816B10421F4EBA1FCA1B2
:1058500043800BC0F3E0AF16B10421F4EBA1FCA12F
:10586000448003C0EBA1FCA14580512CFAE04F1607
:1058700051043CF56CE576E0C301EE81FF8119959A
:105880005F924F923F922F92DF92CF920E948B476E
:10589000B601C301F8011995880E991E0F900F905B
:1058A0000F900F900F900F90A114B10419F46AE5B6
:1058B00076E021C0F1E0AF16B104B9F468E576E016
:1058C0001AC05F924F923F922F92DF92CF920E9426
:1058D0008B47B601C301F8011995880E991E0F90E8
:1058E0000F900F900F900F900F90F4E0AF16B1044F
:1058F00041F066E576E0C301EE81FF811995880EDF
:10590000991EFFEFAF1ABF0A85E0A816B10409F08F
:105910007ECF64E476E0C301EE81FF811995880EA5
:10592000991EFD85FF938C858F938BEE94E09F935A
:105930008F93DF92CF920E948B47B601C301F8018B
:1059400019956401C80ED91E6FE276E0C301EE819D
:10595000FF811995C80ED91E6FA178A5C301F80162
:105960001995C80ED91E6EE176E0C301EE81FF8164
:105970001995C80ED91E49A55AA56BA57CA5C301CA
:10598000E885F9851995C80ED91E6BE076E0C3014C
:10599000EE81FF811995C80ED91E4DA55EA56FA594
:1059A00078A9C301E885F9851995C80ED91E6CEF51
:1059B00075E0C301EE81FF811995C80ED91E0F90C5
:1059C0000F900F900F900F900F9089A9882319F0D6
:1059D00068E175E002C06DE175E0C301F801199559
:1059E000C80ED91E6DEE75E0C301EE81FF811995D9
:1059F000C80ED91E6CEC71E0C301EA85FB851995D0
:105A0000C80ED91E68EE75E0C301EE81FF811995BD
:105A10008C0D9D1D2D960FB6F894DEBF0FBECDBF29
:105A2000DF91CF911F910F91FF90EF90DF90CF907A
:105A3000BF90AF909F908F907F906F905F904F90AE
:105A40003F902F9008951F928F933F922F92DF9255
:105A5000CF920E948B47B601C301F8011995880EB9
:105A6000991E0F900F900F900F900F900F901FCFD7
:105A70001F928F933F922F92DF92CF920E948B477B
:105A8000B601C301F8011995880E991E0F900F9069
:105A90000F900F900F900F9011CFCF92DF92EF9257
:105AA000FF920F931F93CF93DF936C017A018B01C9
:105AB000C0E0D0E0CE15DF0589F0D8016D918D01F1
:105AC000D601ED91FC910190F081E02DC601199570
:105AD000892B11F47E0102C02196ECCFC701DF9122
