:1000000001C4000030C400002EC400002CC4000055
:100010002AC4000028C4000026C4000024C4000034
:1000200022C4000020C400001EC400001CC4000044
:100030001AC400000C94AF2616C4000014C40000BB
:1000400012C4000010C400000EC400000CC4000064
:100050000AC4000008C4000006C400000C94702408
:1000600002C400000C948B230C946223FCC3000098
:10007000FAC30000F8C30000F6C30000F4C3000098
:10008000F2C30000F0C30000EEC30000ECC30000A8
:10009000EAC30000E8C30000E6C300000C94F510BA
:1000A000E2C30000E0C30000DEC30000DCC30000C8
:1000B000DAC30000D8C30000D6C30000D4C30000D8
:1000C000D2C30000D0C30000CEC30000CCC30000E8
:1000D000CAC30000C8C30000C6C30000C4C30000F8
:1000E000C2C30000A519061911194519061961198D
:1000F000861904196622692258225C226222A022F3
:100100006D22712277227B227F22852289228D22F5
:10011000A022932297229B2207634236B79BD8A73F
:100120001A39685618AEBAAB558C1D3CB7CC57631C
:10013000BD6DEDFD753EF6177231BF000000803FCA
:1001400008000000BE922449123EABAAAA2ABECDE6
:10015000CCCC4C3E00000080BEABAAAAAA3E000058
:100160000000BF000000803F000000000008417850
:10017000D3BB4387D1133D190E3CC3BD4282AD2B87
:100180003E68EC8276BED98FE1A93E4C80EFFFBE7F
:1001900001C4FF7F3F00000000001F1C1F1E1F1E28
:1001A0001F1F1E1F1E1F0505050507050808080857
:1001B000020202020A0A08080404040401010101FF
:1001C00001010101030303030303030304070707FA
:1001D0000C0C0C0C0C0C0C0C02020202060606069F
:1001E000060606060B0B0B0B0B0B0B0B010210206C
:1001F000200808102040102040800201020108045D
:1002000002010102040810204080804020100804F0
:100210000201800402018040201008040201080449
:10022000020101020408102040800102040810208D
:100230004080646F6E652E00496E697469616C69F7
:1002400073696E672044485432322073656E736F51
:10025000722E2E2E0900646F6E652E00496E697431
:1002600069616C6973696E6720495272656D6F745C
:10027000652073656E736F722E2E2E0900646F6E8B
:10028000652E00496E697469616C6973696E6720D7
:1002900052544320636F6D6D756E69636174696F4D
:1002A0006E732E2E2E0900536574757020636F6D6A
:1002B000706C657465210057726F6E672072656D92
:1002C0006F7465210020485454502F312E310D0A8F
:1002D00000474554202F6170692F436F64652F6C70
:1002E00061746573742F002C22616374696F6E4EA4
:1002F000616D650022616374696F6E223A0050552A
:1003000054202F6170692F436F64652F6C61746591
:10031000737420485454502F312E310D0A002F731E
:10032000746174757320485454502F312E310D0A66
:1003300000505554202F6170692F446576696365BC
:100340002F002200504F5354202F6170692F61639A
:10035000636F756E7420485454502F312E310D0A3E
:10036000004448435020726562696E643A20737598
:100370006363657373004448435020726562696E1D
:10038000643A206661696C65640044484350207299
:10039000656E6577616C3A2073756363657373008E
:1003A000444843502072656E6577616C3A206661FF
:1003B000696C656400444843502072656E657761DE
:1003C0006C3A206E6F7468696E6720686170706542
:1003D0006E6564004469646E277420777269746581
:1003E0002C20746861742773207768617420796F9A
:1003F000752077616E7465642C2072696768743F3C
:1004000000474C4F42414C204C4F434B204F4646F7
:100410002E00474C4F42414C204C4F434B204F4EF7
:100420002E004C696768742061646D696E206D6F81
:100430006465204F46462E004C69676874206164ED
:100440006D696E206D6F6465204F4E2E004375738D
:10045000746F6D206D6F64653A206C6967687420F5
:100460004F46462E00437573746F6D206D6F646543
:100470003A206C69676874204F4E2E00486561749D
:100480002061646D696E206D6F6465204F46462E55
:1004900000486561742061646D696E206D6F6465EC
:1004A000204F4E2E00437573746F6D206D6F646521
:1004B0003A2068656174696E67204F46462E004396
:1004C0007573746F6D206D6F64653A206865617433
:1004D000696E67204F4E2E005761746572696E67B2
:1004E0002061646D696E206D6F6465204F46462EF5
:1004F000005761746572696E672061646D696E2072
:100500006D6F6465204F4E2E00437573746F6D20C0
:100510006D6F64653A207761746572696E67204F0C
:1005200046462E00437573746F6D206D6F64653A97
:10053000207761746572696E67204F4E2E00504FB0
:100540005354202F6170692F656E7472792048545E
:1005500054502F312E310D0A003B003A003A002052
:10056000002F002F007B22456D61696C223A2261C9
:10057000646D696E4061646D696E2E6F7267222CC6
:100580002250617373776F7264223A2241646D69FD
:100590006E5F70726F6A656B7430222C2252656DCB
:1005A000656D6265724D65223A2266616C736522E3
:1005B0007D0D0A00436F6E74656E742D4C656E6719
:1005C00074683A2000646973636F6E6E6563746962
:1005D0006E672E00646973636F6E6E656374696E17
:1005E000672E002D2D2D2D2D2D2D2D2D2D2D2D2D2D
:1005F0002D2D2D002D2D2D2D2D2D2D2D2D2D2D2D58
:100600002D2D2D2D000D0A007D0D0A007B22537427
:10061000617465223A0000002000230026002900B2
:100620002C002F0032000001000003010601090127
:1006300000002100240027002A002D003000330094
:1006400001010000040107010A0100002200250049
:1006500028002B002E0031003400020100000501AB
:1006600008010B0100000A0B02090C0D0E0807031C
:100670000401000000000000000000000000000075
:10068000000000000000000000000000000000006A
:100690001211100000000000000000000000000027
:1006A00000000000000000000000227D0D0A007D17
:1006B0002C226465766963654964223A22002C2203
:1006C0004C696768745374617465223A002C224146
:1006D000697254656D7065726174757265223A0055
:1006E000222C2241697248756D6964697479223AD5
:1006F000002C22536F696C4465736372697074696E
:100700006F6E223A2200222C22536F696C4D6F6962
:100710007374757265223A003A0020002D00300093
:100720007B226D656173757265223A7B2244617428
:100730006554696D65223A2200636F6E6E6563745D
:10074000696F6E206661696C6564006F6B00436160
:100750006368652D436F6E74726F6C3A206E6F2DF7
:1007600063616368650D0A00436F6E74656E742D76
:10077000547970653A206170706C69636174696F57
:100780006E2F6A736F6E0D0A00436F6E6E65637431
:10079000696F6E3A20636C6F73650D0A00486F7362
:1007A000743A206761726475696E6F70726F6A6502
:1007B00063742E617A7572657765627369746573A7
:1007C0002E6E65740D0A004D616B652061204854E2
:1007D00054502072657175657374202E2E2E200082
:1007E000227D0D0A00222C226465766963654964C6
:1007F000223A22007B226461746554696D65223A55
:100800002200E04211241FBECFEFD1E2DEBFCDBFF8
:1008100000E00CBF15E0A0E0B2E0EAE1F9E900E099
:100820000BBF02C007900D92AE35B107D9F728E093
:10083000AEE5B5E001C01D92AA30B207E1F714E0C1
:10084000C2E0D4E000E006C021970109802FFE013C
:100850000E945049C130D10780E00807A9F70E94E3
:10086000E82F0C948B4CCCCB80E090E00895089559
:10087000089508950895CF93DF93DB011696ED91C7
:10088000FC911797C481D5811796DC93CE93169768
:1008900075836483209719F08881998102C08FEF56
:1008A0009FEF1496CD91DC911597209719F0588100
:1008B000498102C05FEF4FEF252F342F28173907EA
:1008C0000CF49C012F5F3F4F2D933C93A681B78181
:1008D000109721F09C9111968C9102C09FEF8FEFA1
:1008E000492F582F421753070CF4A9014F5F5F4F50
:1008F00051834083CF01DF91CF910895CF93DF9350
:10090000DB011496ED91FC911597268137811596A0
:100910003C932E9314977783668316968D919C91C2
:100920001797009739F0EC0158814981211531055D
:1009300031F409C02115310519F15FEF4FEFE901DD
:100940008881998102C08FEF9FEF252F342F2817C0
:1009500039070CF49C012F5F3F4F2D933C93A481EA
:10096000B581109721F09C9111968C9102C09FEF58
:100970008FEF492F582F421753072CF4A90103C0BA
:100980002FEF3FEFE8CF4F5F5F4F51834083CF01A1
:10099000DF91CF910895CF93DF93EB01488150E031
:1009A0004053584F052E000C660B770B2AE089E068
:1009B00097E00E949F2F83E695E00E948F2949814E
:1009C00050E060E070E02AE089E097E00E949F2F0D
:1009D00081E695E00E948F294A8150E060E070E056
:1009E0002AE089E097E00E949F2F8FE595E00E9422
:1009F0008F294B8150E060E070E02AE089E097E0C9
:100A00000E949F2F8DE595E00E948F294C8150E038
:100A100060E070E02AE089E097E00E949F2F8BE57C
:100A200095E00E948F294D8150E060E070E02AE05F
:100A300089E097E00E949F2F89E595E0DF91CF91B3
:100A40000C94B029EF92FF920F931F93CF93DF93F3
:100A50008C017B01EA01209771F488E090E00E940C
:100A60009443EC01198218821D821C821F821E820F
:100A7000FB82EA8271C0EA81FB81DB0118962D912D
:100A80003C911997808591852817390774F54C8119
:100A90005D81C801D7DF9D838C83009721F0FC0125
:100AA0002081318102C02FEF3FEFEE81FF8130972F
:100AB00019F04081518102C04FEF5FEF241B350BCD
:100AC0002230310509F048C0DC0112962D913C918D
:100AD0001397E216F30628F0BC01C801CCDE9D8313
:100AE0008C83BE01C8010ADF36C0E617F707A0F500
:100AF0004E815F81C801A6DF9F838E83009721F01E
:100B0000FC012081318102C02FEF3FEFEC81FD819C
:100B1000309719F04081518102C04FEF5FEF241BE5
:100B2000350B22303105C1F4DC011296ED91FC91B8
:100B30001397D70118964D915C91199720853185AF
:100B4000241735072CF0BC01C801D8DE9F838E83A3
:100B5000BE01C80190DEEC01EE81FF81309719F0F3
:100B60002081318102C02FEF3FEFEC81FD81309772
:100B700019F05081418102C05FEF4FEF852F942F14
:100B8000821793070CF4C901019699838883CE01DB
:100B9000DF91CF911F910F91FF90EF9008950F93E8
:100BA0001F93CF93DF9300D000D0CDB7DEB78C0179
:100BB000BC016A5F7F4FCE0101960E94D425BE0121
:100BC0006F5F7F4FF80186859785E5DE26960FB625
:100BD000F894DEBF0FBECDBFDF91CF911F910F9173
:100BE0000895FC01118614861786768365838EEA44
:100BF00092E091838083118A108A138A128A158A5F
:100C0000148AF78BE68B108E87E090E093838283C3
:100C100008956F3F7105A9F0A4F06B3581E0780766
:100C200054F0693B81E078074CF0643172404CF439
:100C300083EE94E008958DEC94E0089582ED94E0C5
:100C4000089586ED94E008958F929F92AF92BF929F
:100C5000DF92EF92FF920F931F93CF93DF937C016C
:100C6000EA0161E082E00E94C12368EE73E080E067
:100C700090E00E942C2480917B00877F80937B00F2
:100C800081E480937C0080917A00806480937A0074
:100C900080917A0086FDFCCF8091780020917900C8
:100CA00090E0922B998388830C851D85C8010E9452
:100CB000762B8823A9F1D80116968C918B3041F1BF
:100CC00078F18551823060F5D8016C9170E080E058
:100CD00090E00E943F4520E030E040E853E40E946D
:100CE000A0454B015C01F8018181682F70E080E034
:100CF00090E00E9441459B01AC01C501B4010E94F6
:100D0000C8462DEC3CEC4CEC5DE30E94A0450CC0C9
:100D1000F801608170E080E090E00E943F4504C0EF
:100D200060E070E080EC9FE7688779878A879B871F
:100D30000C851D85C8010E94762B8823E1F1D8011E
:100D400016968C918B3029F0B0F18551823048F0A5
:100D500032C0F801628170E080E090E00E943F457F
:100D60002EC0D8011296DC906D2D6F7770E080E078
:100D700090E00E94414520E030E040E853E40E94CA
:100D8000A0454B015C01F8018381682F70E080E091
:100D900090E00E9441459B01AC01C501B4010E9455
:100DA000C8462DEC3CEC4CEC5DE30E94A045D7FE20
:100DB00006C0905804C060E070E080EC9FE76C8350
:100DC0007D838E839F8360E082E00E94C123D701F0
:100DD000ED91FC91C489D58907EF16E120E030E060
:100DE000E12C41E06EE375E0CE010E942A2BCE019A
:100DF000DF91CF911F910F91FF90EF90DF90BF9007
:100E0000AF909F908F900C948E13DC012D913C91AC
:100E10002115310529F487EE94E00E94F12920C0C4
:100E200062177307ECF4DC011296ED91FC911397B5
:100E30002481358181E090E0309769F06817790767
:100E40006CF02115310551F00280F381E02D2481F1
:100E500035810196F1CF6817790714F0C90108951B
:100E600080E090E0089560E070E04096CEDF00976B
:100E700001F408950F931F93CF93DF93EC018B013F
:100E800086E090E00E949443FC011182108213825C
:100E90001282158304838881D80114968C93149749
:100EA0008E819F8118969C938E93179741E0199697
:100EB0004C932A813B8188819981232B19F4FB83F0
:100EC000EA831CC06C817D8171836083DB01149691
:100ED0002D913C911597D8011B963C932E931A9710
:100EE0001C964C93D9011E961C930E931D971F962A
:100EF0004C93DB011396FC93EE931297FD83EC83E6
:100F0000019699838883DF91CF911F910F91089566
:100F1000FC0122813381C9010197039748F081E0E8
:100F20002530310539F02630310521F080E0089573
:100F300081E0089508950F931F93CF93DF93FC01F1
:100F40006A30710551F5C481D58160E070E0A1E09F
:100F5000B0E06C177D07ECF59B01265F3F4F828167
:100F600093818D0102C0000F111F2A95E2F79801AD
:100F70004115510519F0802B912B04C02095309517
:100F8000822393239383828357FF02C04F5F5F4F77
:100F9000559547956F5F7F4FDCCFA281B381452B7D
:100FA00059F021E030E002C0220F331F6A95E2F7CA
:100FB000CD01822B932B0BC081E090E002C0880F03
:100FC000991F6A95E2F7809590958A239B239383D6
:100FD0008283DF91CF911F910F9108954F925F927D
:100FE0006F927F928F929F92AF92BF92CF92DF9239
:100FF000EF92FF920F931F93CF93DF9300D01F9236
:10100000CDB7DEB77C016A30710509F055C0FC012F
:101010004480558000E010E0A12CB12C662463943C
:10102000712C041515050CF045C0C8010A96B301D2
:1010300002C0660F771F8A95E2F7F70182819381DC
:10104000862397230E943D496B01B801012E000CB5
:10105000880B990B0E9441459B01AC0160E070E058
:1010600080E090E40E94C9479B01AC01B501BB0C34
:10107000880B990B29833A834B835C830E944145FB
:101080004B015C01B601DD0C880B990B0E944145B8
:1010900029813A814B815C810E94A0459B01AC0172
:1010A000C501B4010E94C8460E9494475B010F5FCE
:1010B0001F4FB7CFC50111C081E090E09C0102C075
:1010C000220F331F6A95E2F7B901F70182819381FC
:1010D000822393230E943D49CB010F900F900F90E4
:1010E0000F90DF91CF911F910F91FF90EF90DF90C4
:1010F000CF90BF90AF909F908F907F906F905F90B8
:101100004F90089569E070E069CFCF93DF93EC01D1
:10111000F9DF892B49F040E050E069E070E0CE0152
:101120000ADF88ED94E008C041E050E069E070E03B
:10113000CE0101DF81EF94E0DF91CF910C94B029D3
:1011400068E070E04BCFCF93DF93EC01F9DF892BA0
:1011500061F089E095E00E94B02940E050E068E04D
:1011600070E0CE01E8DE60E00BC084E295E00E9412
:10117000B02941E050E068E070E0CE01DCDE61E0E3
:1011800089E0DF91CF910C94C12367E070E026CF16
:10119000CF93DF93EC01F9DF892B49F040E050E079
:1011A00067E070E0CE01C7DE8CE794E008C041E064
:1011B00050E067E070E0CE01BEDE81E994E0DF91AF
:1011C000CF910C94B02966E070E008CFCF93DF9305
:1011D000EC01F9DF892B59F085EA94E00E94B029EF
:1011E00060E088E00E94C12340E050E00AC08FEB3D
:1011F00094E00E94B02961E088E00E94C12341E0B0
:1012000050E066E070E0CE01DF91CF9194CE65E0D2
:1012100070E0E4CECF93DF93EC01F9DF892B49F046
:1012200040E050E065E070E0CE0185DE82E294E0CF
:1012300008C041E050E065E070E0CE017CDE88E36C
:1012400094E0DF91CF910C94B02964E070E0C6CEB9
:10125000CF93DF93EC01F9DF892B61F08DE494E00B
:101260000E94B02940E050E064E070E0CE0163DE0F
:1012700061E00BC085E694E00E94B02941E050E0B7
:1012800064E070E0CE0157DE60E086E0DF91CF9150
:101290000C94C12361E070E0A1CE60E070E09ECECE
:1012A000CF93DF93EC01F9DF892B49F040E050E068
:1012B00060E070E0CE013FDE81E094E020C041E0DC
:1012C00050E060E070E0CE0136DE40E050E065E0E6
:1012D00070E0CE0130DE40E050E067E070E0CE012B
:1012E0002ADE40E050E069E070E0CE0124DE40E01C
:1012F00050E06DE070E0CE011EDE82E194E0DF910F
:10130000CF910C94B029DC0156964D915C91579782
:101310005496ED91FC915597CA01959587955096F5
:101320002D913C91519740FF0AC0D901A80FB91FD8
:101330004D915C91E40FF51F0190F081E02D820F3B
:10134000931F1994DC0156964D915C9157975496D2
:10135000ED91FC915597CA019595879550962D91E1
:101360003C91519740FF0AC0D901A80FB91F4D9178
:101370005C91E40FF51F0190F081E02D820F931F27
:10138000199521E0892B09F420E0822F0895EF922E
:10139000FF920F931F93CF93DF93EC0119861C8666
:1013A0001F867E836D83598B488B3B8B2A8B81E014
:1013B00090E09B838A8384EA92E099838883FD8A04
:1013C000EC8A1F8B0E8BC8019595879500FF0CC08A
:1013D000FA01E80FF91F0190F081E02DEE0DFF1DDD
:1013E0000190F081E02D01C0F701840F951F199540
:1013F00021E0892B09F420E0288F84E090E09B8392
:101400008A83DF91CF911F910F91FF90EF90089504
:10141000EF92FF920F931F93CF93DF937C01EB0129
:101420008A0180E090E02097C9F00097B9F48A81A2
:101430009B81FC01208531850217130724F40C8061
:10144000DD81C02D06C02017310744F40E80DF81F6
:10145000C02DA801BE01C701DBDFE5CFDF91CF9131
:101460001F910F91FF90EF900895CF93DF93EC01C0
:1014700048815981E7DA99838883DF91CF91089574
:10148000EF92FF920F931F93CF93DF938C01DC01B8
:101490001696ED91FC91179780819181892B09F423
:1014A0004BC0E280F380F701C081D181E114F104E7
:1014B00009F442C088854E815F81EC81FD812881DD
:1014C00039818823A9F0CA019595879540FF0AC004
:1014D000D901A80FB91F4D915C91E40FF51F019040
:1014E000F081E02D820F931F19950197F9F414C034
:1014F000CA019595879540FF0AC0D901A80FB91F69
:101500004D915C91E40FF51F0190F081E02D820F69
:10151000931F1995892B51F48A819B81DF91CF917B
:101520001F910F91FF90EF900C94F129D70116961F
:10153000ED90FC901797B7CFF8018481958180FDDD
:1015400006C0D8011296ED91FC91139715C0D801F1
:10155000ED91FC9111979C0135952795E20FF31FB2
:101560000190F081E02D12962D913C911397E20F9E
:10157000F31F0190F081E02D95958795D8012D916D
:101580003C91820F931FDF91CF911F910F91FF909C
:10159000EF901994FC018289938972DF80E090E0DA
:1015A0000895CF93DF93EC01F5DFCE01CBDE888F7A
:1015B000DF91CF9108958F929F92AF92BF92EF9259
:1015C000FF920F931F93CF93DF93EC017B014801B0
:1015D0005901798368835987488788E090E00E94A1
:1015E0009443FC01118210821382128215821482AC
:1015F000F782E6829F838E838A829B82AC82BD8241
:10160000DF91CF911F910F91FF90EF90BF90AF901E
:101610009F908F9008950F931F93CF93DF93EC01CA
:101620008B0188E090E00E949443FC0188E0DF0198
:101630001D928A95E9F7118300838E819F8195839E
:101640008483888199819C012F5F3F4F3983288350
:10165000938382838A819B81892B19F4FB83EA839C
:1016600006C0AC81BD811796FC93EE931697FD835F
:10167000EC83DF91CF911F910F910895CF92DF926C
:10168000EF92FF92CF93DF93EC016B8170E080E0EB
:1016900090E00E943F456B017C018C81682F70E0D7
:1016A00080E090E00E943F4520E030E040E752E4D7
:1016B0000E942C479B01AC01C701B6010E94C8469D
:1016C0006B017C018D81682F70E080E090E00E94CA
:1016D0003F4520E030E041E655E40E942C479B0165
:1016E000AC01C701B6010E94C846DF91CF91FF90BF
:1016F000EF90DF90CF90089580E3FB0180833296D6
:10170000842F82958F7090E1899F401911244A306F
:1017100014F4405D01C0495C4293482F8111F0CF21
:10172000089585ED8093BC008091BC0084FDFCCFC2
:1017300010926005089540915B06262F30E0240F3B
:10174000311D21323105DCF4209160052430C9F4CB
:10175000FC0180E090E0861758F430915B062191FF
:10176000DC01A75CB94FA30FB11D2C930196F3CFF9
:1017700080915B06680F60935B0680E0089581E0CE
:10178000089582E008950895E091640580916305CD
:10179000E81730F4F0E0E353F94F808190E00895CA
:1017A0008FEF9FEF089590916405809163059817DE
:1017B00050F4E92FF0E0E353F94F208130E09F5FD0
:1017C0009093640502C02FEF3FEFC9010895809107
:1017D000630590E020916405821B91090895CF92E2
:1017E000DF92EF92FF920F931F93CF93DF937C01D1
:1017F000262F972F8A0180918806882391F0C62F83
:10180000D72F6E01C40ED51ECC15DD0569F0699188
:10181000D701ED91FC910190F081E02DC701199560
:10182000F3CF642F822F87DFC801DF91CF911F9103
:101830000F91FF90EF90DF90CF900895CF93DF93BB
:101840001F92CDB7DEB76983209188062223D1F09D
:1018500020916105203240F021E030E0FC0133832B
:10186000228380E090E014C080916205E82FF0E0D0
:10187000E757F94F998190838F5F8093620580933A
:10188000610504C061E0CE01019655DF81E090E082
:101890000F90DF91CF910895089580E090E0089532
:1018A0002F923F924F925F926F927F928F929F9270
:1018B000AF92BF92CF92DF92EF92FF920F931F935E
:1018C000CF93DF93CDB7DEB7E3970FB6F894DEBFC3
:1018D0000FBECDBF7C011A012B0139010E94642487
:1018E0004B015C0187010D5B1F4FC8010E94D91E8F
:1018F00018161906A4F00E946424DC01CB01881993
:101900009909AA09BB09281639064A065B06D8F0C8
:1019100062E370E080E090E00E942C24E6CF42E297
:1019200050E0BE016F5F7F4FC8010E94731E898126
:10193000823011F080E061C1F80184899589833497
:101940009105C1F702C08FEF58C16D817E818F81F3
:1019500098850E9458494B015C01F30160837183B3
:101960008283938346E050E0B701685F7F4FCE01EA
:101970004D960E94AE49892BE9F6F701808191814D
:10198000A281B38188169906AA06BB0698F28481C3
:101990009581A681B78188159905AA05BB0550F2E6
:1019A00089899A89AB89BC8986879787A08BB18BF7
:1019B0008EECA82EB12CC8010E94921EF1E0AF1A45
:1019C000B108C9F719A6670182E2C80ED11CF70158
:1019D000B696FBA7EAA7C7018A969DA78CA73C9756
:1019E0004F0189969FA78EA73897F9ABE8AB1701EF
:1019F000F6E12F0E311CC5979BAB8AABF801818DA8
:101A0000928D181619060CF0F7C0C8010E94921E9C
:101A10008333910509F4CBC0FCF481309105C9F101
:101A20001CF4892B59F3DCC083309105D1F1069762
:101A300009F0D6C0C8010E94921E5C0144E050E04B
:101A40006AA97BA9C8010E94731E412C512CBB249A
:101A5000F4E0AF1AB10840C08A33910509F47BC0A5
:101A60003CF48533910569F0C69709F440C0B8C0CD
:101A70008B33910509F485C08F3F910509F4BECFE2
:101A8000AFC0C8010E94921EC8010E94921E89A781
:101A9000B5CFC8010E94921E44E050E068A979A920
:101AA0003AC0C8010E94921E5C0144E050E0B101BE
:101AB000C8010E94731E412C512CBB2494E0A91A2A
:101AC000B1084A145B040CF099CFC8010E94921E21
:101AD000EFEF4E1A5E0AF5CF4A145B040CF08ECF7E
:101AE000C8010E94921E8FEF481A580AF5CFC8010C
:101AF0000E94921EB82EF701828D811110C0838D35
:101B000081110DC0848D81110AC0858D811107C09E
:101B100044E050E0B401C8010E94731E6FCFEEA5EF
:101B2000FFA54080518062807380B401CE0183960E
:101B30000E9452238DA19EA1AFA1B8A58415950541
:101B4000A605B70529F3BB2009F458CFC8010E94A8
:101B5000921EBA94F8CFC8010E94921E44E050E051
:101B60006AA57BA5C8010E94731EF70166A177A133
:101B700080A591A50E94584966A377A380A791A745
:101B80003DCFC8010E94921E44E050E06CA57DA5A7
:101B9000C8010E94731EF70162A573A584A595A5CF
:101BA0000E94584962A773A784A795A727CFC801A9
:101BB0000E94921E44E050E0B601C8010E94731ECC
:101BC000F70162A173A184A195A10E94584962A363
:101BD00073A384A395A366A777A780AB91AB0ECF21
:101BE000C8010E94921EB82EBB2009F407CFC8017D
:101BF0000E94921EBA94F8CF89A5E3960FB6F89486
:101C0000DEBF0FBECDBFDF91CF911F910F91FF902F
:101C1000EF90DF90CF90BF90AF909F908F907F908C
:101C20006F905F904F903F902F9008957F928F928A
:101C30009F92AF92BF92CF92DF92EF92FF920F935B
:101C40001F93CF93DF93CDB7DEB7A6970FB6F89467
:101C5000DEBF0FBECDBF8C01762E942E852E20E2E6
:101C6000B22ECE0101967C01FC012B2D11922A95FA
:101C7000E9F784E593E09AA389A38FEF8BA38CA364
:101C80008DA38EA3680183E4C80ED11C43E450E009
:101C9000BE016F5D7F4FC6010E949D20019609F431
:101CA000BCC081E089838A8386E0A82EAB821C8237
:101CB000F80164817581868197810E9458496D83FE
:101CC0007E838F83988789869A8680E890E09C87B8
:101CD0008B874CE150E0B701C6010E94321FF7012B
:101CE0002B2D11922A95E9F7480188E0880E911C66
:101CF000F401D70101900D92AA94E1F740E150E080
:101D0000B701C6010E94321FF7011192BA94E9F798
:101D100096E0A92EB12C40E250E0B701C6010E9426
:101D2000321FF1E0AF1AB108B1F783E6898392E878
:101D30009A8393E59B838C8385E38D8381E08E83F7
:101D40007F829DE3988797E099878A8786E0F401F0
:101D5000DE011B9601900D928A95E1F78CE0898B4C
:101D60008A8B6EEE74E0CE0143960E94BB49F80167
:101D70004385BE01675E7F4FC801BEDCF801448524
:101D8000BE01655E7F4FC801B7DCF8014585BE0125
:101D9000635E7F4FC801B0DC4EE150E0B701C60181
:101DA0000E94321FF3E07F121EC082E3898384E029
:101DB0008A83F80196859B8397859C8390899D8370
:101DC00091899E8396E39F838887828D8987838DFF
:101DD0008A87848D8B87858D8C874CE050E0B70196
:101DE000C6010E94321F87E3898386E08A8391E0DF
:101DF0009B8393E09C838D838FE08E838AE38F8324
:101E00008BE388878FEF898749E050E0B701C601EF
:101E10000E94321FC6010E945F20A6960FB6F8945A
:101E2000DEBF0FBECDBFDF91CF911F910F91FF900D
:101E3000EF90DF90CF90BF90AF909F908F907F906A
:101E40000895EF92FF920F931F93CF93DF931F920A
:101E5000CDB7DEB78C017B01FB01608169830E94F5
:101E600054466981681719F0C8010E945C46C70191
:101E70000F90DF91CF911F910F91FF90EF900895F8
:101E80000F931F93CF93DF93EC0164EB75E091D632
:101E900065E675E0CE0161D48C01BC01CE010296ED
:101EA0000E94BE29B80189E097E00E94BE29CE01B8
:101EB000A1D6CE019FD665E675E0CE01DF91CF9128
:101EC0001F910F9176C42F923F924F925F926F9223
:101ED0007F928F929F92AF92BF92CF92DF92EF92BA
:101EE000FF920F931F93CF93DF93CDB7DEB7279762
:101EF0000FB6F894DEBF0FBECDBF8C010E940A451D
:101F00002FEC37E040E050E00E946A46DC01CB0154
:101F10000196A11DB11DF80184839583A683B78323
:101F200080839183A283B3835801F3E4AF0EB11C85
:101F3000C5010E94DA1F64E470E0C5010E94EF1F32
:101F4000882309F437C10E9464242B013C01812CB1
:101F5000912C1D82C8018E5B9F4F9F838E8343E02F
:101F6000342E58EEC52E53E0D52EE12CF12C62E034
:101F7000262EAE81BF818C91833009F402C181117C
:101F80001FC0F80184819581A681B7810196A11DAA
:101F9000B11D84839583A683B7830E94642464194A
:101FA000750986099709A70196010E949646A9011D
:101FB00061E0C8013BDE81E0AE81BF818C93C2C08D
:101FC0008430F1F4F80184819581A681B78101966E
:101FD000A11DB11D84839583A683B7830E946424C9
:101FE0006419750986099709A70196010E9496460A
:101FF000A90163E0C8011ADEAE81BF812C92A2C0A4
:10200000813051F5F80142AD53AD64AD75AD9E011F
:102010002F5F3F4FC80144DC8D83823009F092C0AE
:1020200089819A81AB81BC81F80184839583A683E1
:10203000B7830E9464246419750986099709A7016A
:1020400096010E949646A90163E0C801EFDDED818B
:10205000AE81BF81EC937DC0823009F073C0D8019E
:10206000DA964D915D916D917C91DD979E012F5F88
:102070003F4FC80115DC8D83853009F05CC0EE81CF
:10208000FF813082F80182A193A1A4A1B5A1892B7F
:102090008A2B8B2B41F484E893E0A0E0B0E082A38C
:1020A00093A3A4A3B5A3F80186A197A1A0A5B1A568
:1020B000892B8A2B8B2B61F482A193A1A4A1B5A1BA
:1020C000B695A7959795879586A397A3A0A7B1A73F
:1020D000F80182A593A5A4A5B5A5892B8A2B8B2BE6
:1020E000A9F482A193A1A4A1B5A1AC01BD0123E0F3
:1020F00076956795579547952A95D1F7841B950B4B
:10210000A60BB70B82A793A7A4A7B5A7F80186A132
:1021100097A1A0A5B1A586A797A7A0ABB1AB82A5B3
:1021200093A5A4A5B5A582AB93ABA4ABB5AB88240E
:102130008394912C0EC0FD81F63021F4AE81BF81D5
:102140001C9207C0BD81BF3F21F4EE81FF81108248
:102150001D82F1E08F16910409F40BCF0E946424D4
:10216000DC01CB0184199509A609B709F80126A954
:1021700037A940AD51AD281739074A075B0708F06A
:10218000F8CEC5010E94DA1FF80184819581A681ED
:10219000B7810196A11DB11D84839583A683B78362
:1021A0000E946424F801FE96608371838283938386
:1021B000C40102C080E090E027960FB6F894DEBF1D
:1021C0000FBECDBFDF91CF911F910F91FF90EF9088
:1021D000DF90CF90BF90AF909F908F907F906F9047
:1021E0005F904F903F902F9008951F920F920FB6DF
:1021F0000F9211240BB60F922F933F934F935F933F
:102200006F937F938F939F93AF93BF93EF93FF93BE
:102210008091B900887F803609F49CC068F58832C7
:1022200009F45BC090F4803109F454C038F4882379
:1022300009F4F6C0883009F44DC0F5C0883109F4BE
:102240004CC0803209F45DC0EEC0803409F468C02F
:1022500048F4803309F455C0883309F0E4C0809312
:10226000CC06D8C0803509F44FC0883509F45DC06C
:10227000883409F0D8C0D6C0883909F4C7C0A8F49A
:10228000883709F467C038F4883609F463C08037AA
:1022900009F460C0C8C0883809F4B8C0803909F4AE
:1022A0005FC0803809F0BFC05BC0803B09F486C0C6
:1022B00038F4803A09F466C0883A09F47FC0B3C0A4
:1022C000803C09F4A7C0883C09F4A4C0883B09F409
:1022D0008AC0A9C08091C90610C09091CB06809198
:1022E000CA06981770F5E091CB0681E08E0F8093B7
:1022F000CB06F0E0E755F94F80818093BB0085EC79
:1023000086C08093CC068EC0E091CB0681E08E0F14
:102310008093CB068091BB00F0E0E755F94F8083B6
:102320009091CB068091CA066EC0E091CB0681E009
:102330008E0F8093CB068091BB00F0E0E755F94FFC
:10234000808380915F0581116DC081E080935E057F
:1023500084EA61C083E08093600510927F06CFCF4E
:1023600080917F06803208F051C0E0917F0681E0C5
:102370008E0F80937F068091BB00F0E0E15AF94F09
:102380008083BDCF85EC8093BC0010926005809166
:102390007F06803230F4E0917F06F0E0E15AF94F99
:1023A000108260917F0670E0E0915D06F0915E061C
:1023B0008FE596E0199510927F0635C084E08093F2
:1023C000600510925C0610925B06E0915906F09150
:1023D0005A06199580915B06811105C081E08093B2
:1023E0005B0610923906E0915C0681E08E0F8093C7
:1023F0005C06F0E0E75CF94F80818093BB00909130
:102400005C0680915B06981708F479CF85E8809385
:10241000BC0009C085EC8093BC001092600503C02D
:102420001092CC067ED9FF91EF91BF91AF919F9111
:102430008F917F916F915F914F913F912F910F906D
:102440000BBE0F900FBE0F901F901895CF93DF9388
:10245000EB010E9454468883CE01DF91CF9108950D
:102460002F923F924F925F926F927F928F929F92A4
:10247000AF92BF92CF92DF92EF92FF920F931F9392
:10248000CF93DF93CDB7DEB7A9970FB6F894DEBF31
:102490000FBECDBF5C014B015DA34CA33AA329A3A2
:1024A0000BA3E8A6DFA2CEA219821A821B821C828D
:1024B000FE0135968AE1DF011D928A95E9F7C50193
:1024C0004CD1282E00E010E0312CD12CC12C75010C
:1024D000B2E0EB0EF11CC7010E94E120882309F451
:1024E00080C0C701AAD7892BB1F3C7010E94BF1EC4
:1024F0008F8FC11070C0282F082E000C330B632C57
:10250000712CF401E60DF71D449150E024173507B6
:1025100019F4DD2009F4D4C0E491F0E02E173F0750
:1025200009F4F8C0DD2009F4F3C04BA1442309F4F9
:10253000D4C0BE01615E7F4F8EA19FA1800F911F0D
:1025400080DC0F5F1F4F8F8D082E000C990BECA1C4
:10255000FDA1E60DF71D249130E08217930709F0E5
:10256000B8C0E491F0E08E179F0709F0B3C0339430
:10257000321408F4AFC0222D30E04BA1442309F4FB
:10258000BCC08EA19FA1800F911F48A5442309F4D0
:10259000ACC02C01421A530A84EBC82E82E0D82E1C
:1025A000320184E0680E711CD6016D916D01C2018B
:1025B00069A70E94544669A5681719F0C2010E94D4
:1025C0005C46BFEF4B1A5B0A4614570469F7DD24DB
:1025D000D394CC24C3946F8D89E097E00E94832F1D
:1025E00080CF1E8E84ED95E00E94B029C7010E9425
:1025F000042165EF74E089E097E00E94E72FCE01A7
:1026000001960E94F1294BA1411135C029818E010B
:102610000E5F1F4FF80180E090E0222329F0203266
:1026200009F001962191F9CF0E94022A298180E0C8
:1026300090E0222339F0203209F00196D8012D9143
:102640008D01F7CF892B89F084E095E00E94F12974
:10265000CE0101960E941645E9A1FAA191838083DB
:102660008CE095E00E94F12906C084EF91E0A9A1D9
:10267000BAA18D939C9363E175E089E097E00E9495
:10268000E72FE9A1FAA1808191810E94022AA996EF
:102690000FB6F894DEBF0FBECDBFDF91CF911F9173
:1026A0000F91FF90EF90DF90CF90BF90AF909F90F1
:1026B0008F907F906F905F904F903F902F900895F4
:1026C0003394321408F487CF6CA17DA1C50145D0A5
:1026D000282E312CDD24D3947ECFE1E0F0E0EC0F06
:1026E000FD1FE00FF11F80832CCF18A2BE01605E9A
:1026F0007F4F821B930BA5DB6ACFF801E21BF30B24
:1027000081E090E08C0F9D1FE80FF91F10825FCFD2
:10271000312C61CFDD2009F45ECF07CFCF93DF935B
:10272000EC012296CE010E94E120882369F0CE01BF
:1027300084D6892BB9F3CE010E94BF1E682F89E091
:1027400097E00E94832FF3CF85EC95E00E94B0299B
:10275000CE01DF91CF910C940421FB01249180E004
:1027600090E0222331F00196FB01E80FF91F24913C
:10277000F8CF0895FB0101900020E9F7CF01019700
:10278000861B970B0895CF93DF93EB0102960E946F
:10279000E72FBE0189E097E00E94E72FFE0101903C
:1027A0000020E9F7CF0101978C1B9D0BDF91CF91A2
:1027B0000895CF92DF92EF92FF920F931F93CF93E2
:1027C0006B01FB01C49100E010E07C01F2E0EF0E30
:1027D000F11CCC2381F00F5F1F4F6C2FC7010E94AB
:1027E000832F6C2F89E097E00E94832FF601E00F82
:1027F000F11FC491EECFC801CF911F910F91FF90AF
:10280000EF90DF90CF9008954F925F926F927F92FA
:102810008F929F92AF92BF92EF92FF920F931F936E
:10282000CF93DF9300D01F92CDB7DEB72A013B01D3
:1028300019821A821B821C82CB01BA010E94944722
:102840004B015C019F926F9385E295E09F938F937C
:102850008E010F5F1F4F1F930F930E94C249F80113
:1028600001900020E9F77F01E01AF10AB401990C08
:10287000880B990B0E9441459B01AC01C301B20139
:102880000E94C74620E030E040E251E40E94A045AB
:102890004B015C010F900F900F900F900F900F90D5
:1028A00020E030E0A9010E94C54720E030E040E090
:1028B0005FE387FD05C0C501B4010E94C84604C09E
:1028C000C501B4010E94C7460E9494479F938F930D
:1028D0007F936F9385E295E09F938F931F930F9360
:1028E0000E94C249F80101900020E9F73197CF0119
:1028F000801B910B0FB6F894DEBF0FBECDBF8E0DBF
:102900009F1D0F900F900F900F90DF91CF911F910F
:102910000F91FF90EF90BF90AF909F908F907F901E
:102920006F905F904F9008954F925F926F927F9259
:102930008F929F92AF92BF92CF92DF92EF92FF92CF
:102940000F931F93CF93DF9300D01F92CDB7DEB7C5
:102950004C016A017B0119821A821B821C82CB0105
:10296000BA010E9494472B013C015F926F9385E26C
:1029700095E09F938F938E010F5F1F4F1F930F93CF
:102980000E94C249B801C401FEDE5C0167E074E048
:10299000C401F9DEA80EB91EB201550C880B990BC3
:1029A0000E9441459B01AC01C701B6010E94C74688
:1029B00020E030E040E251E40E94A0456B017C0140
:1029C0000F900F900F900F900F900F9020E030E03D
:1029D000A9010E94C54720E030E040E05FE387FDA9
:1029E00005C0C701B6010E94C84604C0C701B601B0
:1029F0000E94C7460E9494479F938F937F936F9343
:102A000085E295E09F938F931F930F930E94C24995
:102A1000B801C401B8DE0FB6F894DEBF0FBECDBF5B
:102A20008A0D9B1D0F900F900F900F90DF91CF910B
:102A30001F910F91FF90EF90DF90CF90BF90AF90DC
:102A40009F908F907F906F905F904F900895DF924E
:102A5000EF92FF920F931F93CF93DF931F92CDB707
:102A6000DEB77C018B01D42EBE016F5F7F4FC801A2
:102A7000EDDC82E0E80EF11C6981662319F10F5F3D
:102A80001F4FDD2041F0C7010E94832F698189E03B
:102A900097E00E94832F9981892F8F7D81548A31FD
:102AA00058F09D3249F090539A3030F068E275E06A
:102AB00089E097E00E94E72FBE016F5F7F4FC8015A
:102AC000C5DCDACFC8010F90DF91CF911F910F9134
:102AD000FF90EF90DF900895CF93DF93EB0140E0FC
:102AE000B6DF8C1B9D0BDF91CF910895CF93DF93C1
:102AF000EB0141E0ACDF8C1B9D0BDF91CF91089582
:102B0000FC01828993890E94400A80E090E0089548
:102B1000EF92FF920F931F93CF93DF931F92CDB746
:102B2000DEB77C01BE016F5F7F4F80E090E08EDCFE
:102B300000E010E082E0E80EF11C6981662381F07C
:102B40000F5F1F4FC7010E94832F698189E097E0C3
:102B50000E94832FBE016F5F7F4FC80177DCEDCFEE
:102B60000F90DF91CF911F910F91FF90EF900895FB
:102B7000CF93DF9340E550E060E375E00296BAD76B
:102B8000EC010E94022A81E0CD2B09F480E0DF9164
:102B9000CF910895FB012491DA0180E090E0222397
:102BA00039F02D930196FB01E80FF91F2491F7CF1F
:102BB0000895EF92FF921F93CF93DF93FB0114913F
:102BC000EB017C01F2E0EF0EF11C2196112361F084
:102BD000612FC7010E94832F612F89E097E00E9437
:102BE000832FFE011491F1CFDF91CF911F91FF90C0
:102BF000EF90089565E076E0DCCFAF92BF92CF9280
:102C0000DF92EF92FF920F931F93CF93DF93CDB795
:102C1000DEB728970FB6F894DEBF0FBECDBF8C018C
:102C200064EB75E0C6DF6CE076E0C80196DD7C0100
:102C300019821A821B821C821D821E821F821886A4
:102C4000D801ED91FC9183818F9382818F9385E2EE
:102C5000A82E85E0B82EBF92AF92CE0101966C01EE
:102C60009F938F930E94C249F60101900020E9F7DB
:102C70003197EC19FD09EE0EFF1E68E076E0C80101
:102C80006CDDE80EF91EB701C80102960E94BE294C
:102C9000B70189E097E00E94BE29C801ABDFC801F7
:102CA000A9DF6CE076E0C80184DD19821A821B82FC
:102CB0001C821D821E821F821886D801ED91FC9114
:102CC00083818F9382818F93BF92AF92DF92CF9255
:102CD0000E94C249B601C80156DD68E076E0C8012D
:102CE00068DD0FB6F894DEBF0FBECDBF28960FB6D5
:102CF000F894DEBF0FBECDBFDF91CF911F910F9132
:102D0000FF90EF90DF90CF90BF90AF9008958F929B
:102D10009F92AF92BF92CF92DF92EF92FF920F936A
:102D20001F93CF93DF93CDB7DEB72C970FB6F894F0
:102D3000DEBF0FBECDBF4C0164EB75E03ADFCE01C4
:102D400001960E94BA24BE016F5F7F4FCE010796A5
:102D50000E94D4258CE6C82E85E1D82EE12CF12CDA
:102D60000AEB13E120E030E04DEA53E160E070E06F
:102D7000CE0107965C01C4010E94632E8C01BC0148
:102D8000C40102960E94BE29B80189E097E00E9422
:102D9000BE29C4012FDFC4012DDFBE016F5F7F4F4D
:102DA000C5010E94D42596E7C92E95E1D92EE12CC4
:102DB000F12C03EC13E120E030E049ED53E160E059
:102DC00070E0C4010E94632E2C960FB6F894DEBF0B
:102DD0000FBECDBFDF91CF911F910F91FF90EF906C
:102DE000DF90CF90BF90AF909F908F9008952F92DB
:102DF0003F924F925F926F927F928F929F92AF928B
:102E0000BF92CF92DF92EF92FF920F931F93CF93D7
:102E1000DF93CDB7DEB768970FB6F894DEBF0FBE6D
:102E2000CDBF3C0164EB75E0C4DECE0101960E948B
:102E3000BA24D3010D911C91C8010E9425099E87D7
:102E40008D87D8011C96ED91FC911D97B481BF87A9
:102E50008581888B26809781998BA085AA8BB185E7
:102E6000BB8B82858C8B93859D8B50804180652D9B
:102E7000742DD8011E968D919C911F970E94090672
:102E80008E8B392EB8016A5F7F4FCE0107960E9464
:102E9000D42524E0822E24E1922EA12CB12C3CE6F4
:102EA000C32E35E1D32EE12CF12C0AEB13E120E007
:102EB00030E04DEA53E160E070E0E1E08D859E8511
:102EC000892B09F4E0E0EF9399899F932F92A889C9
:102ED000AF93BF85BF93ED89EF93FC89FF938B89F7
:102EE0008F939A899F933F92AE89AF934F925F924F
:102EF0002E01B7E04B0E511C5F924F92C3010E940E
:102F00009A2C8C01BC01C30102960E94BE29B80113
:102F100089E097E00E94BE29C3016CDEC3016ADE2E
:102F2000F30100811181C8010E9425099E878D87C8
:102F3000D8011C96ED91FC911D97B481BF878581C6
:102F4000888B9681998BA781AA8BB085BB8B818555
:102F50008C8B92859D8BA385AE8B30802180632DD9
:102F6000722DF801868597850E9409068F8B988FB0
:102F7000B8016A5F7F4FC2010E94D42584E9882E80
:102F800084E1982EA12CB12C96E7C92E95E1D92E7B
:102F9000E12CF12C03EC13E120E030E049ED53E1AA
:102FA00060E070E0E1E08D859E85892B09F4E0E02A
:102FB000EF939A899F93A989AF93B889BF93EF85BF
:102FC000EF93FE89FF938D898F939C899F93AB89A3
:102FD000AF93B88DBF93EF89EF932F923F92FE018D
:102FE0003796FF93EF93C3010E949A2C0FB6F89483
:102FF000DEBF0FBECDBF68960FB6F894DEBF0FBE22
:10300000CDBFDF91CF911F910F91FF90EF90DF9097
:10301000CF90BF90AF909F908F907F906F905F9078
:103020004F903F902F9008958F929F92BF92CF9292
:10303000DF92EF92FF920F931F93CF93DF938C0158
:10304000DC011696ED91FC911797408150E060E00D
:1030500070E02AE089E097E00E949F2F60E289E01B
:1030600097E00E94832FF801408550E060E070E017
:103070002AE089E097E00E949F2F60E289E097E0D4
:103080000E94832FD8011296ED91FC9113978581B0
:1030900096810E94F129F8018181FCEFCF2EC80EA4
:1030A00084EF95E00E94B029D8011696ED91FC912D
:1030B00017971896DC908081D81AB12CEC2CF12C43
:1030C0006D2D70E0D80118968C91189790E01696A7
:1030D000ED91FC9117972081821B91092C91820F11
:1030E000911D681779070CF054C1F8018281938112
:1030F00040960E940507EC01892B09F436C1D801DE
:103100001696ED91FC9117978081B81202C06EE37C
:1031100001C060E289E097E00E94832FB394AD8103
:10312000BE81FD0101900020E9F73197EA1BFB0BFE
:10313000EE15FF0510F4912C1CC0812C912C8C14E1
:1031400068F4ED81FE81E80DF91D608189E097E06A
:103150000E94832FBFEF8B1A9B0AF1CFCE010E94F2
:103160008807811145C060E289E097E00E94832FC3
:103170003FC06D817E81FB0101900020E9F731970E
:10318000E61BF70B292D30E0C7018E1B9F0B969590
:1031900087952817390738F460E289E097E00E94A4
:1031A000832F9394E6CF89E097E00E94E72F912C3C
:1031B000AD81BE81FD0101900020E9F73197EA1B46
:1031C000FB0BC7018E1B9F0B292D30E0AC0141701A
:1031D000552796958795840F951F2817390708F06E
:1031E000BDCF60E289E097E00E94832F9394E0CF07
:1031F000EA81FB81E830F10508F0ACC08827EE5881
:10320000FF4F8F4F0C9450496BE2A0C060E289E001
:1032100097E00E94832F60E289E097E00E94832F6D
:1032200094C0EC89FD8990818E89981302C060E278
:1032300001C06FE589E097E00E94832F8A819B811E
:103240008B7F6E89029709F4B3C070E089E097E044
:103250000E94BE29EC89FD8990818E89981313C044
:1032600074C0672B09F4AEC06FE689E097E00E9456
:10327000832FEC89FD89208131818E899F892817D0
:10328000390709F462C06FE561C0EC89FD892081CE
:1032900031818E899F892817390711F460E201C0B6
:1032A0006FE589E097E00E94832F8A819B818B7F65
:1032B0006E897F890297A9F289E097E00E94BE2972
:1032C000D8CFCE010E948309288D398D82179307AC
:1032D00011F460E201C06FE589E097E00E94832F5E
:1032E0008A819B818B7F688D798D029709F46CC0F0
:1032F00089E097E00E94BE29CE010E948309288DB3
:10330000398D8217930709F0BECF1FC0CE010E94EE
:10331000A209988D891302C060E201C06FE589E0BF
:1033200097E00E94832F8A819B818B7F688D029713
:1033300009F454C070E089E097E00E94BE29CE01F4
:103340000E94A209988D89139ECF60E289E097E0E0
:103350000E94832FCE010E948807811112C060E273
:1033600089E097E00E94832F0CC0C0E0F8018181C2
:10337000C81738F460E289E097E00E94832FCF5F9E
:10338000F5CF6AEC74E089E097E00E948A2FD3942D
:1033900097CE83EE95E0DF91CF911F910F91FF9033
:1033A000EF90DF90CF90BF909F908F900C94B029BA
:1033B000662311F06FE601C068E789E097E00E949C
:1033C000832F48CF68E751CF672B11F06FE601C01C
:1033D00068E789E097E00E94832F8ECF662311F083
:1033E0006FE601C068E789E097E00E94832FA7CFCE
:1033F000CF93DF931F92CDB7DEB76983DC01ED91E8
:10340000FC910280F381E02D41E050E0BE016F5F4E
:103410007F4F19950F90DF91CF910895DC01ED91C9
:10342000FC91068CF78DE02D199591E08927089580
:10343000862F089581E086270895FC0184858430D5
:1034400011F00C943E2880E090E0089508958CBD22
:103450009DBD08958F929F92AF92BF92CF92DF92BF
:10346000EF92FF920F931F93CF936C015B017A0150
:10347000FC01C485C43041F481E090E0F6019383FF
:10348000828380E090E047C08A014130584010F0CC
:1034900000E018E080E590E0DADF8C2F0E94102B2E
:1034A0004C0163E070E08C2FEAD5873111F08C314C
:1034B00021F48016910670F302C000E010E080E570
:1034C00090E0C5DF9801A50160E070E08C2F0E94BC
:1034D000AD2A60E270E08C2F0E94372A62E070E033
:1034E0008C2FCDD584FD0EC063E070E08C2FC7D546
:1034F000811104C08C2F0E94AD28BECF80E590E0E2
:10350000A6DFECCF40E162E070E08C2F95D5012B77
:1035100009F4B2CFC701CF911F910F91FF90EF90A7
:10352000DF90CF90BF90AF909F908F900895CF92F3
:10353000DF92FF920F931F93CF93DF93FC012485BB
:10354000243009F073C06A01EB018C01F12C8F2D3E
:103550000E947629811103C0F801F48607C08B7F91
:103560008831D1F3F394F4E0FF12F1CFF8018485B0
:10357000843009F45BC020910002309101022F5F7A
:103580003F4F11F420E030EC309301022093000211
:10359000409100025091010220E061E00E94C028A9
:1035A000F801F4848A818F3F51F48B818F3F91F42D
:1035B0008C818F3F79F48D818F3F61F434C081110C
:1035C00009C08B81811106C08C81811103C08D815E
:1035D000882349F1C114D10431F180E590E037DF4F
:1035E000BE016E5F7F4F8F2D90E0982F882744E0BB
:1035F00050E0845F9B4F0E94F627B6018F2D8ED539
:1036000064E070E08F2D0E94372AC801D2D587313F
:1036100081F061E070E080E090E00E942C24C8011D
:10362000C8D58111F2CF84E0F801848780E090E072
:1036300002C081E090E0DF91CF911F910F91FF9048
:10364000DF90CF9008952F923F924F925F926F92AA
:103650007F928F929F92AF92BF92CF92DF92EF9222
:10366000FF920F931F93CF93DF93CDB7DEB765978C
:103670000FB6F894DEBF0FBECDBF7C016B013A01DF
:10368000FB0120E080E090E06AE03191332309F112
:1036900040ED430F4A3080F4689FA001699F500DB0
:1036A0001124CA01C097830F911D37FD9A958F3F52
:1036B000910559F350F313C03E3289F4233079F069
:1036C000D301A20FB11D12968C932F5F80E090E082
:1036D000DCCF233021F4F301858381E020C0F701A2
:1036E00042815381648175818091B0079091B107C7
:1036F000A091B207B091B307481759076A077B0733
:1037000009F483C10E9464248701085F1F4F6F7012
:1037100077277C5FC80163D4813019F080E090E0A6
:10372000D0C184E593E09A838983F70182819381F4
:10373000A481B5818B839C83AD83BE8345E350E038
:10374000BE016F5F7F4FC801F8D4892B19F4C12CDB
:10375000D12C57C10E946424F701778366837627B2
:10376000672776277A83698342E050E0BE016F5F66
:103770007F4FC80177D381E090E09E878D8742E03C
:1037800050E0BE01635F7F4FC8016CD380E091E0E1
:103790009E878D8742E050E0BE01635F7F4FC80186
:1037A00061D31E861D8642E050E0BE01635F7F4FFD
:1037B000C80158D342E050E0BE01635F7F4FC801AB
:1037C00051D342E050E0BE01635F7F4FC8014AD34E
:1037D0005601F5018081882301F1F6015F01819195
:1037E000811113C045018C189D081814190484F424
:1037F0008F8641E050E0BE01615F7F4FC80132D348
:10380000A401B601C8012ED303C08E3239F7EACF26
:103810006501FFEFCF1ADF0ADCCF1F8641E050E0E1
:10382000BE01615F7F4FC8011DD3C12CDD24D3943D
:10383000DE86CD8642E050E0BE01635F7F4FC80167
:1038400011D3DE86CD8642E050E0BE01635F7F4F3C
:10385000C80108D3C80133D4892B09F478CF63E0B9
:10386000A62EB12CF2E06F0E711C0E9464241B0185
:103870002C01C8019ED2181619069CF00E946424DF
:10388000DC01CB0182199309A409B5098938934158
:10389000A105B105C8F462E370E080E090E0DCD7F8
:1038A000E8CFF7014281538164817581808D918DCC
:1038B000A28DB38D481759076A077B0741F4848DA1
:1038C000958DC59721F406C02FEF3FEF90C02EEFE6
:1038D0003FEF8DC0F70181A192A10C970CF49BC022
:1038E0004CE050E0BE016F5F7F4FC801FCD18B817F
:1038F00090E0982F88272C81822B9A8B898B2981A5
:1039000030E0322F22274A81242BF701468157814C
:103910004217530709F07CC097FF7AC08F709270EE
:10392000892B09F0CBC0CF80D12CDC2CCC2488850E
:10393000C82AC114D10409F4BEC0812C912C8D81F8
:1039400090E0982F88272E81822B8816990608F4FC
:1039500065C0812C912C41E050E0BE016D5E7F4F2F
:10396000C801C1D18B89982F907C09F083C0811147
:1039700077C08B898111EFCF42E050E0BE01615FDB
:103980007F4FC801B0D142E050E0BE01635F7F4F7E
:10399000C801A9D1C801C6D1C801C4D1C801C2D1CA
:1039A000C801C0D142E050E0BE016F5E7F4FC80148
:1039B0009AD18F8598898115914009F05FC02D8536
:1039C0003E853227232732272130310509F056C0A2
:1039D00089899A898115944009F06AC044E050E0D1
:1039E000B301C8012C8B3D8B7ED12C893D896901A7
:1039F000F1E0AF1AB10829F02FEFC216D20609F490
:103A000034CFC801D7D2C6015CC08EEF9FEF59C03A
:103A10002CEF3FEFECCF2DEF3FEFE9CF41E050E04F
:103A2000BE01635F7F4FC8015ED18D8581110FC0DC
:103A30008D858111F3CFC80175D1C80173D1C8013B
:103A400071D1C8016FD1FFEF8F1A9F0A78CF8D8592
:103A50009FEF980F9D87882359F3C80163D1F7CF53
:103A60008B899FEF980F9B8B882309F482CFC80125
:103A700059D1F6CFC80156D11B8A7BCF412C512C8E
:103A800089899A899827892798274816590630F4F2
:103A9000C80148D18FEF481A580AF2CFEFEF8E1ABB
:103AA0009E0A8C149D0409F056CF26EF3FEF9FCF5E
:103AB00027EF3FEF9CCF2AEF3FEF99CF2BEF3FEF60
:103AC00096CF65960FB6F894DEBF0FBECDBFDF91DF
:103AD000CF911F910F91FF90EF90DF90CF90BF900B
:103AE000AF909F908F907F906F905F904F903F909E
:103AF0002F900895CF92DF92EF92FF920F931F9332
:103B0000CF93DF93CDB7DEB7AF970FB6F894DEBF94
:103B10000FBECDBF7C016A0104E513E01A8309835F
:103B20001C861B8688EE93E0A0E0B0E08D879E8720
:103B3000AF87B88B84EE92E09A878987188F0F8BB6
:103B4000198E1A8E1B8E1C8E84E089A31DA30CA3D4
:103B50001EA21FA218A619A68091A8079091A907D6
:103B6000A091AA07B091AB078CA79DA7AEA7BFA74E
:103B70008B839C83AD83BE8318861F82AE014C5D10
:103B80005F4FCE0101965FDD81309105B1F4D70121
:103B9000ED91FC910684F785E02D1BA70AA78EA165
:103BA0009FA1A8A5B9A58CA79DA7AEA7BFA7A60151
:103BB000BE01665D7F4FC7011995AF960FB6F894A9
:103BC000DEBF0FBECDBFDF91CF911F910F91FF9050
:103BD000EF90DF90CF900895CF93DF931F92CDB7F2
:103BE000DEB76983DC01ED91FC910280F381E02D69
:103BF00041E050E0BE016F5F7F4F19950F90DF915C
:103C0000CF910895FC01818D928D0895FC018489E6
:103C10009589089524E533E0FC0131832083FB017D
:103C20004089518962897389FC014283538364838B
:103C300075830895DC01ED91FC91048CF58DE02DE8
:103C4000199480E00895FC019485FB018485981304
:103C500003C081E0943009F480E0089521E0FC0184
:103C60008485843009F420E0822F08950895CF934D
:103C7000DF931F92CDB7DEB7FC01218D328D232B50
:103C800049F0BE016F5F7F4F808D0E941F288981A0
:103C900090E002C08FEF9FEF0F90DF91CF910895DA
:103CA0000F931F93CF93DF931F92CDB7DEB78C0195
:103CB000DC01ED91FC910084F185E02D1995892BB3
:103CC00051F0BE016F5F7F4FF80184850E941F286D
:103CD000898190E002C08FEF9FEF0F90DF91CF912D
:103CE0001F910F910895CF93DF93FC01218D328DA9
:103CF0002115310519F48FEF9FEF11C0EC01421728
:103D0000530708F0A901888D0E945E28181619062D
:103D100094F7298D3A8D281B390B3A8F298FDF9123
:103D2000CF9108950F931F93CF93DF931F92CDB739
:103D3000DEB7FC01218D328D232B61F08C0141E037
:103D400050E0BE016F5F7F4F808D0E945E28181685
:103D500019061CF08FEF9FEF08C0F801818D928D3E
:103D60000197928F818F898190E00F90DF91CF91A1
:103D70001F910F910895FC0184850C945E28CF93C8
:103D8000DF931F92CDB7DEB741E050E0BE016F5F19
:103D90007F4FFC0184850E945E28181619061CF4CA
:103DA000898190E002C08FEF9FEF0F90DF91CF915C
:103DB00008950F931F93CF93DF93CDB7DEB7289766
:103DC0000FB6F894DEBF0FBECDBF8C01F801818D18
:103DD000928D892B49F0D801ED91FC910284F385F5
:103DE000E02DC8011995F2CF808D0E943E2818164B
:103DF00019065CF548E050E0BE016F5F7F4FD801C7
:103E000058968C910E945E289C0118161906DCF4C5
:103E100089819A81AB81BC81F801808B918BA28BC7
:103E2000B38B8D8190E0982F88272E81820F911D72
:103E3000958B848B2F8130E0322F22278885280FA5
:103E4000311D328F218FC90102C080E090E0289699
:103E50000FB6F894DEBF0FBECDBFDF91CF911F919B
:103E60000F910895AF92BF92CF92DF92FF920F937E
:103E70001F93CF93DF938C015B01EA01FC01C6889D
:103E8000D788F08C80E590E0E2DA8F2D0E94102B2D
:103E90008C179D0720F48F2D0E94102BEC019E01A2
:103EA000A501B6018F2D0E94AD2AD0DAF8018689CE
:103EB00097898C0F9D1F978B868BCE01DF91CF91B9
:103EC0001F910F91FF90DF90CF90BF90AF9008951A
:103ED000CF92DF92EF92FF920F931F93CF93DF93D6
:103EE000CDB7DEB7AF970FB6F894DEBF0FBECDBF2C
:103EF0007C016A0104E513E01A8309831C861B8692
:103F000088EE93E0A0E0B0E08D879E87AF87B88B06
:103F100084EE92E09A878987188F0F8B198E1A8EFC
:103F20001B8E1C8E84E089A31DA30CA31EA21FA2BE
:103F300018A619A68091A8079091A907A091AA0791
:103F4000B091AB078CA79DA7AEA7BFA78B839C831F
:103F5000AD83BE8318861F82AE014C5D5F4FCE01DC
:103F6000019671DB81309105B1F4D701ED91FC919F
:103F70000488F589E02D1BA70AA78EA19FA1A8A5FB
:103F8000B9A58CA79DA7AEA7BFA7A601BE01665D78
:103F90007F4FC7011995AF960FB6F894DEBF0FBEDD
:103FA000CDBFDF91CF911F910F91FF90EF90DF90E8
:103FB000CF900895CF93DF93EC01888D843061F02A
:103FC0000E94AD28E88DF0E0EE0FFF1FE058F94F9A
:103FD0001182108284E0888FDF91CF910895EF9253
:103FE000FF921F93CF93DF93FC01208D243011F0BB
:103FF00080E01CC07B01EC0110E0812F0E9476293B
:10400000811102C0188F05C08831E1F31F5F1430A1
:10401000A1F7888D843061F3FD86EC861A8E198EA7
:1040200020E0A70162E00E94C02881E0DF91CF91EB
:104030001F91FF90EF9008950F931F93CF93DF93FD
:104040001F92CDB7DEB7282F30E02C5F3F4F322FC5
:1040500022278901060F171F4983A9D780EFBFD7F1
:10406000812FBDD7802FBBD74981842FB8D79DD74B
:1040700081E00F90DF91CF911F910F9108950F93E1
:104080001F93CF93DF931F92CDB7DEB790E00496D6
:10409000982F88278C01060F171F89D78FE09FD78D
:1040A000812F9DD7802F9BD780E099D789837DD79B
:1040B00089810F90DF91CF911F910F910895CF9338
:1040C000FC01C08D80E590E0C2D960E270E08C2FE9
:1040D0000E94372A62E070E08C2FD1DF84FD14C08B
:1040E00062E070E08C2FCBDF83FF09C048E162E023
:1040F00070E08C2FA1DFAAD980E090E00DC0A6D996
:1041000080E590E0A4D9E6CF40E162E070E08C2F3A
:1041100093DF9CD981E090E0CF910895CF93DF9316
:10412000C82FD62F472F60E170E086DF4D2F61E169
:1041300070E08C2FDF91CF917FCFFF920F931F9371
:10414000CF93DF93FB01DC0157961C921E9256978A
:104150005896FC908281811109C08381811106C02B
:104160008481811103C085818823D9F041155105CF
:10417000C1F08A01EF0180E590E069D9BE016E5F70
:104180007F4F2F2D30E0922F882744E050E0845F4E
:104190009B4F2CD7B8018F2DC1DF58D981E090E01B
:1041A00002C080E090E0DF91CF911F910F91FF90CE
:1041B0000895FC018485843011F00C94762980E008
:1041C0000895CF93DF93FC0124852430C9F0EC01DE
:1041D000F0DF843181F0882371F0883161F08C3117
:1041E00061F4E881F9810084F185E02DCE01199513
:1041F00021E0892B19F420E001C021E0822F01C0C9
:1042000080E0DF91CF910895CF92DF92EF92FF92FD
:104210001F93CF93DF93FC011485143071F1EC01EF
:1042200080E590E014D968E070E0812F0E94372A81
:104230000DD94AD36B017C01CE01BBDF882399F0F5
:1042400061E070E080E090E007D33ED3DC01CB0179
:104250008C199D09AE09BF09883E9340A105B1059F
:1042600058F38C857AD7EC85F0E0EE0FFF1FE0580D
:10427000F94F1182108284E08C87DF91CF911F91DA
:10428000FF90EF90DF90CF900895FC01538D448D07
:10429000252F30E0842F90E0821B930B541710F0F1
:1042A000CF96089501970895FC01918D828D9817FE
:1042B00061F0828DDF01A80FB11D5D968C91928D0A
:1042C0009F5F9F73928F90E008958FEF9FEF089507
:1042D000FC01918D828D981731F0828DE80FF11DD0
:1042E000858D90E008958FEF9FEF0895FC01918DEB
:1042F000228D892F90E0805C9F4F821B91098F73E4
:104300009927089589E097E0F1DF21E0892B09F4EE
:1043100020E0822F0895FC01848DDF01A80FB11DDC
:10432000A35ABF4F2C91848D90E001968F739927EB
:10433000848FA689B7892C93A089B1898C918064D8
:104340008C93938D848D981306C00288F389E02D99
:1043500080818F7D80830895EF92FF920F931F934A
:10436000CF93DF93EC0181E0888F9B8D8C8D981328
:1043700005C0E889F989808185FD23C0F62E0B8D63
:1043800010E00F5F1F4F0F731127E02E8C8DE81286
:104390000BC00FB607FCFACFE889F989808185FF49
:1043A000F5CFCE01B8DFF2CF8B8DFE01E80FF11D06
:1043B000E35AFF4FF0820B8FEA89FB89808180628C
:1043C00007C0EE89FF896083E889F989808180646C
:1043D000808381E090E0DF91CF911F910F91FF905A
:1043E000EF900895CF93DF93EC01888D8823C1F07F
:1043F000EA89FB89808185FD05C0A889B9898C91EE
:1044000086FD0EC00FB607FCF5CF808185FFF2CF89
:10441000A889B9898C9185FFEDCFCE017CDFE8CFEB
:10442000DF91CF91089580E090E0892B19F06ADF49
:10443000811125C080E090E0892B41F080E090E080
:10444000892B21F00E94000081111CC080E090E0C7
:10445000892B41F080E090E0892B21F00E94000040
:10446000811113C080E090E0892BA1F080E090E002
:10447000892B81F00E94000081110AC008950E94DA
:104480000000D8CF0E940000E1CF0E940000EACFD8
:104490000C940000089590E0FC013197E231F105A1
:1044A00008F04EC08827E658FF4F8F4F0C945049B4
:1044B000809180008F7703C0809180008F7D8093F2
:1044C0008000089580918000877FF9CF84B58F7731
:1044D00002C084B58F7D84BD08958091B0008F7730
:1044E00003C08091B0008F7D8093B00008958091CB
:1044F00090008F7707C0809190008F7D03C08091DE
:104500009000877F8093900008958091A0008F771E
:1045100007C08091A0008F7D03C08091A000877F9D
:104520008093A0000895809120018F7707C080912B
:1045300020018F7D03C080912001877F809320011F
:1045400008953FB7F8948091F3069091F406A091F6
:10455000F506B091F60626B5A89B05C02F3F19F0C9
:104560000196A11DB11D3FBFBA2FA92F982F8827F3
:10457000820F911DA11DB11DBC01CD0142E0660F4E
:10458000771F881F991F4A95D1F70895CF92DF9220
:10459000EF92FF92CF93DF93EC01072E000C880B74
:1045A000990B0E9441456B017C0120E030E040E422
:1045B0005FE30E94A04520E030E048E452E40E941E
:1045C0002C470E949447C617D707D4F020E030E06C
:1045D00040EA5FE3C701B6010E94A04520E030E059
:1045E00048E452E40E942C4720E030E040E85FE3DA
:1045F0000E94C8460E94944721E06C177D070CF486
:1046000020E0822F90E0DF91CF91FF90EF90DF903C
:10461000CF9008958F929F92AF92BF92CF92DF92E8
:10462000EF92FF920F931F93CF93DF937C018B0147
:104630006C0182E0C80ED11C4701E5E08E0E911C92
:10464000C0E0D0E0F60141916F0150E060E070E021
:104650002AE0C8010E949F2F5C016EE2C8010E94FF
:10466000832F8A0D9B1DC80FD91FC814D90451F779
:10467000F701458150E060E070E02AE0C8010E9447
:104680009F2F8C0F9D1FDF91CF911F910F91FF9056
:10469000EF90DF90CF90BF90AF909F908F90089554
:1046A0000E94AA4924E533E0FC0131832083FB0109
:1046B0004081518162817381FC0142835383648311
:1046C000758308951F920F920FB60F9211240BB6A7
:1046D0000F922F933F934F935F936F937F938F939B
:1046E0009F93AF93BF93EF93FF9389E097E013DE1F
:1046F000FF91EF91BF91AF919F918F917F916F91BA
:104700005F914F913F912F910F900BBE0F900FBE75
:104710000F901F9018951F920F920FB60F921124B1
:104720000BB60F922F938F939F93EF93FF93E0918C
:104730001907F0911A078081E0911F07F091200777
:1047400082FD12C09081809122078F5F8F7320912C
:104750002307821751F0E0912207F0E0E75FF84F5E
:10476000958F8093220701C08081FF91EF919F91E7
:104770008F912F910F900BBE0F900FBE0F901F9037
:1047800018951F93CF93DF93282F30E0F901EC5950
:10479000F94F8491F901E451FE4FD491F901EA55A2
:1047A000FE4FC491CC23C1F0162F811174DEEC2F83
:1047B000F0E0EE0FFF1FE65BF94FA591B4918FB7C4
:1047C000F894111105C09C91ED2FE095E92302C0EA
:1047D000EC91ED2BEC938FBFDF91CF911F9108955A
:1047E000CF93DF9390E0FC01E451FE4F2491FC0154
:1047F000EA55FE4F8491882361F190E0880F991F5C
:10480000FC01E05DF94FC591D491FC01E65BF94FE5
:10481000A591B491611109C09FB7F8948881209542
:1048200082238883EC912E230BC0623061F49FB702
:10483000F8943881822F809583238883EC912E2BE6
:104840002C939FBF06C08FB7F894E8812E2B288346
:104850008FBFDF91CF9108958F929F92AF92BF92B9
:10486000CF92DF92EF92FF926B017C016ADE4B01E7
:104870005C01C114D104E104F104E9F062DEDC0161
:10488000CB0188199909AA09BB09883E9340A10563
:10489000B10578F321E0C21AD108E108F10888EEE9
:1048A000880E83E0981EA11CB11CC114D104E10440
:1048B000F10421F7DECFFF90EF90DF90CF90BF9013
:1048C000AF909F908F9008952FB7F8946091EF0666
:1048D0007091F0068091F1069091F2062FBF089535
:1048E0001F920F920FB60F9211242F933F938F9325
:1048F0009F93AF93BF938091EF069091F006A091A4
:10490000F106B091F2063091EE0623E0230F2D3729
:1049100020F40196A11DB11D05C026E8230F0296C3
:10492000A11DB11D2093EE068093EF069093F00633
:10493000A093F106B093F2068091F3069091F406ED
:10494000A091F506B091F6060196A11DB11D8093C8
:10495000F3069093F406A093F506B093F606BF9184
:10496000AF919F918F913F912F910F900FBE0F901C
:104970001F901895CF92DF92EF92FF920F931F93A3
:10498000CF93DF93EC0181E08093880688E68093E3
:10499000ED06109262051092610560E084EB97E0ED
:1049A0000E941E0C80916105813208F045C09091F3
:1049B00060059111FCCF92E09093600591E0909397
:1049C0005F059FEF9093CC061092CB068093CA06AA
:1049D000A9E8B6E029EA36E0F9019E2F921B981764
:1049E00018F49D919193F9CF1092C9068091C90650
:1049F000806D8093C90680915E05813061F41092CC
:104A00005E058091C9068093BB008091BC0083FD48
:104A1000F8CF85EC01C085EE8093BC0080916005E5
:104A20008230E1F38091CC068F3F31F08091CC064B
:104A3000803211F08091CC061092620510926105CF
:104A400010928806809160058111FCCF81E08093EF
:104A5000600580935F059FEF9093CC061092CB0684
:104A600096E09093CA068093C9068091C906806D2E
:104A70008093C90680915E05813061F410925E05D5
:104A80008091C9068093BB008091BC0083FDF8CF64
:104A900085EC01C085EE8093BC008091600581307B
:104AA000E1F38091CB06873018F48091CB0601C0EA
:104AB00087E0A9EAB6E02DEC36E0F9019E2F921BC3
:104AC000981718F49D919193F9CF109264058093F3
:104AD000630584EB97E00E94D30B8F77982F929514
:104AE0009F701AEF082F919F000D112484EB97E01F
:104AF0000E94D30B9C01332794E0359527959A9516
:104B0000E1F7F82E129FF00C112484EB97E00E943D
:104B1000D30B9C01332744E0359527954A95E1F75F
:104B2000E82E129FE00C112484EB97E00E94D30B37
:104B300084EB97E00E94D30B9C01332754E035951A
:104B400027955A95E1F7D82E129FD00C112484EBAB
:104B500097E00E94D30B9C01332764E0359527959D
:104B60006A95E1F7C82E129FC00C112484EB97E0E0
:104B70000E94D30B9C01332774E0359527957A95D5
:104B8000E1F7129F800D11248883C982DA82EB82BB
:104B9000FC820D83CE01DF91CF911F910F91FF9089
:104BA000EF90DF90CF900895FC01DB018C91808322
:104BB00011968C911197818312968C911297828312
:104BC00013968C911397838314968C9114978483F6
:104BD00015968C91858308958F929F92AF92BF9284
:104BE000CF92DF92EF92FF920F931F93CF93DC014E
:104BF0001796CC911797662311F08C2F01C080E097
:104C000018962C91189730E0220F331F2A5E394FE7
:104C100040E050E0BA01F90105911491F80190814A
:104C20009C23981315C06A017B019FEFC91AD90A0A
:104C3000E90AF90A1D968D909D90AD90BC90509711
:104C4000481559056A057B0538F4B701A601E3CF7D
:104C5000342F252FCB0104C030E020E080E090E02D
:104C6000632F722FCF911F910F91FF90EF90DF90E4
:104C7000CF90BF90AF909F908F9008958F929F920A
:104C8000AF92BF92CF92DF92EF92FF920F931F935A
:104C9000CF93DF93DA01CD91DC91FB01848595857B
:104CA000C817D9070CF049C0CE01880F991F02849C
:104CB000F385E02DE80FF91F80809180C170DD271A
:104CC000F1E0CF27209719F484E690E002C08CE948
:104CD0009FEF59016A017801E80EF91EB701C4017E
:104CE00055DC892B89F4E00EF11EB701C4014EDCBE
:104CF000892B69F4B701600F711FC40147DC892B50
:104D0000F9F023E030E005C021E030E002C022E00D
:104D100030E0D5018D919C911197019682179307F0
:104D200044F0F50111821082D6018D919C9111976A
:104D300001968D939C93CE0105C081E090E002C066
:104D40008FEF9FEFDF91CF911F910F91FF90EF9029
:104D5000DF90CF90BF90AF909F908F9008951F925B
:104D60000F920FB60F9211240BB60F922F933F9311
:104D70004F935F936F937F938F939F93AF93BF9363
:104D8000CF93DF93EF93FF932091660530E0F90115
:104D9000EC59F94F8491F901E451FE4FD491F90196
:104DA000EA55FE4FC491CC2399F0811174DBEC2FAE
:104DB000F0E0EE0FFF1FEA5EF94FA591B491EC9180
:104DC000ED2331E020E009F430E0832F922F02C080
:104DD00080E090E020916A0530916B052F5F3F4F96
:104DE00030936B0520936A0520916905253618F0EC
:104DF00026E020936505209165052430D9F128F43B
:104E0000223069F02330D9F060C0253009F453C056
:104E1000263009F05AC021E02093360653C000978F
:104E200009F053C020916A0530916B052436310595
:104E300008F443C010923606109269051DC08130F7
:104E4000910509F042C0E091690521E02E0F209301
:104E50006905F0E020916A0530916B05EE0FFF1FA8
:104E6000EB59FA4F3087278310926B0510926A0531
:104E700024E029C00097B9F4E091690521E02E0FE4
:104E800020936905F0E020916A0530916B05EE0FE3
:104E9000FF1FEB59FA4F3087278310926B05109252
:104EA0006A0523E010C020916A0530916B05253614
:104EB000310558F007C0009741F410926B0510922D
:104EC0006A0503C025E0209365052091680522232B
:104ED000B1F0892B51F480916705882321F08091EE
:104EE000670561E009C02F9A0AC080916705882391
:104EF00029F08091670560E044DC01C02F98FF91A4
:104F0000EF91DF91CF91BF91AF919F918F917F9161
:104F10006F915F914F913F912F910F900BBE0F902A
:104F20000FBE0F901F901895CF92DF92EF92FF92D5
:104F30000F931F93CF93DF93EC017A018B016C01E8
:104F4000C40ED51ECC15DD0579F031D08FE047D0E9
:104F50008D2F45D08C2F43D0219680E040D0F80192
:104F600081938F0122D0EECFC701DF91CF911F91A6
:104F70000F91FF90EF90DF90CF90089508951F93C9
:104F8000CF93DF93182F66E270E079D8C82FD0E076
:104F900067E270E0812F73D8DC2FCC279E01282B8D
:104FA000C901DF91CF911F9108952C9A08952C98F3
:104FB00008951F93CF93DF93182F60E270E05FD8BE
:104FC000C82FD0E061E270E0812F59D8DC2FCC27C8
:104FD0009E01282BC901DF91CF911F9108958EBDAD
:104FE00000000DB407FEFDCF8EB50895CF92DF927D
:104FF000EF92FF920F931F93CF93DF93EC017A010F
:105000008B016C01C40ED51ECC15DD0571F0CFDF10
:1050100080EFE5DF8D2FE3DF8C2FE1DF2196F801B4
:1050200081918F01DCDFC1DFEFCFC701DF91CF912D
:105030001F910F91FF90EF90DF90CF9008951F93F5
:10504000CF93DF931F921F92CDB7DEB7182F80E565
:1050500090E069837A830E94271A21E041E050E0C2
:1050600069817A81812F13D20E94261A81E090E013
:105070000F900F90DF91CF911F910895FF920F93A2
:105080001F93CF93DF93F82E80E590E00E94271ABC
:10509000C0E0D0E08F2D73DF8C01892B19F08F2DAC
:1050A0006EDFEC01C017D107A9F70E94261ACE01C6
:1050B000DF91CF911F910F91FF900895AF92BF9212
:1050C000CF92DF92EF92FF921F93CF93DF93182F2F
:1050D0005B017A0180E590E00E94271AC0E0D0E0F1
:1050E000812F4DDF6C01892B19F0812F48DFEC01F6
:1050F000CC15DD05A9F7209799F463E070E0812FC6
:105100000E943F208431E1F08823D1F0C1E0D0E05B
:105110008C3111F4C0E0D0E0D195C195D10910C017
:10512000EC16FD060CF4E7011C161D064CF420E0FD
:10513000AE01B501812FABD160E470E0812F97D132
:105140000E94261ACE01DF91CF911F91FF90EF9020
:10515000DF90CF90BF90AF900895CF93C82F80E598
:1051600090E00E94271A60E170E08C2F80D14FEF11
:1051700062E070E08C2F0E941C20CF910C94261AC4
:10518000FF920F931F93CF93DF931F921F92CDB780
:10519000DEB7F82E8A012A836983DFDF80E590E09D
:1051A0000E94271A2A816981462F422B60E070E015
:1051B0008F2D0E941C200115110551F40091F70656
:1051C0001091F8060F5F1F4F1093F8060093F70633
:1051D000412F64E070E08F2D0E941C20402F65E07D
:1051E00070E08F2D0E941C2061E070E08F2D3FD178
:1051F0000E94261A81E00F900F90DF91CF911F91AE
:105200000F91FF900895BF92CF92DF92EF92FF929D
:105210000F931F93CF93DF9300D000D0CDB7DEB7AD
:10522000FC01208D243009F050C06A017B018C0103
:10523000B12C63E070E08B2D0E943F20811103C0F0
:10524000F801B08E06C08831D9F3B394F4E0BF12F0
:10525000F0CFF801808D8430C1F196E0E8E0F3E012
:10526000DE01119601900D929A95E1F7F701938175
:105270009F779C8394819D8395819E83B7016E5F08
:105280007F4F90E0982F882744E050E0845F9B4F49
:10529000ADDEB601F801808D0E948E20F801808D70
:1052A00090E0982F882746E050E0BE016F5F7F4F67
:1052B0008A5F9B4F9BDEF801128E118E20E8A601BB
:1052C00062E0808D5DDF81E001C080E026960FB650
:1052D000F894DEBF0FBECDBFDF91CF911F910F912C
:1052E000FF90EF90DF90CF90BF9008951F93CF93E2
:1052F000DF931F92CDB7DEB7182F80E590E00E94B4
:10530000271A63E070E0812F0E943F2089830E946A
:10531000261A89810F90DF91CF911F9108950F93E5
:105320001F93CF93DF938C01C0E0D0E0F801EC0F26
:10533000FD1F6491662371F0E0910907F0910A075F
:105340000190F081E02D89E097E01995892B11F00B
:105350002196ECCFCE01DF91CF911F910F9108954F
:10536000CF93DF93DCDFEC016AEC74E089E097E037
:10537000D1D58C0F9D1FDF91CF910895CF92DF92F1
:10538000EF92FF920F931F93CF93DF936B01770FF1
:10539000EE08FF08F7FE19C0EC016DE2B4D58C01F0
:1053A00044275527BA014C195D096E097F092AE087
:1053B000CE01C5D5800F911FDF91CF911F910F9125
:1053C000FF90EF90DF90CF9008952AE0B701A601FB
:1053D000DF91CF911F910F91FF90EF90DF90CF90D1
:1053E000AEC5CF93DF93BC0189E097E093D5EC0184
:1053F0006AEC74E089E097E08DD58C0F9D1FDF91FA
:10540000CF910895CF92DF92EF92FF92CF93DF93E7
:105410006C01990FEE08FF08F7FE14C06DE289E0F9
:1054200097E071D5EC0144275527BA014C195D0965
:105430006E097F092AE089E097E081D57C01EC0EB6
:10544000FD1E07C02AE0B701A60189E097E077D5E5
:105450007C016AEC74E089E097E05CD58E0D9F1DBD
:10546000DF91CF91FF90EF90DF90CF900895CF9391
:10547000C82F462F61E070E00E941C2061E070E0C0
:105480008C2F0E943F208111F9CFCF9108958F92E8
:105490009F92AF92BF92CF92DF92EF92FF920F93C3
:1054A0001F93CF93DF93B82E4B018A01A22E68E29F
:1054B00070E00E943F20C82FD0E069E270E08B2DA1
:1054C0000E943F20DC2FCC27C82B9E013770CB2CAD
:1054D000D12CC601880F991FAC014F5F584F6A014C
:1054E000FA0180819181820F931FA801420F531FFF
:1054F0004130584090F060E078E07B01E21AF30A16
:10550000A701B40111DDA8014E195F09B4016E0DA8
:105510007F1DF6018081918102C0A801B40104DDE4
:10552000A1100EC0C00FD11F4D2F68E270E08B2D6F
:105530000E941C204C2F69E270E08B2D0E941C20E1
:10554000DF91CF911F910F91FF90EF90DF90CF905F
:10555000BF90AF909F908F9008959F92AF92BF920F
:10556000CF92DF92EF92FF920F931F93CF93DF932F
:10557000982E8B015A01690164E270E00E943F207D
:10558000E82EF12C65E270E0892D0E943F20FE2C70
:10559000EE24E82AE701C00FD11F9E013770E92CE5
:1055A000F12CC701880F991FAC014750594F7A0160
:1055B000FA0180819181820F931FA9014C0D5D1D1D
:1055C0004130584088F000E018E0021B130BA8019E
:1055D000B5010CDDA601401B510BB501600F711F19
:1055E000F7018081918102C0A601B501FFDCCC0DDD
:1055F000DD1D4D2F64E270E0892D0E941C204C2F90
:1056000065E270E0892DDF91CF911F910F91FF909E
:10561000EF90DF90CF90BF90AF909F900C941C20A4
:10562000FF920F931F93CF93DF93F82EC0E0D0E04B
:105630008F2DBFDC8C01892B19F08F2DBADCEC018A
:10564000C017D107A9F7CE01DF91CF911F910F911C
:10565000FF900895CF92DF92EF92FF920F931F93E6
:10566000CF93DF93EC016B01F42E0E94B8158823D1
:1056700091F187EC97E074DEB601CE01E11003C032
:105680000E94D91506C00296A2D4B60189E097E01F
:105690009ED46DE977E0CE010E94D915FF2019F064
:1056A000CE010E94881569E877E0CE010E94D915E5
:1056B00068E677E0CE010E94D9156EE477E0CE016E
:1056C0000E94D915CE01F8011995CE010E94FA1554
:1056D0008BE497E002C089E397E0DF91CF911F91BF
:1056E0000F91FF90EF90DF90CF903ACE8F929F92E4
:1056F000AF92BF92CF92DF92EF92FF920F931F93E0
:10570000CF93DF93CDB7DEB7C054D1400FB6F89436
:10571000DEBF0FBECDBF8C01D7D8F801C184D284C3
:10572000E384F4849B01AC012C193D094E095F0907
:1057300069017A0130EDC31637E0D306E104F104C4
:1057400010F48189AAC0F8016187728783879487E2
:105750001482138212821182108261E0858111D835
:105760006AEF70E080E090E077D861E0F801858131
:1057700037D860E0F801858104D864E170E080E00A
:1057800090E06AD8F89461E0F80185810E94C12315
:105790008BE990E00197F1F762E0F801858120D86C
:1057A00083E290E00197F1F760E0C80115DA672B1A
:1057B000682B692B21F4F801118A78943FC061E0CD
:1057C000C8010ADA672B682B692BA9F39E012F5FAA
:1057D0003F4F79015E013FEBA31A3EEFB30A670129
:1057E00060E0C801F9D9F6016083718382839383F5
:1057F00061E0C801F1D9F6016483758386839783DC
:10580000F8E0CF0ED11CCA14DB0451F7789420E0E5
:1058100030E0F701408151816281738184809580FD
:10582000A680B780411551056105710529F08114E5
:105830009104A104B10421F4F801118A80E02DC083
:10584000F90183E0F595E7958A95E1F7E00FF11FFF
:105850008081880F481559056A057B0508F4816029
:1058600080832F5F3F4FF8E0EF0EF11C28323105A7
:1058700081F6F801248130E04081818190E0840F3D
:10588000911D4281840F911D4381840F911D9927A1
:105890002817390789F681E0818BC05CDE4F0FB68F
:1058A000F894DEBF0FBECDBFDF91CF911F910F9156
:1058B000FF90EF90DF90CF90BF90AF909F908F9030
:1058C00008950F931F9300D86093110770931207E8
:1058D0008093130790931407E0910907F0910A074A
:1058E0000484F585E02D89E097E0199597FF1FC0A6
:1058F0000E94642400911107109112072091130750
:1059000030911407DC01CB01801B910BA20BB30B70
:1059100000910D0710910E0720910F07309110078D
:1059200080179107A207B307B8F28FEF9FEF1F917F
:105930000F9108952F923F924F925F926F927F92B4
:105940008F929F92AF92BF92CF92DF92EF92FF928F
:105950000F931F93CF93DF93CDB7DEB72D970FB67D
:10596000F894DEBF0FBECDBF3C018DA18C879EA1F8
:105970009D875F834E83DB86CA869986888660E230
:1059800077E0C301FA0119954C01EBA1FCA18081DC
:1059900090E08053984F9F938F9385E295E09F937B
:1059A0008F93CE0101966C019F938F930E94C24901
:1059B000B601C301F8011995880E991E6CE177E0D4
:1059C000C301EE81FF811995880E991E0F900F90EB
:1059D0000F900F900F900F90A12CB12C85E2282EE4
:1059E00085E0382EA114B10451F4EBA1FCA1818112
:1059F000482E512CFAE04F1651043CF10FC181E0C2
:105A0000A816B10451F4EBA1FCA18281482E512CBF
:105A1000FAE04F165104CCF016C182E0A816B1048A
:105A200021F4EBA1FCA143800BC0F3E0AF16B1045D
:105A300021F4EBA1FCA1448003C0EBA1FCA14580B3
:105A4000512CFAE04F1651043CF56EE177E0C301AA
:105A5000EE81FF8119955F924F923F922F92DF92D4
:105A6000CF920E94C249B601C301F8011995880E70
:105A7000991E0F900F900F900F900F900F90A11400
:105A8000B10419F46CE177E021C0F1E0AF16B10484
:105A9000B9F46AE177E01AC05F924F923F922F9279
:105AA000DF92CF920E94C249B601C301F801199555
:105AB000880E991E0F900F900F900F900F900F90DF
:105AC000F4E0AF16B10441F068E177E0C301EE8184
:105AD000FF811995880E991EFFEFAF1ABF0A85E066
