:10000000D4C3000003C4000001C40000FFC300000B
:10001000FDC30000FBC30000F9C30000F7C30000EC
:10002000F5C30000F3C30000F1C30000EFC30000FC
:10003000EDC300000C945522E9C30000E7C30000A3
:10004000E5C30000E3C30000E1C30000DFC300001C
:10005000DDC30000DBC30000D9C300000C941620F0
:10006000D5C300000C94311F0C94081FCFC30000AF
:10007000CDC30000CBC30000C9C30000C7C300004C
:10008000C5C30000C3C30000C1C30000BFC300005C
:10009000BDC30000BBC30000B9C300000C948509B8
:1000A000B5C30000B3C30000B1C30000AFC300007C
:1000B000ADC30000ABC30000A9C30000A7C300008C
:1000C000A5C30000A3C30000A1C300009FC300009C
:1000D0009DC300009BC3000099C3000097C30000AC
:1000E00095C300002310880F930FC70F880FE30FED
:1000F0000610860F0C1E0F1EFE1D021E081E461E39
:10010000131E171E1D1E211E251E2B1E2F1E331EE5
:10011000461E391E3D1E411E1F1C1F1E1F1E1F1F77
:100120001E1F1E1F05050505070508080808020211
:1001300002020A0A08080404040401010101010181
:1001400001010303030303030303040707070C0C64
:100150000C0C0C0C0C0C020202020606060606062B
:1001600006060B0B0B0B0B0B0B0B010210202008D0
:100170000810204010204080020102010804020102
:100180000102040810204080804020100804020171
:1001900080040201804020100804020108040201CA
:1001A0000102040810204080010204081020408051
:1001B000646F6E652E00496E697469616C6973695C
:1001C0006E672044485432322073656E736F722E0E
:1001D0002E2E0900646F6E652E00496E6974696188
:1001E0006C6973696E6720495272656D6F74652022
:1001F00073656E736F722E2E2E0900646F6E652EFE
:1002000000496E697469616C6973696E6720525444
:100210004320636F6D6D756E69636174696F6E7392
:100220002E2E2E0900536574757020636F6D706CEF
:10023000657465210057726F6E672072656D6F740B
:1002400065210020485454502F312E310D0A0047AB
:100250004554202F6170692F436F64652F6C617462
:100260006573742F002C22616374696F6E4E616D2B
:10027000650022616374696F6E223A005055542004
:100280002F6170692F436F64652F6C61746573749F
:1002900020485454502F312E310D0A002F737461B1
:1002A00074757320485454502F312E310D0A00506C
:1002B0005554202F6170692F4465766963652F005E
:1002C0002200504F5354202F6170692F6163636F78
:1002D000756E7420485454502F312E310D0A00444D
:1002E00048435020726562696E643A207375636397
:1002F000657373004448435020726562696E643AC6
:10030000206661696C656400444843502072656EE4
:100310006577616C3A207375636365737300444855
:1003200043502072656E6577616C3A206661696C36
:10033000656400444843502072656E6577616C3A8D
:10034000206E6F7468696E672068617070656E6595
:1003500064004469646E27742077726974652C2088
:10036000746861742773207768617420796F7520D1
:1003700077616E7465642C2072696768743F007BD6
:1003800022456D61696C223A2261646D696E40613B
:10039000646D696E2E6F7267222C225061737377C1
:1003A0006F7264223A2241646D696E5F70726F6A87
:1003B000656B7430222C2252656D656D6265724DDD
:1003C00065223A2266616C7365227D0D0A00436FD7
:1003D0006E74656E742D4C656E6774683A200064A7
:1003E0006973636F6E6E656374696E672E0064690E
:1003F00073636F6E6E656374696E672E00504F5342
:1004000054202F6170692F656E747279204854549E
:10041000502F312E310D0A003B003A003A002000E7
:100420002F002F002D2D2D2D2D2D2D2D2D2D2D2D52
:100430002D2D2D2D002D2D2D2D2D2D2D2D2D2D2D19
:100440002D2D2D2D2D00474C4F42414C204C4F431C
:100450004B204F46462E00474C4F42414C204C4FBC
:10046000434B204F4E2E004C696768742061646DC9
:10047000696E206D6F6465204F46462E004C69679B
:1004800068742061646D696E206D6F6465204F4EE5
:100490002E00437573746F6D206D6F64653A206C28
:1004A00069676874204F46462E00437573746F6DFC
:1004B000206D6F64653A206C69676874204F4E2E1A
:1004C00000486561742061646D696E206D6F6465BC
:1004D000204F46462E00486561742061646D696E48
:1004E000206D6F6465204F4E2E00437573746F6DE1
:1004F000206D6F64653A2068656174696E67204F8E
:1005000046462E00437573746F6D206D6F64653AB7
:100510002068656174696E67204F4E2E00576174C4
:100520006572696E672061646D696E206D6F6465C8
:10053000204F46462E005761746572696E672061D0
:10054000646D696E206D6F6465204F4E2E0043759B
:1005500073746F6D206D6F64653A20776174657296
:10056000696E67204F46462E00437573746F6D2089
:100570006D6F64653A207761746572696E67204FAC
:100580004E2E0046616E2061646D696E206D6F6451
:1005900065204F46462E0046616E2061646D696E8F
:1005A000206D6F6465204F4E2E0000002000230058
:1005B000260029002C002F0032000001000003015A
:1005C0000601090100002100240027002A002D0057
:1005D0003000330001010000040107010A0100009E
:1005E0002200250028002B002E00310034000201DB
:1005F0000000050108010B0100000A0B02090C0DA7
:100600000E080703040100000000000000000000C5
:1006100000000000000000000000000000000000DA
:100620000000000012111000000000000000000097
:1006300000000000000000000000000000000D0AA3
:10064000007D0D0A007B225374617465223A0022FA
:100650007D0D0A007D2C22646576696365496422FC
:100660003A22002C224C69676874537461746522C5
:100670003A002C2241697254656D7065726174751F
:100680007265223A00222C2241697248756D6964B4
:10069000697479223A002C22536F696C4465736344
:1006A00072697074696F6E223A2200222C22536F95
:1006B000696C4D6F697374757265223A003A002057
:1006C000002D0030007B226D656173757265223AE2
:1006D0007B224461746554696D65223A2200636F20
:1006E0006E6E656374696F6E206661696C65640027
:1006F0006F6B0043616368652D436F6E74726F6C3E
:100700003A206E6F2D63616368650D0A00436F6E5A
:1007100074656E742D547970653A206170706C69DF
:10072000636174696F6E2F6A736F6E0D0A00436F99
:100730006E6E656374696F6E3A20636C6F73650DDE
:100740000A00486F73743A206761726475696E6F4E
:1007500070726F6A6563742E617A7572657765620F
:1007600073697465732E6E65740D0A004D616B6557
:10077000206120485454502072657175657374204F
:100780002E2E2E2000227D0D0A00222C226465765A
:100790006963654964223A22007B2264617465546E
:1007A000696D65223A220000F44311241FBECFEF89
:1007B000D1E2DEBFCDBF00E00CBF15E0A0E0B2E0AB
:1007C000E8E7F8E900E00BBF02C007900D92A83BF4
:1007D000B107D9F728E0A8EBB5E001C01D92A43617
:1007E000B207E1F713E0C5EDD3E000E006C02197C2
:1007F0000109802FFE010E94FF48C43DD10780E01F
:100800000807A9F70E9400300C943A4CF9CB80E31A
:10081000FB0180833296842F82958F7090E1899FAF
:10082000401911244A3014F4405D01C0495C4293E0
:10083000482F8111F0CF089585ED8093BC00809101
:10084000BC0084FDFCCF1092BA0508954091B50616
:10085000262F30E0240F311D21323105DCF42091A8
:10086000BA052430C9F4FC0180E090E0861758F402
:100870003091B5062191DC01AD56B94FA30FB11DE2
:100880002C930196F3CF8091B506680F6093B5065F
:1008900080E0089581E0089582E008950895E09150
:1008A000BE058091BD05E81730F4F0E0E95DF84F32
:1008B000808190E008958FEF9FEF08959091BE059D
:1008C0008091BD05981750F4E92FF0E0E95DF84FED
:1008D000208130E09F5F9093BE0502C02FEF3FEF75
:1008E000C90108958091BD0590E02091BE05821B4D
:1008F00091090895CF92DF92EF92FF920F931F9389
:10090000CF93DF937C01262F972F8A018091E206F7
:10091000882391F0C62FD72F6E01C40ED51ECC159B
:10092000DD0569F06991D701ED91FC910190F081AD
:10093000E02DC7011995F3CF642F822F87DFC801FF
:10094000DF91CF911F910F91FF90EF90DF90CF90AB
:100950000895CF93DF931F92CDB7DEB769832091BF
:10096000E2062223D1F02091BB05203240F021E0A5
:1009700030E0FC013383228380E090E014C080915A
:10098000BC05E82FF0E0ED51F94F998190838F5F1E
:100990008093BC058093BB0504C061E0CE01019645
:1009A00055DF81E090E00F90DF91CF910895089599
:1009B00080E090E008952F923F924F925F926F9265
:1009C0007F928F929F92AF92BF92CF92DF92EF92DF
:1009D000FF920F931F93CF93DF93CDB7DEB7E397CB
:1009E0000FB6F894DEBF0FBECDBF7C011A012B01FC
:1009F00039010E940A204B015C0187010D5B1F4FEA
:100A0000C8010E947F1A18161906A4F00E940A2035
:100A1000DC01CB0188199909AA09BB0928163906F6
:100A20004A065B06D8F062E370E080E090E00E9446
:100A3000D21FE6CF42E250E0BE016F5F7F4FC80198
:100A40000E94191A8981823011F080E061C1F80199
:100A50008489958983349105C1F702C08FEF58C10D
:100A60006D817E818F8198850E9407494B015C01D1
:100A7000F301608371838283938346E050E0B70182
:100A8000685F7F4FCE014D960E945D49892BE9F644
:100A9000F70180819181A281B38188169906AA0607
:100AA000BB0698F284819581A681B7818815990546
:100AB000AA05BB0550F289899A89AB89BC898687CA
:100AC0009787A08BB18B8EECA82EB12CC8010E9409
:100AD000381AF1E0AF1AB108C9F719A6670182E226
:100AE000C80ED11CF701B696FBA7EAA7C7018A96E4
:100AF0009DA78CA73C974F0189969FA78EA73897F3
:100B0000F9ABE8AB1701F6E12F0E311CC5979BAB93
:100B10008AABF801818D928D181619060CF0F7C07A
:100B2000C8010E94381A8333910509F4CBC0FCF444
:100B300081309105C9F11CF4892B59F3DCC0833055
:100B40009105D1F1069709F0D6C0C8010E94381A64
:100B50005C0144E050E06AA97BA9C8010E94191A0F
:100B6000412C512CBB24F4E0AF1AB10840C08A33A9
:100B7000910509F47BC03CF48533910569F0C69773
:100B800009F440C0B8C08B33910509F485C08F3F8C
:100B9000910509F4BECFAFC0C8010E94381AC80140
:100BA0000E94381A89A7B5CFC8010E94381A44E0BC
:100BB00050E068A979A93AC0C8010E94381A5C01BE
:100BC00044E050E0B101C8010E94191A412C512C97
:100BD000BB2494E0A91AB1084A145B040CF099CF25
:100BE000C8010E94381AEFEF4E1A5E0AF5CF4A1478
:100BF0005B040CF08ECFC8010E94381A8FEF481AA0
:100C0000580AF5CFC8010E94381AB82EF701828D14
:100C1000811110C0838D81110DC0848D81110AC096
:100C2000858D811107C044E050E0B401C8010E94E5
:100C3000191A6FCFEEA5FFA54080518062807380A6
:100C4000B401CE0183960E94F81E8DA19EA1AFA192
:100C5000B8A584159505A605B70529F3BB2009F4A9
:100C600058CFC8010E94381ABA94F8CFC8010E9420
:100C7000381A44E050E06AA57BA5C8010E94191A01
:100C8000F70166A177A180A591A50E94074966A3F7
:100C900077A380A791A73DCFC8010E94381A44E0EE
:100CA00050E06CA57DA5C8010E94191AF70162A544
:100CB00073A584A595A50E94074962A773A784A779
:100CC00095A727CFC8010E94381A44E050E0B6012A
:100CD000C8010E94191AF70162A173A184A195A10C
:100CE0000E94074962A373A384A395A366A777A76D
:100CF00080AB91AB0ECFC8010E94381AB82EBB2032
:100D000009F407CFC8010E94381ABA94F8CF89A510
:100D1000E3960FB6F894DEBF0FBECDBFDF91CF9143
:100D20001F910F91FF90EF90DF90CF90BF90AF9009
:100D30009F908F907F906F905F904F903F902F90FB
:100D400008957F928F929F92AF92BF92CF92DF923F
:100D5000EF92FF920F931F93CF93DF93CDB7DEB740
:100D6000A6970FB6F894DEBF0FBECDBF8C01762ECE
:100D7000942E852E20E2B22ECE0101967C01FC013C
:100D80002B2D11922A95E9F788E693E09AA389A37F
:100D90008FEF8BA38CA38DA38EA3680183E4C80E71
:100DA000D11C43E450E0BE016F5D7F4FC6010E943D
:100DB000431C019609F4BCC081E089838A8386E0E4
:100DC000A82EAB821C82F80164817581868197818F
:100DD0000E9407496D837E838F83988789869A86D0
:100DE00080E890E09C878B874CE150E0B701C6011A
:100DF0000E94D81AF7012B2D11922A95E9F7480184
:100E000088E0880E911CF401D70101900D92AA94FC
:100E1000E1F740E150E0B701C6010E94D81AF7019E
:100E20001192BA94E9F796E0A92EB12C40E250E075
:100E3000B701C6010E94D81AF1E0AF1AB108B1F7A4
:100E400083E6898392E89A8393E59B838C8385E389
:100E50008D8381E08E837F829DE3988797E09987D9
:100E60008A8786E0F401DE011B9601900D928A9537
:100E7000E1F78CE0898B8A8B67E175E0CE014396C0
:100E80000E946A49F8014385BE01675E7F4FC80131
:100E9000BEDCF8014485BE01655E7F4FC801B7DC4A
:100EA000F8014585BE01635E7F4FC801B0DC4EE1AD
:100EB00050E0B701C6010E94D81AF3E07F121EC0AD
:100EC00082E3898384E08A83F80196859B839785F2
:100ED0009C8390899D8391899E8396E39F838887D5
:100EE000828D8987838D8A87848D8B87858D8C877A
:100EF0004CE050E0B701C6010E94D81A87E389830D
:100F000086E08A8391E09B8393E09C838D838FE0CE
:100F10008E838AE38F838BE388878FEF898749E00D
:100F200050E0B701C6010E94D81AC6010E94051CF4
:100F3000A6960FB6F894DEBF0FBECDBFDF91CF915E
:100F40001F910F91FF90EF90DF90CF90BF90AF90E7
:100F50009F908F907F900895EF92FF920F931F9331
:100F6000CF93DF931F92CDB7DEB78C017B01FB01DE
:100F7000608169830E9468476981681719F0C80118
:100F80000E947047C7010F90DF91CF911F910F9181
:100F9000FF90EF9008950F931F93CF93DF93EC0191
:100FA0006EEC73E00E940F296FE773E0CE010E94A0
:100FB000DA268C01BC01CE0102960E946525B8019B
:100FC00083E697E00E946525CE010E942E29CE017E
:100FD0000E942E296FE773E0CE01DF91CF911F9120
:100FE0000F910C9406272F923F924F925F926F922F
:100FF0007F928F929F92AF92BF92CF92DF92EF92A9
:10100000FF920F931F93CF93DF93CDB7DEB7279750
:101010000FB6F894DEBF0FBECDBF8C010E941E46F6
:101020002FEC37E040E050E00E947E47DC01CB012E
:101030000196A11DB11DF80184839583A683B78312
:1010400080839183A283B3835801F3E4AF0EB11C74
:10105000C5010E94801B64E470E0C5010E94951BDD
:10106000882309F437C10E940A202B013C01812CFE
:10107000912C1D82C8018E5B9F4F9F838E8343E01E
:10108000342E58EEC52E53E0D52EE12CF12C62E023
:10109000262EAE81BF818C91833009F402C181116B
:1010A0001FC0F80184819581A681B7810196A11D99
:1010B000B11D84839583A683B7830E940A20641997
:1010C000750986099709A70196010E94AA47A901F7
:1010D00061E0C80136DE81E0AE81BF818C93C2C081
:1010E0008430F1F4F80184819581A681B78101965D
:1010F000A11DB11D84839583A683B7830E940A2016
:101100006419750986099709A70196010E94AA47E3
:10111000A90163E0C80115DEAE81BF812C92A2C097
:10112000813051F5F80142AD53AD64AD75AD9E010E
:101130002F5F3F4FC8013FDC8D83823009F092C0A2
:1011400089819A81AB81BC81F80184839583A683D0
:10115000B7830E940A206419750986099709A701B7
:1011600096010E94AA47A90163E0C801EADDED816A
:10117000AE81BF81EC937DC0823009F073C0D8018D
:10118000DA964D915D916D917C91DD979E012F5F77
:101190003F4FC80110DC8D83853009F05CC0EE81C3
:1011A000FF813082F80182A193A1A4A1B5A1892B6E
:1011B0008A2B8B2B41F484E893E0A0E0B0E082A37B
:1011C00093A3A4A3B5A3F80186A197A1A0A5B1A557
:1011D000892B8A2B8B2B61F482A193A1A4A1B5A1A9
:1011E000B695A7959795879586A397A3A0A7B1A72E
:1011F000F80182A593A5A4A5B5A5892B8A2B8B2BD5
:10120000A9F482A193A1A4A1B5A1AC01BD0123E0E1
:1012100076956795579547952A95D1F7841B950B39
:10122000A60BB70B82A793A7A4A7B5A7F80186A121
:1012300097A1A0A5B1A586A797A7A0ABB1AB82A5A2
:1012400093A5A4A5B5A582AB93ABA4ABB5AB8824FD
:101250008394912C0EC0FD81F63021F4AE81BF81C4
:101260001C9207C0BD81BF3F21F4EE81FF81108237
:101270001D82F1E08F16910409F40BCF0E940A2021
:10128000DC01CB0184199509A609B709F80126A943
:1012900037A940AD51AD281739074A075B0708F059
:1012A000F8CEC5010E94801BF80184819581A6813A
:1012B000B7810196A11DB11D84839583A683B78351
:1012C0000E940A20F801FE966083718382839383D3
:1012D000C40102C080E090E027960FB6F894DEBF0C
:1012E0000FBECDBFDF91CF911F910F91FF90EF9077
:1012F000DF90CF90BF90AF909F908F907F906F9036
:101300005F904F903F902F9008951F920F920FB6CD
:101310000F9211240BB60F922F933F934F935F932D
:101320006F937F938F939F93AF93BF93EF93FF93AD
:101330008091B900887F803609F49CC068F58832B6
:1013400009F45BC090F4803109F454C038F4882368
:1013500009F4F6C0883009F44DC0F5C0883109F4AD
:101360004CC0803209F45DC0EEC0803409F468C01E
:1013700048F4803309F455C0883309F0E4C0809301
:101380002607D8C0803509F44FC0883509F45DC000
:10139000883409F0D8C0D6C0883909F4C7C0A8F489
:1013A000883709F467C038F4883609F463C0803799
:1013B00009F460C0C8C0883809F4B8C0803909F49D
:1013C0005FC0803809F0BFC05BC0803B09F486C0B5
:1013D00038F4803A09F466C0883A09F47FC0B3C093
:1013E000803C09F4A7C0883C09F4A4C0883B09F4F8
:1013F0008AC0A9C08091230710C0909125078091D1
:101400002407981770F5E091250781E08E0F8093EF
:101410002507F0E0ED5FF84F80818093BB0085ECFD
:1014200086C0809326078EC0E091250781E08E0F4D
:10143000809325078091BB00F0E0ED5FF84F80833B
:1014400090912507809124076EC0E091250781E0E7
:101450008E0F809325078091BB00F0E0ED5FF84F81
:1014600080838091B90581116DC081E08093B805BA
:1014700084EA61C083E08093BA051092D906CFCF89
:101480008091D906803208F051C0E091D90681E000
:101490008E0F8093D9068091BB00F0E0E754F94F9E
:1014A0008083BDCF85EC8093BC001092BA058091FB
:1014B000D906803230F4E091D906F0E0E754F94FD4
:1014C00010826091D90670E0E091B706F091B806FD
:1014D00089EB96E019951092D90635C084E0809387
:1014E000BA051092B6061092B506E091B306F091D7
:1014F000B40619958091B506811105C081E08093ED
:10150000B50610929306E091B60681E08E0F8093A7
:10151000B606F0E0ED56F94F80818093BB009091C4
:10152000B6068091B506981708F479CF85E88093C0
:10153000BC0009C085EC8093BC001092BA0503C0C2
:101540001092260779D9FF91EF91BF91AF919F91AA
:101550008F917F916F915F914F913F912F910F905C
:101560000BBE0F900FBE0F901F901895CF93DF9377
:10157000EB010E9468478883CE01DF91CF910895E7
:101580002F923F924F925F926F927F928F929F9293
:10159000AF92BF92CF92DF92EF92FF920F931F9381
:1015A000CF93DF93CDB7DEB7A9970FB6F894DEBF20
:1015B0000FBECDBF5C014B015DA34CA33AA329A391
:1015C0000BA3E8A6DFA2CEA219821A821B821C827C
:1015D000FE0135968AE1DF011D928A95E9F7C50182
:1015E0000E94DA26282E00E010E0312CD12CC12CEC
:1015F0007501B2E0EB0EF11CC7010E94871C882325
:1016000009F481C0C7010E94C315892BA9F3C70142
:101610000E94651A8F8FC11070C0282F082E000CF1
:10162000330B632C712CF401E60DF71D449150E04F
:101630002417350719F4DD2009F4D4C0E491F0E053
:101640002E173F0709F4F9C0DD2009F4F4C04BA1BF
:10165000442309F4D5C0BE01615E7F4F8EA19FA1D6
:10166000800F911F79DC0F5F1F4F8F8D082E000CAC
:10167000990BECA1FDA1E60DF71D249130E0821736
:10168000930709F0B9C0E491F0E08E179F0709F0C5
:10169000B4C03394321408F4B0C0222D30E04BA112
:1016A000442309F4BDC08EA19FA1800F911F48A5BE
:1016B000442309F4ADC02C01421A530A84EBC82E0E
:1016C00082E0D82E320184E0680E711CD6016D9143
:1016D0006D01C20169A70E94684769A5681719F0E2
:1016E000C2010E947047BFEF4B1A5B0A46145704B1
:1016F00069F7DD24D394CC24C3946F8D83E697E0FF
:101700000E949B2F7FCF1E8E8EEE93E00E94562567
:10171000C7010E94AA1C6EE175E083E697E00E9473
:10172000FF2FCE0101960E949B254BA1411135C090
:1017300029818E010E5F1F4FF80180E090E0222387
:1017400029F0203209F001962191F9CF0E94AE25AF
:10175000298180E090E0222339F0203209F00196BF
:10176000D8012D918D01F7CF892B89F08DE295E07D
:101770000E949B25CE0101960E942A46E9A1FAA16A
:101780009183808385E395E00E949B2506C084EFCA
:1017900091E0A9A1BAA18D939C936CE375E083E6D7
:1017A00097E00E94FF2FE9A1FAA1808191810E9418
:1017B000AE25A9960FB6F894DEBF0FBECDBFDF9160
:1017C000CF911F910F91FF90EF90DF90CF90BF903E
:1017D000AF909F908F907F906F905F904F903F90D1
:1017E0002F9008953394321408F487CF6CA17DA113
:1017F000C5010E94DA26282E312CDD24D3947DCF1A
:10180000E1E0F0E0EC0FFD1FE00FF11F80832BCF34
:1018100018A2BE01605E7F4F821B930B9DDB69CFD8
:10182000F801E21BF30B81E090E08C0F9D1FE80FA5
:10183000F91F10825ECF312C60CFDD2009F45DCF1F
:1018400006CFCF93DF93EC012296CE010E94871C36
:10185000882371F0CE010E94C315892BB1F3CE010C
:101860000E94651A682F83E697E00E949B2FF2CFB3
:101870008FED93E00E945625CE01DF91CF910C941D
:10188000AA1C80E090E0089508950895FC01208D41
:10189000318D828D938D2817390724F42F5F3F4FA8
:1018A000318F208F0895FC01208D318D1216130683
:1018B00024F421503109318F208F0895DC012D91BE
:1018C0003C912115310529F48EE495E00E949B2579
:1018D00020C062177307ECF4DC011296ED91FC91C5
:1018E00013972481358181E090E0309769F0681783
:1018F00079076CF02115310551F00280F381E02D5C
:10190000248135810196F1CF6817790714F0C90158
:10191000089580E090E0089560E070E04096CEDFAA
:10192000009701F40895CF93DF93EB01488150E0D5
:101930004053584F052E000C660B770B2AE083E6C8
:1019400097E00E94B72F82E294E00E9435254981FA
:1019500050E060E070E02AE083E697E00E94B72F55
:1019600080E294E00E9435254A8150E060E070E01A
:101970002AE083E697E00E94B72F8EE194E00E9470
:1019800035254B8150E060E070E02AE083E697E087
:101990000E94B72F8CE194E00E9435254C8150E0E5
:1019A00060E070E02AE083E697E00E94B72F8AE1CA
:1019B00094E00E9435254D8150E060E070E02AE01F
:1019C00083E697E00E94B72F88E194E0DF91CF9102
:1019D0000C9456250C94AC280F931F93CF93DF9350
:1019E00000D000D0CDB7DEB78C01BC016A5F7F4F5D
:1019F000CE0101960E947A21BE016F5F7F4FF801F0
:101A00008685978590DF26960FB6F894DEBF0FBEC9
:101A1000CDBFDF91CF911F910F9108950F931F9329
:101A2000CF93DF93EC018B0168D50E94AE25A8010E
:101A30006AE070E0CE01ADD4CE015FD5DF91CF91E9
:101A40001F910F910C94AE25FC0111861486178608
:101A5000768365838CEB92E091838083118A108A70
:101A6000138A128A158A148AF78BE68B108E87E008
:101A700090E09383828308956F3F7105A9F0A4F0ED
:101A80006B3581E0780754F0693B81E078074CF0D2
:101A9000643172404CF48BE695E0089585E595E05D
:101AA00008958AE595E008958EE595E008958F9272
:101AB0009F92AF92BF92DF92EF92FF920F931F938C
:101AC000CF93DF937C01EA0161E082E00E94671F0F
:101AD00068EE73E080E090E00E94D21F80917B006E
:101AE000877F80937B0081E480937C0080917A00E3
:101AF000806480937A0080917A0086FDFCCF80918B
:101B000078002091790090E0922B998388830C854E
:101B10001D85C8010E94822B8823A9F1D801169641
:101B20008C918B3041F178F18551823060F5D8018C
:101B30006C9170E080E090E00E94534620E030E03D
:101B400040E853E40E94B4464B015C01F8018181F6
:101B5000682F70E080E090E00E9455469B01AC0148
:101B6000C501B4010E94DC472DEC3CEC4CEC5DE37C
:101B70000E94B4460CC0F801608170E080E090E003
:101B80000E94534604C060E070E080EC9FE76887E5
:101B900079878A879B870C851D85C8010E94822BC7
:101BA0008823E1F1D80116968C918B3029F0B0F1A1
:101BB0008551823048F032C0F801628170E080E0E7
:101BC00090E00E9453462EC0D8011296DC906D2DF5
:101BD0006F7770E080E090E00E94554620E030E0B2
:101BE00040E853E40E94B4464B015C01F801838154
:101BF000682F70E080E090E00E9455469B01AC01A8
:101C0000C501B4010E94DC472DEC3CEC4CEC5DE3DB
:101C10000E94B446D7FE06C0905804C060E070E051
:101C200080EC9FE76C837D838E839F8360E082E0FE
:101C30000E94671FD701ED91FC91C489D58905E207
:101C40001AE220E030E0E12C41E06DEF73E0CE01DC
:101C50000E943E2BCE01DF91CF911F910F91FF90FB
:101C6000EF90DF90BF90AF909F908F90EACD0F9351
:101C70001F93CF93DF93EC018B0186E090E00E94ED
:101C8000A844FC01118210821382128215830483FE
:101C90008881D80114968C9314978E819F81189611
:101CA0009C938E93179741E019964C932A813B8120
:101CB00088819981232B19F4FB83EA831CC06C81F2
:101CC0007D8171836083DB0114962D913C91159782
:101CD000D8011B963C932E931A971C964C93D901CE
:101CE0001E961C930E931D971F964C93DB01139623
:101CF000FC93EE931297FD83EC830196998388837E
:101D0000DF91CF911F910F910895FC0122813381C2
:101D1000C9010197039748F081E02530310539F07A
:101D20002630310521F080E0089581E0089508957E
:101D30008F929F92BF92CF92DF92EF92FF920F937A
:101D40001F93CF93DF938C01DC011696ED91FC91EC
:101D50001797408150E060E070E02AE083E697E06A
:101D60000E94B72F60E283E697E00E949B2FF80164
:101D7000408550E060E070E02AE083E697E00E9452
:101D8000B72F60E283E697E00E949B2FD80112965E
:101D9000ED91FC911397858196810E949B25F80116
:101DA0008181FCEFCF2EC80E85E394E00E9456257A
:101DB000D8011696ED91FC9117971896DC908081CA
:101DC000D81AB12CEC2CF12C6D2D70E0D80118969E
:101DD0008C91189790E01696ED91FC9117972081C1
:101DE000821B91092C91820F911D681779070CF0C5
:101DF0004DC1F80182819381409660DDEC01892B11
:101E000009F430C1D8011696ED91FC9117978081A5
:101E1000B81202C06EE301C060E283E697E00E9460
:101E20009B2FB394AD81BE81FD0101900020E9F7A5
:101E30003197EA1BFB0BEE15FF0510F4912C1BC02C
:101E4000812C912C8C1468F4ED81FE81E80DF91D34
:101E5000608183E697E00E949B2FBFEF8B1A9B0A5D
:101E6000F1CFCE0152DF811145C060E283E697E0F9
:101E70000E949B2F3FC06D817E81FB01019000205D
:101E8000E9F73197E61BF70B292D30E0C7018E1BD0
:101E90009F0B969587952817390738F460E283E6FB
:101EA00097E00E949B2F9394E6CF83E697E00E94F1
:101EB000FF2F912CAD81BE81FD0101900020E9F73B
:101EC0003197EA1BFB0BC7018E1B9F0B292D30E0BE
:101ED000AC014170552796958795840F951F28175B
:101EE000390708F0BECF60E283E697E00E949B2F9F
:101EF0009394E0CFEA81FB81E830F10508F0A8C0B7
:101F00008827EE58FF4F8F4F0C94FF486BE29CC020
:101F100060E283E697E00E949B2F60E283E697E011
:101F20000E949B2F90C0EC89FD8990818E89981327
:101F300002C060E201C06FE583E697E00E949B2F3C
:101F40008A819B818B7F6E89029709F4AEC070E015
:101F500083E697E00E946525EC89FD8990818E8952
:101F6000981313C070C0672B09F4A9C06FE683E60D
:101F700097E00E949B2FEC89FD89208131818E8919
:101F80009F892817390709F45EC06FE55DC0EC89A9
:101F9000FD89208131818E899F892817390711F4A5
:101FA00060E201C06FE583E697E00E949B2F8A8183
:101FB0009B818B7F6E897F890297A9F283E697E0E8
:101FC0000E946525D8CFCE019CD3288D398D8217EC
:101FD000930711F460E201C06FE583E697E00E9489
:101FE0009B2F8A819B818B7F688D798D029709F465
:101FF00068C083E697E00E946525CE0182D3288DD4
:10200000398D8217930709F0C0CF1DC0CE0198D338
:10201000988D891302C060E201C06FE583E697E006
:102020000E949B2F8A819B818B7F688D029709F488
:1020300052C070E083E697E00E946525CE0180D310
:10204000988D8913A2CF60E283E697E00E949B2FD0
:10205000CE015BDE811112C060E283E697E00E9450
:102060009B2F0CC0C0E0F8018181C81738F460E2F2
:1020700083E697E00E949B2FCF5FF5CF64E175E088
:1020800083E697E00E94A22FD3949ECE84E294E050
:10209000DF91CF911F910F91FF90EF90DF90CF9044
:1020A000BF909F908F900C945625662311F06FE699
:1020B00001C068E783E697E00E949B2F4DCF68E759
:1020C00056CF672B11F06FE601C068E783E697E013
:1020D0000E949B2F92CF662311F06FE601C068E744
:1020E00083E697E00E949B2FA9CF0F931F93CF9376
:1020F000DF93EC018A018E819F81AFD4B8018E817C
:102100009F81DF91CF911F910F91A7C408950895EA
:10211000CF93DF93DB011696ED91FC911797C48165
:10212000D5811796DC93CE93169775836483209799
:1021300019F08881998102C08FEF9FEF1496CD919D
:10214000DC911597209719F05881498102C05FEF03
:102150004FEF252F342F281739070CF49C012F5FE0
:102160003F4F2D933C93A681B781109721F09C910E
:1021700011968C9102C09FEF8FEF492F582F421775
:1021800053070CF4A9014F5F5F4F51834083CF0188
:10219000DF91CF910895CF93DF93DB011496ED91FA
:1021A000FC9115972681378115963C932E931497B1
:1021B0007783668316968D919C911797009739F0D7
:1021C000EC01588149812115310531F409C02115EF
:1021D000310519F15FEF4FEFE9018881998102C064
:1021E0008FEF9FEF252F342F281739070CF49C0110
:1021F0002F5F3F4F2D933C93A481B581109721F021
:102200009C9111968C9102C09FEF8FEF492F582F10
:10221000421753072CF4A90103C02FEF3FEFE8CF7B
:102220004F5F5F4F51834083CF01DF91CF9108957E
:102230000C94AC280C94AC28EF92FF920F931F9350
:10224000CF93DF938C017B01EA01209771F488E042
:1022500090E00E94A844EC01198218821D821C8221
:102260001F821E82FB82EA8271C0EA81FB81DB0150
:102270001E962D913C911F978685978528173907C3
:1022800074F54C815D81C801D7DF9D838C830097F5
:1022900021F0FC012081318102C02FEF3FEFEE8160
:1022A000FF81309719F04081518102C04FEF5FEFFD
:1022B000241B350B2230310509F048C0DC01129691
:1022C0002D913C911397E216F30628F0BC01C8014A
:1022D0001FDF9D838C83BE01C8015DDF36C0E6171A
:1022E000F707A0F54E815F81C801A6DF9F838E832B
:1022F000009721F0FC012081318102C02FEF3FEFD8
:10230000EC81FD81309719F04081518102C04FEF7F
:102310005FEF241B350B22303105C1F4DC0112962E
:10232000ED91FC911397D7011E964D915C911F97EB
:1023300026853785241735072CF0BC01C8012BDF13
:102340009F838E83BE01C801E3DEEC01EE81FF8135
:10235000309719F02081318102C02FEF3FEFEC81DF
:10236000FD81309719F05081418102C05FEF4FEF3E
:10237000852F942F821793070CF4C9010196998336
:102380008883CE01DF91CF911F910F91FF90EF9045
:1023900008950F931F93CF93DF93FC016A3071056B
:1023A00029F5C481D58160E070E0A1E0B0E06C1750
:1023B0007D07C4F59B01265F3F4F828193818D018C
:1023C00002C0000F111F2A95E2F7980140FF03C0D9
:1023D000802B912B04C020953095822393239383E7
:1023E0008283559547956F5F7F4FE1CFA281B3817F
:1023F000452B59F021E030E002C0220F331F6A95CF
:10240000E2F7CD01822B932B0BC081E090E002C05C
:10241000880F991F6A95E2F7809590958A239B23F0
:1024200093838283DF91CF911F910F910895EF9253
:10243000FF920F931F93CF93DF93EC016A307105E6
:1024400039F50C811D81E0E0F0E041E020E030E072
:10245000EE24E394F12CE017F107C4F4CF010A96BF
:10246000B70102C0660F771F8A95E2F78A819B81C8
:10247000862397230E94EC48469FC001479F900DFA
:102480001124280F391F440F3196E5CFC90110C020
:1024900021E030E0C90102C0880F991F6A95E2F778
:1024A000BC018A819B81862397230E94EC48CB0143
:1024B000DF91CF911F910F91FF90EF9008956DE004
:1024C00070E0B5CFCF93DF93EC01F9DF892B49F0B2
:1024D00040E050E06DE070E0CE015BDF83E895E026
:1024E00008C041E050E06DE070E0CE0152DF87E9C6
:1024F00095E0DF91CF910C9456256AE070E097CF7C
:1025000069E070E094CFCF93DF93EC01F9DF892B82
:1025100049F040E050E069E070E0CE013ADF8DE143
:1025200095E008C041E050E069E070E0CE0131DFA5
:1025300086E395E0DF91CF910C94562568E070E03A
:1025400076CFCF93DF93EC01F9DF892B61F08EE436
:1025500095E00E94562540E050E068E070E0CE0132
:1025600018DF60E00BC089E695E00E94562541E047
:1025700050E068E070E0CE010CDF61E089E0DF91BF
:10258000CF910C94671F67E070E051CFCF93DF933A
:10259000EC01F9DF892B49F040E050E067E070E0A2
:1025A000CE01F7DE81EC94E008C041E050E067E046
:1025B00070E0CE01EEDE86ED94E0DF91CF910C94D9
:1025C000562566E070E033CFCF93DF93EC01F9DF5F
:1025D000892B59F08AEE94E00E94562560E088E04D
:1025E0000E94671F40E050E00AC084E095E00E942E
:1025F000562561E088E00E94671F41E050E066E0F8
:1026000070E0CE01DF91CF91C4CE65E070E00FCFD6
:10261000CF93DF93EC01F9DF892B49F040E050E0E4
:1026200065E070E0CE01B5DE87E694E008C041E0E9
:1026300050E065E070E0CE01ACDE8DE794E0DF9124
:10264000CF910C94562564E070E0F1CECF93DF93E8
:10265000EC01F9DF892B61F082E994E00E945625B4
:1026600040E050E064E070E0CE0193DE61E00BC03A
:102670008AEA94E00E94562541E050E064E070E070
:10268000CE0187DE60E086E0DF91CF910C94671F7A
:1026900061E070E0CCCE60E070E0C9CECF93DF9314
:1026A000EC01F9DF892B49F040E050E060E070E098
:1026B000CE016FDE86E494E020C041E050E060E0AF
:1026C00070E0CE0166DE40E050E065E070E0CE01F3
:1026D00060DE40E050E067E070E0CE015ADE40E0AE
:1026E00050E069E070E0CE0154DE40E050E06DE083
:1026F00070E0CE014EDE87E594E0DF91CF910C943F
:102700005625DC0156964D915C9157975496ED9164
:10271000FC915597CA019595879550962D913C91BE
:10272000519740FF0AC0D901A80FB91F4D915C9184
:10273000E40FF51F0190F081E02D820F931F199493
:10274000DC0156964D915C9157975496ED91FC9112
:102750005597CA019595879550962D913C91519723
:1027600040FF0AC0D901A80FB91F4D915C91E40F39
:10277000F51F0190F081E02D820F931F199521E044
:10278000892B09F420E0822F0895CF93DF93EC0189
:1027900051DDCE01D5DF888FDF91CF910895EF9283
:1027A000FF920F931F93CF93DF93EC0119861C8642
:1027B0001F867E836D83598B488B3B8B2A8B81E0F0
:1027C00090E09B838A8386EC92E099838883FD8ADC
:1027D000EC8A1F8B0E8BC8019595879500FF0CC066
:1027E000FA01E80FF91F0190F081E02DEE0DFF1DB9
:1027F0000190F081E02D01C0F701840F951F19951C
:1028000021E0892B09F420E0288F84E090E09B836D
:102810008A83DF91CF911F910F91FF90EF900895E0
:10282000EF92FF920F931F93CF93DF937C01EB0105
:102830008A0180E090E02097C9F00097B9F48A817E
:102840009B81FC01268537850217130724F40C8031
:10285000DD81C02D06C02017310744F40E80DF81D2
:10286000C02DA801BE01C701DBDFE5CFDF91CF910D
:102870001F910F91FF90EF900895CF93DF93EC019C
:1028800048815981D9DC99838883DF91CF9108955C
:10289000EF92FF920F931F93CF93DF93EC01EE81A2
:1028A000FF8180819181892B09F452C0E280F380FD
:1028B000D7010D911C91E114F10409F449C0F8010C
:1028C0008085468157810480F581E02DD8012D91C6
:1028D0003C918823C1F0CA019595879540FF0AC0B5
:1028E000D901A80FB91F4D915C91E40FF51F01901C
:1028F000F081E02D820F931F1995019729F5F801BA
:102900008281938119C0CA019595879540FF0AC0BD
:10291000D901A80FB91F4D915C91E40FF51F0190EB
:10292000F081E02D820F931F1995892B69F4D8014E
:1029300012968D919C911397DF91CF911F910F91DA
:10294000FF90EF900C949B25F701E680F780B0CFC5
:10295000EA81FB812C813D81309711F420FF1AC060
:10296000C901959587954881598120FF0AC0DA01F0
:10297000A80FB91F2D913C91E20FF31F0190F08138
:10298000E02D840F951FDF91CF911F910F91FF9044
:10299000EF901994E885F9852A853B85309711F4E5
:1029A00020FF1EC048815981C9019595879520FF58
:1029B0000AC0DA01A80FB91F2D913C91E20FF31F55
:1029C0000190F081E02DAC85BD856D917C91840FE7
:1029D000951FDF91CF911F910F91FF90EF90199468
:1029E000DF91CF911F910F91FF90EF9008958F92FB
:1029F0009F92AF92BF92EF92FF920F931F93CF934C
:102A0000DF93EC017B0148015901198618861B866A
:102A10001A861D861C86798368835F874E8788E0C7
:102A200090E00E94A844FC0111821082138212825D
:102A300015821482F782E6829F838E838A829B822C
:102A4000AC82BD82DF91CF911F910F91FF90EF90EB
:102A5000BF90AF909F908F9008950F931F93CF9347
:102A6000DF93EC018B0188E090E00E94A844FC0118
:102A700088E0DF011D928A95E9F7118300838E813A
:102A80009F8195838483888199819C012F5F3F4F2B
:102A900039832883938382838A819B81892B19F4CC
:102AA000FB83EA8306C0AC81BD811796FC93EE934D
:102AB0001697FD83EC83DF91CF911F910F910895BD
:102AC000CF92DF92EF92FF92CF93DF93EC016B8175
:102AD00070E080E090E00E9453466B017C018C81A5
:102AE000682F70E080E090E00E94534620E030E0E4
:102AF00040E752E40E9440489B01AC01C701B60187
:102B00000E94DC476B017C018D81682F70E080E0C2
:102B100090E00E94534620E030E041E655E40E94F8
:102B200040489B01AC01C701B6010E94DC47DF9120
:102B3000CF91FF90EF90DF90CF900895CF93DF93E8
:102B40001F92CDB7DEB76983DC01ED91FC91028065
:102B5000F381E02D41E050E0BE016F5F7F4F19959A
:102B60000F90DF91CF910895DC01ED91FC91068CDF
:102B7000F78DE02D199591E089270895862F089506
:102B800081E086270895FC018485843011F00C943F
:102B9000E42380E090E0089508958CBD9DBD0895E4
:102BA0008F929F92AF92BF92CF92DF92EF92FF925D
:102BB0000F931F93CF936C015B017A01FC01C485D5
:102BC000C43041F481E090E0F6019383828380E099
:102BD00090E047C08A014130584010F000E018E012
:102BE00080E590E0DADF8C2F0E94C0264C0163E084
:102BF00070E08C2FEAD5873111F08C3121F48016EA
:102C0000910670F302C000E010E080E590E0C5DFBF
:102C10009801A50160E070E08C2F0E945D2660E2C3
:102C200070E08C2F0E94E72562E070E08C2FCDD5FC
:102C300084FD0EC063E070E08C2FC7D5811104C005
:102C40008C2F0E945324BECF80E590E0A6DFECCF0E
:102C500040E162E070E08C2F95D5012B09F4B2CFF2
:102C6000C701CF911F910F91FF90EF90DF90CF9010
:102C7000BF90AF909F908F900895CF92DF92FF9278
:102C80000F931F93CF93DF93FC012485243009F029
:102C900073C06A01EB018C01F12C8F2D0E941C2561
:102CA000811103C0F801F48607C08B7F8831D1F30E
:102CB000F394F4E0FF12F1CFF8018485843009F435
:102CC0005BC020910002309101022F5F3F4F11F451
:102CD00020E030EC3093010220930002409100028A
:102CE0005091010220E061E00E946624F801F48422
:102CF0008A818F3F51F48B818F3F91F48C818F3F7C
:102D000079F48D818F3F61F434C0811109C08B81CA
:102D1000811106C08C81811103C08D81882349F106
:102D2000C114D10431F180E590E037DFBE016E5F60
:102D30007F4F8F2D90E0982F882744E050E0845FEC
:102D40009B4F0E949C23B6018F2D8ED564E070E0CE
:102D50008F2D0E94E725C801D2D5873181F061E02F
:102D600070E080E090E00E94D21FC801C8D58111B8
:102D7000F2CF84E0F801848780E090E002C081E037
:102D800090E0DF91CF911F910F91FF90DF90CF9056
:102D900008952F923F924F925F926F927F928F92FF
:102DA0009F92AF92BF92CF92DF92EF92FF920F93DA
:102DB0001F93CF93DF93CDB7DEB765970FB6F89427
:102DC000DEBF0FBECDBF7C016B013A01FB0120E0ED
:102DD00080E090E06AE03191332309F140ED430F48
:102DE0004A3080F4689FA001699F500D1124CA01E8
:102DF000C097830F911D37FD9A958F3F910559F329
:102E000050F313C03E3289F4233079F0D301A20F7E
:102E1000B11D12968C932F5F80E090E0DCCF2330C1
:102E200021F4F301858381E020C0F70142815381C1
:102E30006481758180910A0890910B08A0910C081B
:102E4000B0910D08481759076A077B0709F483C139
:102E50000E940A208701085F1F4F6F7077277C5FF1
:102E6000C80163D4813019F080E090E0D0C188E6D9
:102E700093E09A838983F70182819381A481B5814C
:102E80008B839C83AD83BE8345E350E0BE016F5FBF
:102E90007F4FC801F8D4892B19F4C12CD12C57C10C
:102EA0000E940A20F70177836683762767277627B3
:102EB0007A83698342E050E0BE016F5F7F4FC801B3
:102EC00077D381E090E09E878D8742E050E0BE019D
:102ED000635F7F4FC8016CD380E091E09E878D8750
:102EE00042E050E0BE01635F7F4FC80161D31E86A0
:102EF0001D8642E050E0BE01635F7F4FC80158D39A
:102F000042E050E0BE01635F7F4FC80151D342E011
:102F100050E0BE01635F7F4FC8014AD35601F501FF
:102F20008081882301F1F6015F018191811113C035
:102F300045018C189D081814190484F48F8641E00B
:102F400050E0BE01615F7F4FC80132D3A401B601DA
:102F5000C8012ED303C08E3239F7EACF6501FFEFE7
:102F6000CF1ADF0ADCCF1F8641E050E0BE01615F6F
:102F70007F4FC8011DD3C12CDD24D394DE86CD86BE
:102F800042E050E0BE01635F7F4FC80111D3DE868F
:102F9000CD8642E050E0BE01635F7F4FC80108D399
:102FA000C80133D4892B09F478CF63E0A62EB12C65
:102FB000F2E06F0E711C0E940A201B012C01C80157
:102FC0009ED2181619069CF00E940A20DC01CB0143
:102FD00082199309A409B50989389341A105B1055E
:102FE000C8F462E370E080E090E0DCD7E8CFF7015E
:102FF0004281538164817581808D918DA28DB38DC5
:10300000481759076A077B0741F4848D958DC5974A
:1030100021F406C02FEF3FEF90C02EEF3FEF8DC0A1
:10302000F70181A192A10C970CF49BC04CE050E0F9
:10303000BE016F5F7F4FC801FCD18B8190E0982F5C
:1030400088272C81822B9A8B898B298130E0322F23
:1030500022274A81242BF7014681578142175307C3
:1030600009F07CC097FF7AC08F709270892B09F0AD
:10307000CBC0CF80D12CDC2CCC248885C82AC114AD
:10308000D10409F4BEC0812C912C8D8190E0982F41
:1030900088272E81822B8816990608F465C0812C1A
:1030A000912C41E050E0BE016D5E7F4FC801C1D15F
:1030B0008B89982F907C09F083C0811177C08B8910
:1030C0008111EFCF42E050E0BE01615F7F4FC80148
:1030D000B0D142E050E0BE01635F7F4FC801A9D18B
:1030E000C801C6D1C801C4D1C801C2D1C801C0D16C
:1030F00042E050E0BE016F5E7F4FC8019AD18F85DC
:1031000098898115914009F05FC02D853E85322751
:10311000232732272130310509F056C089899A8941
:103120008115944009F06AC044E050E0B301C80141
:103130002C8B3D8B7ED12C893D896901F1E0AF1A42
:10314000B10829F02FEFC216D20609F434CFC80116
:10315000D7D2C6015CC08EEF9FEF59C02CEF3FEF76
:10316000ECCF2DEF3FEFE9CF41E050E0BE01635FD0
:103170007F4FC8015ED18D8581110FC08D85811172
:10318000F3CFC80175D1C80173D1C80171D1C8018D
:103190006FD1FFEF8F1A9F0A78CF8D859FEF980F21
:1031A0009D87882359F3C80163D1F7CF8B899FEF9F
:1031B000980F9B8B882309F482CFC80159D1F6CF91
:1031C000C80156D11B8A7BCF412C512C89899A8901
:1031D0009827892798274816590630F4C80148D1FE
:1031E0008FEF481A580AF2CFEFEF8E1A9E0A8C140E
:1031F0009D0409F056CF26EF3FEF9FCF27EF3FEF1B
:103200009CCF2AEF3FEF99CF2BEF3FEF96CF6596FC
:103210000FB6F894DEBF0FBECDBFDF91CF911F91E7
:103220000F91FF90EF90DF90CF90BF90AF909F9065
:103230008F907F906F905F904F903F902F90089568
:10324000CF92DF92EF92FF920F931F93CF93DF9372
:10325000CDB7DEB7AF970FB6F894DEBF0FBECDBFC8
:103260007C016A0108E613E01A8309831C861B8629
:1032700088EE93E0A0E0B0E08D879E87AF87B88BA3
:1032800088EF92E09A878987188F0F8B198E1A8E94
:103290001B8E1C8E84E089A31DA30CA31EA21FA25B
:1032A00018A619A68091020890910308A09104081D
:1032B000B09105088CA79DA7AEA7BFA78B839C8361
:1032C000AD83BE8318861F82AE014C5D5F4FCE0179
:1032D00001965FDD81309105B1F4D701ED91FC914C
:1032E0000684F785E02D1BA70AA78EA19FA1A8A59C
:1032F000B9A58CA79DA7AEA7BFA7A601BE01665D15
:103300007F4FC7011995AF960FB6F894DEBF0FBE79
:10331000CDBFDF91CF911F910F91FF90EF90DF9084
:10332000CF900895CF93DF931F92CDB7DEB7698317
:10333000DC01ED91FC910280F381E02D41E050E051
:10334000BE016F5F7F4F19950F90DF91CF91089568
:10335000FC01818D928D0895FC01848995890895E1
:1033600028E633E0FC0131832083FB014089518949
:1033700062897389FC014283538364837583089552
:10338000DC01ED91FC91048CF58DE02D199480E029
:103390000895FC019485FB018485981303C081E0A6
:1033A000943009F480E0089521E0FC0184858430A4
:1033B00009F420E0822F08950895CF93DF931F92A0
:1033C000CDB7DEB7FC01218D328D232B49F0BE0134
:1033D0006F5F7F4F808D0E94C523898190E002C07E
:1033E0008FEF9FEF0F90DF91CF9108950F931F9371
:1033F000CF93DF931F92CDB7DEB78C01DC01ED9147
:10340000FC910084F185E02D1995892B51F0BE01C6
:103410006F5F7F4FF80184850E94C523898190E00A
:1034200002C08FEF9FEF0F90DF91CF911F910F910F
:103430000895CF93DF93FC01218D328D2115310545
:1034400019F48FEF9FEF11C0EC014217530708F0FA
:10345000A901888D0E9404241816190694F7298D55
:103460003A8D281B390B3A8F298FDF91CF91089520
:103470000F931F93CF93DF931F92CDB7DEB7FC015D
:10348000218D328D232B61F08C0141E050E0BE0193
:103490006F5F7F4F808D0E940424181619061CF060
:1034A0008FEF9FEF08C0F801818D928D0197928F69
:1034B000818F898190E00F90DF91CF911F910F91C3
:1034C0000895FC0184850C940424CF93DF931F920C
:1034D000CDB7DEB741E050E0BE016F5F7F4FFC012A
:1034E00084850E940424181619061CF4898190E032
:1034F00002C08FEF9FEF0F90DF91CF9108950F9350
:103500001F93CF93DF93CDB7DEB728970FB6F8940C
:10351000DEBF0FBECDBF8C01F801818D928D892B4E
:1035200049F0D801ED91FC910284F385E02DC801AA
:103530001995F2CF808D0E94E423181619065CF5C8
:1035400048E050E0BE016F5F7F4FD80158968C91E4
:103550000E9404249C0118161906DCF489819A81C2
:10356000AB81BC81F801808B918BA28BB38B8D8159
:1035700090E0982F88272E81820F911D958B848B48
:103580002F8130E0322F22278885280F311D328F7E
:10359000218FC90102C080E090E028960FB6F89410
:1035A000DEBF0FBECDBFDF91CF911F910F91089568
:1035B000AF92BF92CF92DF92FF920F931F93CF9360
:1035C000DF938C015B01EA01FC01C688D788F08C8F
:1035D00080E590E0E2DA8F2D0E94C0268C179D07CF
:1035E00020F48F2D0E94C026EC019E01A501B6019A
:1035F0008F2D0E945D26D0DAF801868997898C0F7D
:103600009D1F978B868BCE01DF91CF911F910F91DC
:10361000FF90DF90CF90BF90AF900895CF92DF9250
:10362000EF92FF920F931F93CF93DF93CDB7DEB747
:10363000AF970FB6F894DEBF0FBECDBF7C016A0115
:1036400008E613E01A8309831C861B8688EE93E044
:10365000A0E0B0E08D879E87AF87B88B88EF92E0BF
:103660009A878987188F0F8B198E1A8E1B8E1C8E46
:1036700084E089A31DA30CA31EA21FA218A619A64D
:103680008091020890910308A0910408B091050868
:103690008CA79DA7AEA7BFA78B839C83AD83BE835A
:1036A00018861F82AE014C5D5F4FCE01019671DB23
:1036B00081309105B1F4D701ED91FC910488F58931
:1036C000E02D1BA70AA78EA19FA1A8A5B9A58CA72D
:1036D0009DA7AEA7BFA7A601BE01665D7F4FC7012C
:1036E0001995AF960FB6F894DEBF0FBECDBFDF9130
:1036F000CF911F910F91FF90EF90DF90CF900895A1
:10370000CF93DF93EC01888D843061F00E945324C5
:10371000E88DF0E0EE0FFF1FE652F94F11821082A4
:1037200084E0888FDF91CF910895EF92FF921F93ED
:10373000CF93DF93FC01208D243011F080E01CC07A
:103740007B01EC0110E0812F0E941C25811102C039
:10375000188F05C08831E1F31F5F1430A1F7888D01
:10376000843061F3FD86EC861A8E198E20E0A70165
:1037700062E00E94662481E0DF91CF911F91FF906B
:10378000EF9008950F931F93CF93DF931F92CDB7C0
:10379000DEB7282F30E02C5F3F4F322F22278901E0
:1037A000060F171F4983A9D780EFBFD7812FBDD739
:1037B000802FBBD74981842FB8D79DD781E00F9048
:1037C000DF91CF911F910F9108950F931F93CF9386
:1037D000DF931F92CDB7DEB790E00496982F88272D
:1037E0008C01060F171F89D78FE09FD7812F9DD798
:1037F000802F9BD780E099D789837DD789810F90CF
:10380000DF91CF911F910F910895CF93FC01C08D4F
:1038100080E590E0C2D960E270E08C2F0E94E7253D
:1038200062E070E08C2FD1DF84FD14C062E070E0B4
:103830008C2FCBDF83FF09C048E162E070E08C2F62
:10384000A1DFAAD980E090E00DC0A6D980E590E084
:10385000A4D9E6CF40E162E070E08C2F93DF9CD9E1
:1038600081E090E0CF910895CF93DF93C82FD62FBA
:10387000472F60E170E086DF4D2F61E170E08C2F13
:10388000DF91CF917FCFFF920F931F93CF93DF9361
:10389000FB01DC0157961C921E9256975896FC909D
:1038A0008281811109C08381811106C084818111C7
:1038B00003C085818823D9F041155105C1F08A01E3
:1038C000EF0180E590E069D9BE016E5F7F4F2F2D3B
:1038D00030E0922F882744E050E0845F9B4F2CD744
:1038E000B8018F2DC1DF58D981E090E002C080E09F
:1038F00090E0DF91CF911F910F91FF900895FC010F
:103900008485843011F00C941C2580E00895CF93B9
:10391000DF93FC0124852430C9F0EC01F0DF843111
:1039200081F0882371F0883161F08C3161F4E88195
:10393000F9810084F185E02DCE01199521E0892BD4
:1039400019F420E001C021E0822F01C080E0DF9166
:10395000CF910895CF92DF92EF92FF921F93CF9372
:10396000DF93FC011485143071F1EC0180E590E0E7
:1039700014D968E070E0812F0E94E7250DD94AD361
:103980006B017C01CE01BBDF882399F061E070E020
:1039900080E090E007D33ED3DC01CB018C199D0978
:1039A000AE09BF09883E9340A105B10558F38C8547
:1039B0007AD7EC85F0E0EE0FFF1FE652F94F118247
:1039C000108284E08C87DF91CF911F91FF90EF9060
:1039D000DF90CF900895FC01538D448D252F30E06A
:1039E000842F90E0821B930B541710F0CF9608950C
:1039F00001970895FC01918D828D981761F0828D59
:103A0000DF01A80FB11D5D968C91928D9F5F9F7312
:103A1000928F90E008958FEF9FEF0895FC01918DB4
:103A2000828D981731F0828DE80FF11D858D90E021
:103A300008958FEF9FEF0895FC01918D228D892FBE
:103A400090E0805C9F4F821B91098F7399270895A6
:103A500083E697E0F1DF21E0892B09F420E0822F53
:103A60000895FC01848DDF01A80FB11DA35ABF4F3B
:103A70002C91848D90E001968F739927848FA6896D
:103A8000B7892C93A089B1898C9180648C93938D94
:103A9000848D981306C00288F389E02D80818F7D84
:103AA00080830895EF92FF920F931F93CF93DF933C
:103AB000EC0181E0888F9B8D8C8D981305C0E8897F
:103AC000F989808185FD23C0F62E0B8D10E00F5FF4
:103AD0001F4F0F731127E02E8C8DE8120BC00FB60D
:103AE00007FCFACFE889F989808185FFF5CFCE01FF
:103AF000B8DFF2CF8B8DFE01E80FF11DE35AFF4FC7
:103B0000F0820B8FEA89FB898081806207C0EE8991
:103B1000FF896083E889F98980818064808381E0FE
:103B200090E0DF91CF911F910F91FF90EF9008955A
:103B3000CF93DF93EC01888D8823C1F0EA89FB895C
:103B4000808185FD05C0A889B9898C9186FD0EC04C
:103B50000FB607FCF5CF808185FFF2CFA889B98920
:103B60008C9185FFEDCFCE017CDFE8CFDF91CF9147
:103B7000089580E090E0892B19F06ADF811125C05B
:103B800080E090E0892B41F080E090E0892B21F0EB
:103B90000E94000081111CC080E090E0892B41F060
:103BA00080E090E0892B21F00E940000811113C079
:103BB00080E090E0892BA1F080E090E0892B81F0FB
:103BC0000E94000081110AC008950E940000D8CF11
:103BD0000E940000E1CF0E940000EACF0C94000098
:103BE000089590E0FC013197E231F10508F04EC0F4
:103BF0008827E658FF4F8F4F0C94FF488091800034
:103C00008F7703C0809180008F7D8093800008951E
:103C100080918000877FF9CF84B58F7702C084B50B
:103C20008F7D84BD08958091B0008F7703C080910F
:103C3000B0008F7D8093B0000895809190008F77C1
:103C400007C0809190008F7D03C080919000877F96
:103C50008093900008958091A0008F7707C0809195
:103C6000A0008F7D03C08091A000877F8093A0007B
:103C70000895809120018F7707C0809120018F7D6A
:103C800003C080912001877F8093200108953FB772
:103C9000F89480914D0790914E07A0914F07B091F5
:103CA000500726B5A89B05C02F3F19F00196A11D0E
:103CB000B11D3FBFBA2FA92F982F8827820F911DC2
:103CC000A11DB11DBC01CD0142E0660F771F881F09
:103CD000991F4A95D1F70895CF92DF92EF92FF9204
:103CE000CF93DF93EC01072E000C880B990B0E94F9
:103CF00055466B017C0120E030E040E45FE30E9428
:103D0000B44620E030E048E452E40E9440480E947B
:103D1000A848C617D707D4F020E030E040EA5FE3B8
:103D2000C701B6010E94B44620E030E048E452E406
:103D30000E94404820E030E040E85FE30E94DC471A
:103D40000E94A84821E06C177D070CF420E0822F28
:103D500090E0DF91CF91FF90EF90DF90CF900895AA
:103D60008F929F92AF92BF92CF92DF92EF92FF928B
:103D70000F931F93CF93DF937C018B016C0182E043
:103D8000C80ED11C4701E5E08E0E911CC0E0D0E0CA
:103D9000F60141916F0150E060E070E02AE0C80157
:103DA0000E94B72F5C016EE2C8010E949B2F8A0D12
:103DB0009B1DC80FD91FC814D90451F7F7014581BD
:103DC00050E060E070E02AE0C8010E94B72F8C0F3D
:103DD0009D1FDF91CF911F910F91FF90EF90DF908A
:103DE000CF90BF90AF909F908F9008950E945949B7
:103DF00028E633E0FC0131832083FB0140815181BF
:103E000062817381FC0142835383648375830895C7
:103E10001F920F920FB60F9211240BB60F922F9391
:103E20003F934F935F936F937F938F939F93AF9342
:103E3000BF93EF93FF9383E697E013DEFF91EF913B
:103E4000BF91AF919F918F917F916F915F914F91B2
:103E50003F912F910F900BBE0F900FBE0F901F90B0
:103E600018951F920F920FB60F9211240BB60F9256
:103E70002F938F939F93EF93FF93E0917307F091AC
:103E800074078081E0917907F0917A0782FD12C072
:103E9000908180917C078F5F8F7320917D078217BF
:103EA00051F0E0917C07F0E0ED59F84F958F809349
:103EB0007C0701C08081FF91EF919F918F912F919D
:103EC0000F900BBE0F900FBE0F901F9018951F9371
:103ED000CF93DF93282F30E0F901E850FA4F849117
:103EE000F901E659FE4FD491F901EC5DFE4FC49102
:103EF000CC23C1F0162F811174DEEC2FF0E0EE0F11
:103F0000FF1FE252FA4FA591B4918FB7F8941111A7
:103F100005C09C91ED2FE095E92302C0EC91ED2BBB
:103F2000EC938FBFDF91CF911F910895CF93DF93D3
:103F300090E0FC01E659FE4F2491FC01EC5DFE4F40
:103F40008491882361F190E0880F991FFC01EC5364
:103F5000FA4FC591D491FC01E252FA4FA591B49168
:103F6000611109C09FB7F8948881209582238883C6
:103F7000EC912E230BC0623061F49FB7F894388126
:103F8000822F809583238883EC912E2B2C939FBFC7
:103F900006C08FB7F894E8812E2B28838FBFDF915E
:103FA000CF9108958F929F92AF92BF92CF92DF925E
:103FB000EF92FF926B017C016ADE4B015C01C11440
:103FC000D104E104F104E9F062DEDC01CB018819DF
:103FD0009909AA09BB09883E9340A105B10578F368
:103FE00021E0C21AD108E108F10888EE880E83E0CA
:103FF000981EA11CB11CC114D104E104F10421F7E5
:10400000DECFFF90EF90DF90CF90BF90AF909F906A
:104010008F9008952FB7F8946091490770914A07DF
:1040200080914B0790914C072FBF08951F920F92DC
:104030000FB60F9211242F933F938F939F93AF93BB
:10404000BF938091490790914A07A0914B07B09187
:104050004C073091480723E0230F2D3720F40196B9
:10406000A11DB11D05C026E8230F0296A11DB11D9B
:10407000209348078093490790934A07A0934B07E2
:10408000B0934C0780914D0790914E07A0914F0738
:10409000B09150070196A11DB11D80934D079093DB
:1040A0004E07A0934F07B0935007BF91AF919F91D8
:1040B0008F913F912F910F900FBE0F901F901895E9
:1040C000CF92DF92EF92FF920F931F93CF93DF93E4
:1040D000EC0181E08093E20688E680934707109226
:1040E000BC051092BB0560E08EE098E00E94A90438
:1040F0008091BB05813208F045C09091BA059111BD
:10410000FCCF92E09093BA0591E09093B9059FEFB0
:10411000909326071092250780932407A3EEB6E01C
:1041200023E037E0F9019E2F921B981718F49D9118
:104130009193F9CF1092230780912307806D80938C
:1041400023078091B805813061F41092B805809101
:1041500023078093BB008091BC0083FDF8CF85ECE2
:1041600001C085EE8093BC008091BA058230E1F3F6
:10417000809126078F3F31F080912607803211F021
:10418000809126071092BC051092BB051092E206A2
:104190008091BA058111FCCF81E08093BA058093AC
:1041A000B9059FEF909326071092250796E090930C
:1041B00024078093230780912307806D8093230732
:1041C0008091B805813061F41092B8058091230781
:1041D0008093BB008091BC0083FDF8CF85EC01C0CB
:1041E00085EE8093BC008091BA058130E1F3809127
:1041F0002507873018F48091250701C087E0A3E0E8
:10420000B7E027E237E0F9019E2F921B981718F4C8
:104210009D919193F9CF1092BE058093BD058EE0DC
:1042200098E00E945E048F77982F92959F701AEF06
:10423000082F919F000D11248EE098E00E945E04EB
:104240009C01332794E0359527959A95E1F7F82E50
:10425000129FF00C11248EE098E00E945E049C01F5
:10426000332744E0359527954A95E1F7E82E129FCC
:10427000E00C11248EE098E00E945E048EE098E04D
:104280000E945E049C01332754E0359527955A958A
:10429000E1F7D82E129FD00C11248EE098E00E94F6
:1042A0005E049C01332764E0359527956A95E1F714
:1042B000C82E129FC00C11248EE098E00E945E046C
:1042C0009C01332774E0359527957A95E1F7129F85
:1042D000800D11248883C982DA82EB82FC820D83EF
:1042E000CE01DF91CF911F910F91FF90EF90DF9062
:1042F000CF900895FC01DB018C91808311968C9105
:104300001197818312968C911297828313968C91C8
:104310001397838314968C911497848315968C91AC
:10432000858308958F929F92AF92BF92CF92DF9232
:10433000EF92FF920F931F93CF93DC011796CC91CE
:104340001797662311F08C2F01C080E018962C91EE
:10435000189730E0220F331F26553A4F40E050E0C7
:10436000BA01F90105911491F80190819C239813E9
:1043700015C06A017B019FEFC91AD90AE90AF90A37
:104380001D968D909D90AD90BC9050974815590505
:104390006A057B0538F4B701A601E3CF342F252F3A
:1043A000CB0104C030E020E080E090E0632F722F6A
:1043B000CF911F910F91FF90EF90DF90CF90BF9022
:1043C000AF909F908F9008958F929F92AF92BF92DF
:1043D000CF92DF92EF92FF920F931F93CF93DF93D1
:1043E000DA01CD91DC91FB0184859585C817D90749
:1043F0000CF049C0CE01880F991F0284F385E02D8F
:10440000E80FF91F80809180C170DD27F1E0CF2790
:10441000209719F484E690E002C08CE99FEF5901DF
:104420006A017801E80EF91EB701C40155DC892B39
:1044300089F4E00EF11EB701C4014EDC892B69F44A
:10444000B701600F711FC40147DC892BF9F023E02D
:1044500030E005C021E030E002C022E030E0D501CC
:104460008D919C91119701968217930744F0F50165
:1044700011821082D6018D919C91119701968D9396
:104480009C93CE0105C081E090E002C08FEF9FEFCA
:10449000DF91CF911F910F91FF90EF90DF90CF9020
:1044A000BF90AF909F908F9008951F920F920FB67C
:1044B0000F9211240BB60F922F933F934F935F935C
:1044C0006F937F938F939F93AF93BF93CF93DF931C
:1044D000EF93FF932091C00530E0F901E850FA4FC7
:1044E0008491F901E659FE4FD491F901EC5DFE4F3C
:1044F000C491CC2399F0811174DBEC2FF0E0EE0F26
:10450000FF1FE655FA4FA591B491EC91ED2331E0F0
:1045100020E009F430E0832F922F02C080E090E089
:104520002091C4053091C5052F5F3F4F3093C505DD
:104530002093C4052091C305253618F026E020936A
:10454000BF052091BF052430D9F128F4223069F04D
:104550002330D9F060C0253009F453C0263009F06B
:104560005AC021E02093900653C0009709F053C031
:104570002091C4053091C5052436310508F443C0A7
:10458000109290061092C3051DC08130910509F06C
:1045900042C0E091C30521E02E0F2093C305F0E057
:1045A0002091C4053091C505EE0FFF1FE154FA4F6D
:1045B000308727831092C5051092C40524E029C0D6
:1045C0000097B9F4E091C30521E02E0F2093C305B5
:1045D000F0E02091C4053091C505EE0FFF1FE154B6
:1045E000FA4F308727831092C5051092C40523E047
:1045F00010C02091C4053091C5052536310558F00D
:1046000007C0009741F41092C5051092C40503C07D
:1046100025E02093BF052091C2052223B1F0892B0C
:1046200051F48091C105882321F08091C10561E09A
:1046300009C02F9A0AC08091C105882329F0809172
:10464000C10560E044DC01C02F98FF91EF91DF913C
:10465000CF91BF91AF919F918F917F916F915F911A
:104660004F913F912F910F900BBE0F900FBE0F9067
:104670001F901895CF92DF92EF92FF920F931F93A6
:10468000CF93DF93EC017A018B016C01C40ED51E30
:10469000CC15DD0579F031D08FE047D08D2F45D096
:1046A0008C2F43D0219680E040D0F80181938F0178
:1046B00022D0EECFC701DF91CF911F910F91FF90D4
:1046C000EF90DF90CF90089508951F93CF93DF93DD
:1046D000182F66E270E079D8C82FD0E067E270E06A
:1046E000812F73D8DC2FCC279E01282BC901DF91A5
:1046F000CF911F9108952C9A08952C9808951F9397
:10470000CF93DF93182F60E270E05FD8C82FD0E01E
:1047100061E270E0812F59D8DC2FCC279E01282B35
:10472000C901DF91CF911F9108958EBD00000DB496
:1047300007FEFDCF8EB50895CF92DF92EF92FF92E4
:104740000F931F93CF93DF93EC017A018B016C01E0
:10475000C40ED51ECC15DD0571F0CFDF80EFE5DF8F
:104760008D2FE3DF8C2FE1DF2196F80181918F01FE
:10477000DCDFC1DFEFCFC701DF91CF911F910F9138
:10478000FF90EF90DF90CF9008951F93CF93DF932A
:104790001F921F92CDB7DEB7182F80E590E0698396
:1047A0007A830E94CD1521E041E050E069817A8151
:1047B000812F1DD20E94CC1581E090E00F900F90C8
:1047C000DF91CF911F910895FF920F931F93CF9385
:1047D000DF93F82E80E590E00E94CD15C0E0D0E098
:1047E0008F2D73DF8C01892B19F08F2D6EDFEC017B
:1047F000C017D107A9F70E94CC15CE01DF91CF9148
:104800001F910F91FF900895AF92BF92CF92DF92C8
:10481000EF92FF921F93CF93DF93182F5B017A01E2
:1048200080E590E00E94CD15C0E0D0E0812F4DDF03
:104830006C01892B19F0812F48DFEC01CC15DD05C7
:10484000A9F7209799F463E070E0812F0E94E51B9F
:104850008431E1F08823D1F0C1E0D0E08C3111F453
:10486000C0E0D0E0D195C195D10910C0EC16FD068D
:104870000CF4E7011C161D064CF420E0AE01B50156
:10488000812FB5D160E470E0812FA1D10E94CC15B9
:10489000CE01DF91CF911F91FF90EF90DF90CF90ED
:1048A000BF90AF900895CF93C82F80E590E00E940D
:1048B000CD1560E170E08C2F8AD14FEF62E070E09F
:1048C0008C2F0E94C21BCF910C94CC15FF920F939A
:1048D0001F93CF93DF931F921F92CDB7DEB7F82EB1
:1048E0008A012A836983DFDF80E590E00E94CD158D
:1048F0002A816981462F422B60E070E08F2D0E9453
:10490000C21B0115110551F4009151071091520776
:104910000F5F1F4F1093520700935107412F64E020
:1049200070E08F2D0E94C21B402F65E070E08F2D3C
:104930000E94C21B61E070E08F2D49D10E94CC150E
:1049400081E00F900F90DF91CF911F910F91FF9019
:104950000895BF92CF92DF92EF92FF920F931F9331
:10496000CF93DF9300D000D0CDB7DEB7FC01208D10
:10497000243009F050C06A017B018C01B12C63E046
:1049800070E08B2D0E94E51B811103C0F801B08EF1
:1049900006C08831D9F3B394F4E0BF12F0CFF80128
:1049A000808D8430C1F196E0ECE1F3E0DE011196F8
:1049B00001900D929A95E1F7F70193819F779C837F
:1049C00094819D8395819E83B7016E5F7F4F90E0B8
:1049D000982F882744E050E0845F9B4FADDEB601FE
:1049E000F801808D0E94341CF801808D90E0982F92
:1049F000882746E050E0BE016F5F7F4F8A5F9B4F84
:104A00009BDEF801128E118E20E8A60162E0808DF7
:104A10005DDF81E001C080E026960FB6F894DEBF2E
:104A20000FBECDBFDF91CF911F910F91FF90EF90FF
:104A3000DF90CF90BF9008951F93CF93DF931F9285
:104A4000CDB7DEB7182F80E590E00E94CD1563E06A
:104A500070E0812F0E94E51B89830E94CC1589811B
:104A60000F90DF91CF911F9108950F931F93CF93D4
:104A7000DF938C01C0E0D0E0F801EC0FFD1F6491E2
:104A8000662371F0E0916307F09164070190F08173
:104A9000E02D83E697E01995892B11F02196ECCF54
:104AA000CE01DF91CF911F910F910895CF93DF93A6
:104AB000DCDFEC0164E175E083E697E00E94A22F61
:104AC0008C0F9D1FDF91CF910895CF92DF92EF92CF
:104AD000FF920F931F93CF93DF936B01770FEE0835
:104AE000FF08F7FE1BC0EC016DE20E949B2F8C01BA
:104AF00044275527BA014C195D096E097F092AE040
:104B0000CE010E94B72F800F911FDF91CF911F918F
:104B10000F91FF90EF90DF90CF9008952AE0B701BA
:104B2000A601DF91CF911F910F91FF90EF90DF9041
:104B3000CF900C94B72FCF93DF93BC0183E697E01F
:104B40000E94A22FEC0164E175E083E697E00E94E9
:104B5000A22F8C0F9D1FDF91CF910895CF92DF92EE
:104B6000EF92FF92CF93DF936C01990FEE08FF084D
:104B7000F7FE16C06DE283E697E00E949B2FEC01E2
:104B800044275527BA014C195D096E097F092AE0AF
:104B900083E697E00E94B72F7C01EC0EFD1E08C053
:104BA0002AE0B701A60183E697E00E94B72F7C01B7
:104BB00064E175E083E697E00E94A22F8E0D9F1DB1
:104BC000DF91CF91FF90EF90DF90CF900895CF933A
:104BD000C82F462F61E070E00E94C21B61E070E0C8
:104BE0008C2F0E94E51B8111F9CFCF9108958F92F0
:104BF0009F92AF92BF92CF92DF92EF92FF920F936C
:104C00001F93CF93DF93B82E4B018A01A22E68E247
:104C100070E00E94E51BC82FD0E069E270E08B2DA8
:104C20000E94E51BDC2FCC27C82B9E013770CB2CB4
:104C3000D12CC601880F991FAC01455A584F6A0103
:104C4000FA0180819181820F931FA801420F531FA7
:104C50004130584090F060E078E07B01E21AF30ABE
:104C6000A701B40107DDA8014E195F09B4016E0D5B
:104C70007F1DF6018081918102C0A801B401FADC98
:104C8000A1100EC0C00FD11F4D2F68E270E08B2D18
:104C90000E94C21B4C2F69E270E08B2D0E94C21B48
:104CA000DF91CF911F910F91FF90EF90DF90CF9008
:104CB000BF90AF909F908F9008959F92AF92BF92B8
:104CC000CF92DF92EF92FF920F931F93CF93DF93D8
:104CD000982E8B015A01690164E270E00E94E51B85
:104CE000E82EF12C65E270E0892D0E94E51BFE2C78
:104CF000EE24E82AE701C00FD11F9E013770E92C8E
:104D0000F12CC701880F991FAC014D5A584F7A01F9
:104D1000FA0180819181820F931FA9014C0D5D1DC5
:104D20004130584088F000E018E0021B130BA80146
:104D3000B50102DDA601401B510BB501600F711FCB
:104D4000F7018081918102C0A601B501F5DCCC0D8F
:104D5000DD1D4D2F64E270E0892D0E94C21B4C2F97
:104D600065E270E0892DDF91CF911F910F91FF9047
:104D7000EF90DF90CF90BF90AF909F900C94C21BAC
:104D8000FF920F931F93CF93DF93F82EC0E0D0E0F4
:104D90008F2DB5DC8C01892B19F08F2DB0DCEC0147
:104DA000C017D107A9F7CE01DF91CF911F910F91C5
:104DB000FF900895FB01249180E090E0222331F0E0
:104DC0000196FB01E80FF91F2491F8CF0895FB012C
:104DD00001900020E9F7CF010197861B970B0895FA
:104DE000CF93DF93EB0102960E94FF2FBE0183E673
:104DF00097E00E94FF2FFE0101900020E9F7CF010C
:104E000001978C1B9D0BDF91CF910895CF92DF927C
:104E1000EF92FF920F931F93CF936B01FB01C4910D
:104E200000E010E07C01F2E0EF0EF11CCC2381F0F9
:104E30000F5F1F4F6C2FC7010E949B2F6C2F83E6C3
:104E400097E00E949B2FF601E00FF11FC491EECF77
:104E5000C801CF911F910F91FF90EF90DF90CF90FD
:104E600008954F925F926F927F928F929F92AF922E
:104E7000BF92EF92FF920F931F93CF93DF9300D0D7
:104E80001F92CDB7DEB72A013B0119821A821B821D
:104E90001C82CB01BA010E94A8484B015C019F9281
:104EA0006F938FE695E09F938F938E010F5F1F4F57
:104EB0001F930F930E947149F80101900020E9F7B8
:104EC0007F01E01AF10AB401990C880B990B0E943A
:104ED00055469B01AC01C301B2010E94DB4720E0B3
:104EE00030E040E251E40E94B4464B015C010F9077
:104EF0000F900F900F900F900F9020E030E0A901DD
:104F00000E94D94820E030E040E05FE387FD05C023
:104F1000C501B4010E94DC4704C0C501B4010E9470
:104F2000DB470E94A8489F938F937F936F938FE6F0
:104F300095E09F938F931F930F930E947149F801FF
:104F400001900020E9F73197CF01801B910B0FB63C
:104F5000F894DEBF0FBECDBF8E0D9F1D0F900F903A
:104F60000F900F90DF91CF911F910F91FF90EF90D5
:104F7000BF90AF909F908F907F906F905F904F9079
:104F800008954F925F926F927F928F929F92AF920D
:104F9000BF92CF92DF92EF92FF920F931F93CF9326
:104FA000DF9300D01F92CDB7DEB74C016A017B01C1
:104FB00019821A821B821C82CB01BA010E94A84866
:104FC0002B013C015F926F938FE695E09F938F9347
:104FD0008E010F5F1F4F1F930F930E947149B801FD
:104FE000C401FEDE5C016BE174E0C401F9DEA80ED1
:104FF000B91EB201550C880B990B0E9455469B01B6
:10500000AC01C701B6010E94DB4720E030E040E27E
:1050100051E40E94B4466B017C010F900F900F90F9
:105020000F900F900F9020E030E0A9010E94D94826
:1050300020E030E040E05FE387FD05C0C701B60136
:105040000E94DC4704C0C701B6010E94DB470E94F2
:10505000A8489F938F937F936F938FE695E09F93DC
:105060008F931F930F930E947149B801C401B8DE5A
:105070000FB6F894DEBF0FBECDBF8A0D9B1D0F90FB
:105080000F900F900F90DF91CF911F910F91FF9094
:10509000EF90DF90CF90BF90AF909F908F907F90D8
:1050A0006F905F904F900895DF92EF92FF920F9371
:1050B0001F93CF93DF931F92CDB7DEB77C018B0197
:1050C000D42EBE016F5F7F4FC8010E94B60A82E0F6
:1050D000E80EF11C6981662309F10F5F1F4FDD2087
:1050E00031F0C70128D7698183E697E024D79981F9
:1050F000892F8F7D81548A3150F09D3241F0905339
:105100009A3028F062E775E083E697E078D7BE0131
:105110006F5F7F4FC8010E94B60ADCCFC8010F90B5
:10512000DF91CF911F910F91FF90EF90DF90089545
:10513000CF93DF93EB0140E0B7DF8C1B9D0BDF913A
:10514000CF910895CF93DF93EB0141E0ADDF8C1B4E
:105150009D0BDF91CF910895CF93DF93EC018AE708
:1051600095E0E9DC8A899B890E94481483E895E0F0
:10517000E2DC80E090E0DF91CF910895EF92FF9222
:105180000F931F93CF93DF931F92CDB7DEB77C01B0
:10519000BE016F5F7F4F80E090E00E94B60A00E0A2
:1051A00010E082E0E80EF11C6981662379F00F5F60
:1051B0001F4FC701C0D6698183E697E0BCD6BE0108
:1051C0006F5F7F4FC8010E94B60AEECF0F90DF914C
:1051D000CF911F910F91FF90EF900895CF93DF93A0
:1051E00040E550E06BE875E002960E942019EC0162
:1051F000B5DC81E0CD2B09F480E0DF91CF910895FB
:10520000FB012491DA0180E090E0222339F02D9314
:105210000196FB01E80FF91F2491F7CF0895EF9253
:10522000FF921F93CF93DF93FB011491EB017C015D
:10523000F2E0EF0EF11C2196112351F0612FC7010E
:105240007AD6612F83E697E076D6FE011491F3CFEC
:10525000DF91CF911F91FF90EF9008956EE376E07C
:10526000DECFAF92BF92CF92DF92EF92FF920F9379
:105270001F93CF93DF93CDB7DEB728970FB6F8947F
:10528000DEBF0FBECDBF8C016EEC73E0C8DF65E4FE
:1052900076E0C8018FDD7C0119821A821B821C8294
:1052A0001D821E821F821886D801ED91FC91838198
:1052B0008F9382818F938FE6A82E85E0B82EBF92C0
:1052C000AF92CE0101966C019F938F930E9471491A
:1052D000F60101900020E9F73197EC19FD09EE0E77
:1052E000FF1E61E476E0C80165DDE80EF91EB70136
:1052F000C8010296EADBB70183E697E0E6DBC80166
:10530000ADDFC801ABDF65E476E0C8017FDD19825F
:105310001A821B821C821D821E821F821886D8015F
:10532000ED91FC9183818F9382818F93BF92AF9295
:10533000DF92CF920E947149B601C80151DD61E44C
:1053400076E0C80163DD0FB6F894DEBF0FBECDBFB7
:1053500028960FB6F894DEBF0FBECDBFDF91CF9178
:105360001F910F91FF90EF90DF90CF90BF90AF9083
:1053700008958F929F92AF92BF92CF92DF92EF9259
:10538000FF920F931F93CF93DF93CDB7DEB72C9788
:105390000FB6F894DEBF0FBECDBF4C016EEC73E0CC
:1053A0003EDFCE0101960E946020BE016F5F7F4FFD
:1053B000CE0107960E947A2188E9C82E88E2D82E6D
:1053C000E12CF12C07EE16E220E030E04AED56E247
:1053D00060E070E0CE0107965C01C4018CD48C01C2
:1053E000BC01C401029671DBB80183E697E06DDB76
:1053F000C40134DFC40132DFBE016F5F7F4FC501DE
:105400000E947A2192EAC92E98E2D92EE12CF12C41
:1054100000EF16E220E030E046E057E260E070E0A6
:10542000C40169D42C960FB6F894DEBF0FBECDBF71
:10543000DF91CF911F910F91FF90EF90DF90CF9070
:10544000BF90AF909F908F9008952F923F924F9270
:105450005F926F927F928F929F92AF92BF92CF9204
:10546000DF92EF92FF920F931F93CF93DF93CDB70D
:10547000DEB768970FB6F894DEBF0FBECDBF3C0114
:105480006EEC73E0CCDECE0101960E946020D30169
:105490000D911C91C8010E9423139E878D87D8010E
:1054A0001C96ED91FC911D97B481BF878581888BF7
:1054B00026809781998BA085AA8BB185BB8B82852D
:1054C0008C8B93859D8B50804180652D742DD801E8
:1054D0001E968D919C911F970E943C0D8E8B392EAC
:1054E000B8016A5F7F4FCE0107960E947A2121E3BF
:1054F000822E27E2922EA12CB12C38E9C32E38E25D
:10550000D32EE12CF12C07EE16E220E030E04AED3C
:1055100056E260E070E0E1E08D859E85892B09F41C
:10552000E0E0EF9399899F932F92A889AF93BF856D
:10553000BF93ED89EF93FC89FF938B898F939A89B1
:105540009F933F92AE89AF934F925F922E01B7E047
:105550004B0E511C5F924F92C30104D28C01BC01CF
:10556000C3010296B2DAB80183E697E0AEDAC3016E
:1055700075DEC30173DEF30100811181C8010E9451
:1055800023139E878D87D8011C96ED91FC911D9762
:10559000B481BF878581888B9681998BA781AA8BDF
:1055A000B085BB8B81858C8B92859D8BA385AE8BC3
:1055B00030802180632D722DF801868597850E94A9
:1055C0003C0D8F8B988FB8016A5F7F4FC2010E949C
:1055D0007A2181EC882E87E2982EA12CB12C92EAB8
:1055E000C92E98E2D92EE12CF12C00EF16E220E032
:1055F00030E046E057E260E070E0E1E08D859E85B6
:10560000892B09F4E0E0EF939A899F93A989AF93DE
:10561000B889BF93EF85EF93FE89FF938D898F93B0
:105620009C899F93AB89AF93B88DBF93EF89EF931C
:105630002F923F92FE013796FF93EF93C30192D1D1
:105640000FB6F894DEBF0FBECDBF68960FB6F894C4
:10565000DEBF0FBECDBFDF91CF911F910F91FF90A5
:10566000EF90DF90CF90BF90AF909F908F907F9002
:105670006F905F904F903F902F900895CF92DF9260
:10568000EF92FF920F931F93CF93DF93EC016B0187
:10569000F42EA4DD882359F18CE697E007DAB601F1
:1056A000CE01E11002C0BBDD06C00296A8D4B6014F
:1056B00083E697E0A4D462E477E0CE01B0DDFF207A
:1056C00011F0CE015BDD6EE277E0CE01A8DD6DE08A
:1056D00077E0CE01A4DD63EF76E0CE01A0DDCE0160
:1056E000F8011995CE01BADD80EF96E002C08EED8B
:1056F00096E0DF91CF911F910F91FF90EF90DF9097
:10570000CF90D4C98F929F92AF92BF92CF92DF92E7
:10571000EF92FF920F931F93CF93DF93CDB7DEB736
:10572000C054D1400FB6F894DEBF0FBECDBF8C0180
:105730000E940A20F801C184D284E384F4849B018E
:10574000AC012C193D094E095F0969017A0130ED60
:10575000C31637E0D306E104F10410F48189B4C024
:10576000F80161877287838794871482138212827B
:105770001182108261E085810E94671F6AEF70E0EC
:1057800080E090E00E94D21F61E0F80185810E94D4
:10579000961F60E0F80185810E94671F64E170E058
:1057A00080E090E00E94D21FF89461E0F8018581CA
:1057B0000E94671F8BE990E00197F1F762E0F80122
:1057C00085810E94961F83E290E00197F1F760E0E7
:1057D000C8010E949221672B682B692B21F4F801E4
:1057E000118A789442C061E0C8010E949221672B1F
:1057F000682B692BA1F39E012F5F3F4F79015E015A
:105800003FEBA31A3EEFB30A670160E0C8010E94B4
:105810009221F601608371838283938361E0C801E2
:105820000E949221F6016483758386839783F8E052
:10583000CF0ED11CCA14DB0441F7789420E030E08D
:10584000F701408151816281738184809580A680B7
:10585000B780411551056105710529F08114910446
:10586000A104B10421F4F801118A80E02DC0F901EE
:1058700083E0F595E7958A95E1F7E00FF11F8081C8
:10588000880F481559056A057B0508F481608083F7
:105890002F5F3F4FF8E0EF0EF11C2832310581F603
:1058A000F801248130E04081818190E0840F911DD6
:1058B0004281840F911D4381840F911D99272817E0
:1058C000390789F681E0818BC05CDE4F0FB6F89412
:1058D000DEBF0FBECDBFDF91CF911F910F91FF9023
:1058E000EF90DF90CF90BF90AF909F908F900895F2
:1058F0000F931F930E940A2060936B0770936C07AD
:1059000080936D0790936E07E0916307F0916407B1
:105910000484F585E02D83E697E0199597FF1FC075
:105920000E940A2000916B0710916C0720916D076F
:1059300030916E07DC01CB01801B910BA20BB30BE6
:1059400000916707109168072091690730916A07F5
:1059500080179107A207B307B8F28FEF9FEF1F914F
:105960000F9108952F923F924F925F926F927F9284
:105970008F929F92AF92BF92CF92DF92EF92FF925F
:105980000F931F93CF93DF93CDB7DEB72D970FB64D
:10599000F894DEBF0FBECDBF3C018DA18C879EA1C8
:1059A0009D875F834E83DB86CA869986888665ECF1
:1059B00076E0C301FA0119954C01EBA1FCA18081AD
:1059C00090E08053984F9F938F938FE695E09F933D
:1059D0008F93CE0101966C019F938F930E94714922
:1059E000B601C301F8011995880E991E61EC76E0A5
:1059F000C301EE81FF811995880E991E0F900F90BB
:105A00000F900F900F900F90A12CB12C8FE6282EA5
:105A100085E0382EA114B10451F4EBA1FCA18181E1
:105A2000482E512CFAE04F1651043CF10FC181E091
:105A3000A816B10451F4EBA1FCA18281482E512C8F
:105A4000FAE04F165104CCF016C182E0A816B1045A
:105A500021F4EBA1FCA143800BC0F3E0AF16B1042D
:105A600021F4EBA1FCA1448003C0EBA1FCA1458083
:105A7000512CFAE04F1651043CF563EC76E0C3017B
:105A8000EE81FF8119955F924F923F922F92DF92A4
:105A9000CF920E947149B601C301F8011995880E91
:105AA000991E0F900F900F900F900F900F90A114D0
:105AB000B10419F461EC76E021C0F1E0AF16B10455
:105AC000B9F46FEB76E01AC05F924F923F922F923B
:105AD000DF92CF920E947149B601C301F801199576
