:10000000A0C30000CFC30000CDC30000CBC30000DD
:10001000C9C30000C7C30000C5C30000C3C30000BC
:10002000C1C30000BFC30000BDC30000BBC30000CC
:10003000B9C300001FC40000B5C30000B3C3000073
:10004000B1C30000AFC30000ADC30000ABC30000EC
:10005000A9C30000A7C30000A5C300000C942E1B79
:10006000A1C300000C94F3190C94CA199BC300009F
:1000700099C3000097C3000095C3000093C300001C
:1000800091C300008FC300008DC300008BC300002C
:1000900089C3000087C3000085C300000C943D0D98
:1000A00081C300007FC300007DC300007BC300004C
:1000B00079C3000077C3000075C3000073C300005C
:1000C00071C300006FC300006DC300006BC300006C
:1000D00069C3000067C3000065C3000063C300007C
:1000E00061C30000DD133E1349137D133E139913C2
:1000F000BE133C13441A471A361A3A1A401A7E1A8B
:100100004B1A4F1A551A591A5D1A631A671A6B1A45
:100110007E1A711A751A791A07634236B79BD8A7E7
:100120001A39685618AEBAAB558C1D3CB7CC57631C
:10013000BD6DEDFD753EF6177231BF000000803FCA
:1001400008000000BE922449123EABAAAA2ABECDE6
:10015000CCCC4C3E00000080BEABAAAAAA3E000058
:100160000000BF000000803F000000000008417850
:10017000D3BB4387D1133D190E3CC3BD4282AD2B87
:100180003E68EC8276BED98FE1A93E4C80EFFFBE7F
:1001900001C4FF7F3F00000000001F1C1F1E1F1E28
:1001A0001F1F1E1F1E1F0505050507050808080857
:1001B000020202020A0A08080404040401010101FF
:1001C00001010101030303030303030304070707FA
:1001D0000C0C0C0C0C0C0C0C02020202060606069F
:1001E000060606060B0B0B0B0B0B0B0B010210206C
:1001F000200808102040102040800201020108045D
:1002000002010102040810204080804020100804F0
:100210000201800402018040201008040201080449
:10022000020101020408102040800102040810208D
:100230004080646F6E652E00496E697469616C69F7
:1002400073696E672044485432322073656E736F51
:10025000722E2E2E0900646F6E652E00496E697431
:1002600069616C6973696E6720495272656D6F745C
:10027000652073656E736F722E2E2E0900646F6E8B
:10028000652E00496E697469616C6973696E6720D7
:1002900052544320636F6D6D756E69636174696F4D
:1002A0006E732E2E2E0900536574757020636F6D6A
:1002B000706C657465210057726F6E672072656D92
:1002C0006F7465210020485454502F312E310D0A8F
:1002D00000474554202F6170692F436F64652F6C70
:1002E00061746573742F002C22616374696F6E4EA4
:1002F000616D650022616374696F6E223A0050552A
:1003000054202F6170692F436F64652F6C61746591
:10031000737420485454502F312E310D0A002F731E
:10032000746174757320485454502F312E310D0A66
:1003300000505554202F6170692F446576696365BC
:100340002F002200504F5354202F6170692F61639A
:10035000636F756E7420485454502F312E310D0A3E
:10036000004448435020726562696E643A20737598
:100370006363657373004448435020726562696E1D
:10038000643A206661696C65640044484350207299
:10039000656E6577616C3A2073756363657373008E
:1003A000444843502072656E6577616C3A206661FF
:1003B000696C656400444843502072656E657761DE
:1003C0006C3A206E6F7468696E6720686170706542
:1003D0006E6564004469646E277420777269746581
:1003E0002C20746861742773207768617420796F9A
:1003F000752077616E7465642C2072696768743F3C
:1004000000646973636F6E6E656374696E672E0056
:10041000646973636F6E6E656374696E672E004303
:100420007573746F6D206D6F64653A206C696768D1
:1004300074204F46462E00437573746F6D206D6FA8
:1004400064653A206C69676874204F4E2E00504FE7
:100450005354202F6170692F656E7472792048544F
:1004600054502F312E310D0A003B003A003A002043
:10047000002F002F002D2D2D2D2D2D2D2D2D2D2D2F
:100480002D2D2D2D2D002D2D2D2D2D2D2D2D2D2DC9
:100490002D2D2D2D2D2D00000020002300260029BC
:1004A000002C002F003200000100000301060109AA
:1004B0000100002100240027002A002D0030003315
:1004C0000001010000040107010A010000220025CB
:1004D0000028002B002E003100340002010000052E
:1004E0000108010B0100000A0B02090C0D0E0807A0
:1004F00003040100000000000000000000000000F4
:1005000000000000000000000000000000000000EB
:1005100000121110000000000000000000000000A8
:100520000000000000000000000000227D0D0A0015
:10053000222C226465766963654964223A22007B35
:10054000226461746554696D65223A2200227D0D32
:100550000A007D2C226465766963654964223A222B
:10056000002C224C696768745374617465223A00E8
:100570002C2241697254656D706572617475726583
:10058000223A00222C2241697248756D69646974AF
:1005900079223A002C22536F696C44657363726947
:1005A0007074696F6E223A2200222C22536F696C9C
:1005B0004D6F697374757265223A003A0020002D00
:1005C0000030007B226D656173757265223A7B2273
:1005D0004461746554696D65223A2200636F6E6EE2
:1005E000656374696F6E206661696C6564006F6B2A
:1005F0000043616368652D436F6E74726F6C3A20BF
:100600006E6F2D63616368650D0A00436F6E7465DC
:100610006E742D547970653A206170706C696361F5
:1006200074696F6E2F6A736F6E0D0A00436F6E6E82
:10063000656374696F6E3A20636C6F73650D0A00B1
:10064000486F73743A206761726475696E6F707277
:100650006F6A6563742E617A757265776562736916
:100660007465732E6E65740D0A004D616B652061B3
:1006700020485454502072657175657374202E2E75
:100680002E2000474C4F42414C204C4F434B204FB3
:1006900046462E00474C4F42414C204C4F434B2086
:1006A0004F4E2E004C696768742061646D696E203E
:1006B0006D6F6465204F46462E004C696768742054
:1006C00061646D696E206D6F6465204F4E2E000D64
:1006D0000A007D0D0A007B225374617465223A0082
:1006E0007B22456D61696C223A2261646D696E40BE
:1006F00061646D696E2E6F7267222C225061737374
:10070000776F7264223A2241646D696E5F70726F16
:100710006A656B7430222C2252656D656D6265725C
:100720004D65223A2266616C7365227D0D0A004395
:100730006F6E74656E742D4C656E6774683A200038
:10074000654211241FBECFEFD1E2DEBFCDBF00E076
:100750000CBF15E0A0E0B2E0E8E4F8E900E00BBF70
:1007600002C007900D92A634B107D9F728E0A6E49D
:10077000B5E001C01D92A234B207E1F713E0C1EA6F
:10078000D3E000E006C021970109802FFE010E94FE
:10079000E748C03AD10780E00807A9F70E94522F26
:1007A0000C94224C2DCC0895CF93DF931F92CDB79C
:1007B000DEB76983DC01ED91FC910280F381E02DCD
:1007C00041E050E0BE016F5F7F4F19950F90DF91C0
:1007D000CF9108951F93CF93DF93182F66E270E0B7
:1007E0000E94C41EC82FD0E067E270E0812F0E94F3
:1007F000C41EDC2FCC279E01282BC901DF91CF918D
:100800001F910895AF92BF92CF92DF92FF920F9304
:100810001F93CF93DF938C015B01EA01FC01C68833
:10082000D788F08C80E590E00E945E148F2D0E94A6
:100830001A2A8C179D0720F48F2D0E941A2AEC018A
:100840009E01A501B6018F2D0E94B5290E945D145D
:10085000F801868997898C0F9D1F978B868BCE0117
:10086000DF91CF911F910F91FF90DF90CF90BF90BC
:10087000AF9008951F920F920FB60F9211240BB6EE
:100880000F922F933F934F935F936F937F938F9329
:100890009F93AF93BF93CF93DF93EF93FF932091F9
:1008A0004E0530E0F901EB51FB4F8491F901E45121
:1008B000FE4FD491F901EA55FE4FC491CC23A1F02B
:1008C00081110E94291AEC2FF0E0EE0FFF1FE9566C
:1008D000FB4FA591B491EC91ED2331E020E009F4B8
:1008E00030E0832F922F02C080E090E020915205EB
:1008F000309153052F5F3F4F30935305209352059E
:1009000020915105253618F026E020934D052091C1
:100910004D052430D9F128F4223069F02330D9F084
:1009200060C0253009F453C0263009F05AC021E0D8
:1009300020931E0653C0009709F053C02091520522
:10094000309153052436310508F443C010921E0639
:10095000109251051DC08130910509F042C0E0910F
:10096000510521E02E0F20935105F0E02091520512
:1009700030915305EE0FFF1FE35BFA4F308727835B
:10098000109253051092520524E029C00097B9F443
:10099000E091510521E02E0F20935105F0E02091C8
:1009A000520530915305EE0FFF1FE35BFA4F30877E
:1009B0002783109253051092520523E010C0209116
:1009C0005205309153052536310558F007C0009780
:1009D00041F4109253051092520503C025E0209374
:1009E0004D05209150052223B9F0892B51F48091B7
:1009F0004F05882321F080914F0561E009C02F9AAF
:100A00000BC080914F05882331F080914F0560E045
:100A10000E947F1A01C02F98FF91EF91DF91CF9133
:100A2000BF91AF919F918F917F916F915F914F9106
:100A30003F912F910F900BBE0F900FBE0F901F9004
:100A40001895CF92DF92EF92FF92CF93DF93EC0154
:100A5000072E000C880B990B0E94D8446B017C0177
:100A600020E030E040E45FE30E94374520E030E0E2
:100A700048E452E40E94D2460E943A47C617D7077C
:100A8000D4F020E030E040EA5FE3C701B6010E9405
:100A9000374520E030E048E452E40E94D24620E0AE
:100AA00030E040E85FE30E946E460E943A4721E052
:100AB0006C177D070CF420E0822F90E0DF91CF913E
:100AC000FF90EF90DF90CF9008952C9A08952C9886
:100AD00008951F93CF93DF93182F60E270E00E9478
:100AE000C41EC82FD0E061E270E0812F0E94C41EB6
:100AF000DC2FCC279E01282BC901DF91CF911F91BC
:100B000008958EBD00000DB407FEFDCF8EB508958B
:100B1000CF92DF92EF92FF920F931F93CF93DF93C9
:100B2000EC017A018B016C01C40ED51ECC15DD05DC
:100B300079F0CDDF8FE0E5DF8D2FE3DF8C2FE1DF74
:100B4000219680E0DEDFF80181938F01BEDFEECFDA
:100B5000C701DF91CF911F910F91FF90EF90DF9030
:100B6000CF900895CF92DF92EF92FF920F931F9351
:100B7000CF93DF93EC017A018B016C01C40ED51E7B
:100B8000CC15DD0571F0A3DF80EFBBDF8D2FB9DF62
:100B90008C2FB7DF2196F80181918F01B2DF95DFAD
:100BA000EFCFC701DF91CF911F910F91FF90EF9091
:100BB000DF90CF9008951F93CF93DF931F921F92E2
:100BC000CDB7DEB7182F80E590E069837A830E9465
:100BD0005E1421E041E050E069817A81812F0E941A
:100BE0004D290E945D1481E090E00F900F90DF91FD
:100BF000CF911F910895CF93DF931F92CDB7DEB7AA
:100C0000FC01218D328D232B41F0BE016F5F7F4FA0
:100C1000808DD1DF898190E002C08FEF9FEF0F9030
:100C2000DF91CF910895FF920F931F93CF93DF939E
:100C3000F82E80E590E00E945E14C0E0D0E08F2D99
:100C4000C9DD8C01892B19F08F2DC4DDEC01C01793
:100C5000D107A9F70E945D14CE01DF91CF911F91BA
:100C60000F91FF900895AF92BF92CF92DF92EF92D3
:100C7000FF921F93CF93DF93182F5B017A0180E5DA
:100C800090E00E945E14C0E0D0E0812FA3DD6C01F3
:100C9000892B19F0812F9EDDEC01CC15DD05A9F71C
:100CA000209799F463E070E0812F0E94C41E843184
:100CB000F1F08823E1F0C1E0D0E08C3111F4C0E024
:100CC000D0E0D195C195D10912C0EC16FD060CF407
:100CD000E7011C161D065CF420E0AE01B501812F72
:100CE0000E944D2960E470E0812F0E943D290E94FE
:100CF0005D14CE01DF91CF911F91FF90EF90DF90B7
:100D0000CF90BF90AF900895CF93DF93FC01218DDA
:100D1000328D2115310519F48FEF9FEF10C0EC01D2
:100D20004217530708F0A901888D9DDF1816190690
:100D30009CF7298D3A8D281B390B3A8F298FDF912B
:100D4000CF9108950F931F93CF93DF931F92CDB749
:100D5000DEB7FC01218D328D232B59F08C0141E04F
:100D600050E0BE016F5F7F4F808D7DDF1816190642
:100D70001CF08FEF9FEF08C0F801818D928D0197D5
:100D8000928F818F898190E00F90DF91CF911F9199
:100D90000F9108950F931F93CF93DF93CDB7DEB7D5
:100DA00028970FB6F894DEBF0FBECDBF8C01F801B7
:100DB000818D928D892B49F0D801ED91FC910284AF
:100DC000F385E02DC8011995F2CF808D2CDF181620
:100DD000190654F548E050E0BE016F5F7F4FD8011F
:100DE00058968C9140DF9C0118161906DCF4898115
:100DF0009A81AB81BC81F801808B918BA28BB38BE4
:100E00008D8190E0982F88272E81820F911D958BE0
:100E1000848B2F8130E0322F22278885280F311DC7
:100E2000328F218FC90102C080E090E028960FB672
:100E3000F894DEBF0FBECDBFDF91CF911F910F9110
:100E40000895CF93C82F80E590E00E945E1460E182
:100E500070E08C2F0E943D294FEF62E070E08C2FF4
:100E60000E949B1ECF910C945D14FF920F931F93D1
:100E7000CF93DF931F921F92CDB7DEB7F82E8A0172
:100E80002A836983DEDF80E590E00E945E142A8178
:100E90006981462F422B60E070E08F2D0E949B1EDF
:100EA0000115110551F40091290610912A060F5FD2
:100EB0001F4F10932A0600932906412F64E070E02B
:100EC0008F2D0E949B1E402F65E070E08F2D0E94A9
:100ED0009B1E61E070E08F2D0E943D290E945D14F1
:100EE00081E00F900F90DF91CF911F910F91FF90B4
:100EF0000895BF92CF92DF92EF92FF920F931F93CC
:100F0000CF93DF9300D000D0CDB7DEB7FC01208DAA
:100F1000243009F050C06A017B018C01B12C63E0E0
:100F200070E08B2D0E94C41E811103C0F801B08EA9
:100F300006C08831D9F3B394F4E0BF12F0CFF801C2
:100F4000808D8430C1F196E0E0EAF2E0DE01119696
:100F500001900D929A95E1F7F70193819F779C8319
:100F600094819D8395819E83B7016E5F7F4F90E052
:100F7000982F882744E050E0845F9B4FF3DDB60153
:100F8000F801808D0E941E1FF801808D90E0982F3F
:100F9000882746E050E0BE016F5F7F4F8A5F9B4F1E
:100FA000E1DDF801128E118E20E8A60162E0808D4D
:100FB0005CDF81E001C080E026960FB6F894DEBFCA
:100FC0000FBECDBFDF91CF911F910F91FF90EF909A
:100FD000DF90CF90BF9008951F93CF93DF931F9220
:100FE000CDB7DEB7182F80E590E00E945E1463E075
:100FF00070E0812F0E94C41E89830E945D14898144
:101000000F90DF91CF911F91089580E3FB018083C2
:101010003296842F82958F7090E1899F4019112418
:101020004A3014F4405D01C0495C4293482F81115D
:10103000F0CF089585ED8093BC008091BC0084FDC5
:10104000FCCF10924805089540914D06262F30E0C0
:10105000240F311D21323105DCF420914805243064
:10106000C9F4FC0180E090E0861758F430914D06F9
:101070002191DC01A55DB94FA30FB11D2C93019601
:10108000F3CF80914D06680F60934D0680E0089580
:1010900081E0089582E008950895E0914C058091E3
:1010A0004B05E81730F4F0E0E954F94F808190E007
:1010B00008958FEF9FEF089590914C0580914B0517
:1010C000981750F4E92FF0E0E954F94F208130E00F
:1010D0009F5F90934C0502C02FEF3FEFC901089529
:1010E00080914B0590E020914C05821B9109089559
:1010F000CF92DF92EF92FF920F931F93CF93DF93E4
:101100007C01262F972F8A0180917206882391F007
:10111000C62FD72F6E01C40ED51ECC15DD0569F084
:101120006991D701ED91FC910190F081E02DC7010B
:101130001995F3CF642F822F87DFC801DF91CF91FC
:101140001F910F91FF90EF90DF90CF900895CF9374
:10115000DF931F92CDB7DEB76983209172062223F9
:10116000D1F020914905203240F021E030E0FC012F
:101170003383228380E090E014C080914A05E82FF9
:10118000F0E0ED58F94F998190838F5F80934A0585
:101190008093490504C061E0CE01019655DF81E0EE
:1011A00090E00F90DF91CF910895089580E090E056
:1011B00008952F923F924F925F926F927F928F92FB
:1011C0009F92AF92BF92CF92DF92EF92FF920F93D6
:1011D0001F93CF93DF93CDB7DEB7E3970FB6F894A5
:1011E000DEBF0FBECDBF7C011A012B0139010E9469
:1011F000221B4B015C0187010D5B1F4FC801CADD3B
:1012000018161906A4F00E94221BDC01CB018819D4
:101210009909AA09BB09281639064A065B06D0F0C7
:1012200062E370E080E090E00E94EA1AE7CF42E2D9
:1012300050E0BE016F5F7F4FC80166DD898182305B
:1012400011F080E04BC1F8018489958983349105C0
:10125000C1F702C08FEF42C16D817E818F81988579
:101260000E94EF484B015C01F3016083718382832C
:10127000938346E050E0B701685F7F4FCE014D9603
:101280000E944549892BE9F6F70180819181A2816D
:10129000B38188169906AA06BB0698F284819581C7
:1012A000A681B78188159905AA05BB0550F28989E1
:1012B0009A89AB89BC8986879787A08BB18B8EEC86
:1012C000A82EB12CC8013EDDF1E0AF1AB108D1F76C
:1012D00019A6670182E2C80ED11CF701B696FBA7DA
:1012E000EAA7C7018A969DA78CA73C974F018996CC
:1012F0009FA78EA73897F9ABE8AB1701F6E12F0E41
:10130000311CC5979BAB8AABF801818D928D181665
:1013100019060CF0E2C0C80115DD8333910509F40C
:10132000BBC0ECF481309105A9F11CF4892B61F369
:10133000CAC083309105A9F1069709F0C4C0C8015D
:1013400001DD5C0144E050E06AA97BA9C801DCDC56
:10135000412C512CBB24F4E0AF1AB1083AC08A33B7
:10136000910509F471C03CF48533910569F0C69785
:1013700009F439C0A8C08B33910509F479C08F3FB7
:10138000910509F4C1CF9FC0C801DCDCC801DADCDB
:1013900089A7BACFC801D6DC44E050E068A979A992
:1013A00035C0C801CFDC5C0144E050E0B101C801A8
:1013B000ABDC412C512CBB2494E0A91AB1084A148F
:1013C0005B040CF0A1CFC801BDDCEFEF4E1A5E0A42
:1013D000F6CF4A145B040CF097CFC801B3DC8FEF53
:1013E000481A580AF6CFC801ADDCB82EF701828D35
:1013F00081110FC0838D81110CC0848D811109C0B2
:10140000858D811106C044E050E0B401C8017CDC48
:101410007BCFEEA5FFA54080518062807380B40130
:10142000CE0183960E94BA198DA19EA1AFA1B8A545
:1014300084159505A605B70531F3BB2009F464CFE3
:10144000C80180DCBA94F9CFC8017CDC44E050E0EC
:101450006AA57BA5C80158DCF70166A177A180A524
:1014600091A50E94EF4866A377A380A791A74CCFD0
:10147000C80168DC44E050E06CA57DA5C80144DCEF
:10148000F70162A573A584A595A50E94EF4862A700
:1014900073A784A795A738CFC80154DC44E050E077
:1014A000B601C80131DCF70162A173A184A195A145
:1014B0000E94EF4862A373A384A395A366A777A7AE
:1014C00080AB91AB21CFC8013DDCB82EBB2009F425
:1014D0001BCFC80137DCBA94F9CF89A5E3960FB6C4
:1014E000F894DEBF0FBECDBFDF91CF911F910F915A
:1014F000FF90EF90DF90CF90BF90AF909F908F9034
:101500007F906F905F904F903F902F9008957F92C3
:101510008F929F92AF92BF92CF92DF92EF92FF9203
:101520000F931F93CF93DF93CDB7DEB7A6970FB678
:10153000F894DEBF0FBECDBF8C01762E942E852E83
:1015400020E2B22ECE0101967C01FC012B2D1192DE
:101550002A95E9F784E593E09AA389A38FEF8BA3FB
:101560008CA38DA38EA3680183E4C80ED11C43E431
:1015700050E0BE016F5D7F4FC6010E942D1F019696
:1015800009F4B6C081E089838A8386E0A82EAB8205
:101590001C82F80164817581868197810E94EF48E1
:1015A0006D837E838F83988789869A8680E890E012
:1015B0009C878B874CE150E0B701C60123D9F70126
:1015C0002B2D11922A95E9F7480188E0880E911C8D
:1015D000F401D70101900D92AA94E1F740E150E0A7
:1015E000B701C6010FD9F7011192BA94E9F796E055
:1015F000A92EB12C40E250E0B701C60103D9F1E0B9
:10160000AF1AB108B9F783E6898392E89A8393E524
:101610009B838C8385E38D8381E08E837F829DE332
:10162000988797E099878A8786E0F401DE011B9608
:1016300001900D928A95E1F78CE0898B8A8B66EB9D
:1016400074E0CE0143960E945249F8014385BE01E1
:10165000675E7F4FC801D9DCF8014485BE01655E35
:101660007F4FC801D2DCF8014585BE01635E7F4F24
:10167000C801CBDC4EE150E0B701C601C3D8F3E0AE
:101680007F121DC082E3898384E08A83F8019685F6
:101690009B8397859C8390899D8391899E8396E304
:1016A0009F838887828D8987838D8A87848D8B87A6
:1016B000858D8C874CE050E0B701C601A3D887E345
:1016C000898386E08A8391E09B8393E09C838D836A
:1016D0008FE08E838AE38F838BE388878FEF898700
:1016E00049E050E0B701C6018DD8C6010E94EA1E4C
:1016F000A6960FB6F894DEBF0FBECDBFDF91CF9197
:101700001F910F91FF90EF90DF90CF90BF90AF901F
:101710009F908F907F900895EF92FF920F931F9369
:10172000CF93DF931F92CDB7DEB78C017B01FB0116
:10173000608169830E94EB456981681719F0C801CF
:101740000E94F345C7010F90DF91CF911F910F9138
:10175000FF90EF9008952F923F924F925F926F9279
:101760007F928F929F92AF92BF92CF92DF92EF9231
:10177000FF920F931F93CF93DF93CDB7DEB72797D9
:101780000FB6F894DEBF0FBECDBF8C010E94A144FE
:101790002FEC37E040E050E00E943246DC01CB0104
:1017A0000196A11DB11DF80184839583A683B7839B
:1017B00080839183A283B3835801F3E4AF0EB11CFD
:1017C000C5010E94181E64E470E0C5010E942D1E30
:1017D000882309F437C10E94221B2B013C01812C74
:1017E000912C1D82C8018E5B9F4F9F838E8343E0A7
:1017F000342E58EEC52E53E0D52EE12CF12C62E0AC
:10180000262EAE81BF818C91833009F402C18111F3
:101810001FC0F80184819581A681B7810196A11D21
:10182000B11D84839583A683B7830E94221B64190C
:10183000750986099709A70196010E941046A9011A
:1018400061E0C80164DE81E0AE81BF818C93C2C0DB
:101850008430F1F4F80184819581A681B7810196E5
:10186000A11DB11D84839583A683B7830E94221B8B
:101870006419750986099709A70196010E94104607
:10188000A90163E0C80143DEAE81BF812C92A2C0F2
:10189000813051F5F80142AD53AD64AD75AD9E0197
:1018A0002F5F3F4FC80185DC8D83823009F092C0E5
:1018B00089819A81AB81BC81F80184839583A68359
:1018C000B7830E94221B6419750986099709A7012D
:1018D00096010E941046A90163E0C80118DEED815F
:1018E000AE81BF81EC937DC0823009F073C0D80116
:1018F000DA964D915D916D917C91DD979E012F5F00
:101900003F4FC80156DC8D83853009F05CC0EE8105
:10191000FF813082F80182A193A1A4A1B5A1892BF6
:101920008A2B8B2B41F484E893E0A0E0B0E082A303
:1019300093A3A4A3B5A3F80186A197A1A0A5B1A5DF
:10194000892B8A2B8B2B61F482A193A1A4A1B5A131
:10195000B695A7959795879586A397A3A0A7B1A7B6
:10196000F80182A593A5A4A5B5A5892B8A2B8B2B5D
:10197000A9F482A193A1A4A1B5A1AC01BD0123E06A
:1019800076956795579547952A95D1F7841B950BC2
:10199000A60BB70B82A793A7A4A7B5A7F80186A1AA
:1019A00097A1A0A5B1A586A797A7A0ABB1AB82A52B
:1019B00093A5A4A5B5A582AB93ABA4ABB5AB882486
:1019C0008394912C0EC0FD81F63021F4AE81BF814D
:1019D0001C9207C0BD81BF3F21F4EE81FF811082C0
:1019E0001D82F1E08F16910409F40BCF0E94221B97
:1019F000DC01CB0184199509A609B709F80126A9CC
:101A000037A940AD51AD281739074A075B0708F0E1
:101A1000F8CEC5010E94181EF80184819581A68127
:101A2000B7810196A11DB11D84839583A683B783D9
:101A30000E94221BF801FE96608371838283938348
:101A4000C40102C080E090E027960FB6F894DEBF94
:101A50000FBECDBFDF91CF911F910F91FF90EF90FF
:101A6000DF90CF90BF90AF909F908F907F906F90BE
:101A70005F904F903F902F9008951F920F920FB656
:101A80000F9211240BB60F922F933F934F935F93B6
:101A90006F937F938F939F93AF93BF93EF93FF9336
:101AA0008091B900887F803609F49CC068F588323F
:101AB00009F45BC090F4803109F454C038F48823F1
:101AC00009F4F6C0883009F44DC0F5C0883109F436
:101AD0004CC0803209F45DC0EEC0803409F468C0A7
:101AE00048F4803309F455C0883309F0E4C080938A
:101AF000B606D8C0803509F44FC0883509F45DC0FA
:101B0000883409F0D8C0D6C0883909F4C7C0A8F411
:101B1000883709F467C038F4883609F463C0803721
:101B200009F460C0C8C0883809F4B8C0803909F425
:101B30005FC0803809F0BFC05BC0803B09F486C03D
:101B400038F4803A09F466C0883A09F47FC0B3C01B
:101B5000803C09F4A7C0883C09F4A4C0883B09F480
:101B60008AC0A9C08091B30610C09091B50680913B
:101B7000B406981770F5E091B50681E08E0F80935A
:101B8000B506F0E0ED56F94F80818093BB0085ECFF
:101B900086C08093B6068EC0E091B50681E08E0FB8
:101BA0008093B5068091BB00F0E0ED56F94F80833D
:101BB0009091B5068091B4066EC0E091B50681E0C3
:101BC0008E0F8093B5068091BB00F0E0ED56F94F83
:101BD00080838091470581116DC081E08093460527
:101BE00084EA61C083E08093480510927106CFCFEC
:101BF00080917106803208F051C0E091710681E059
:101C00008E0F809371068091BB00F0E0EF5AF94F80
:101C10008083BDCF85EC8093BC00109248058091F5
:101C20007106803230F4E0917106F0E0EF5AF94F1E
:101C300010826091710670E0E0914F06F0915006BD
:101C400081E596E019951092710635C084E0809385
:101C5000480510924E0610924D06E0914B06F09109
:101C60004C06199580914D06811105C081E0809345
:101C70004D0610922B06E0914E0681E08E0F809368
:101C80004E06F0E0E55DF94F80818093BB009091B6
:101C90004E0680914D06981708F479CF85E8809319
:101CA000BC0009C085EC8093BC001092480503C0BD
:101CB0001092B606BFD9FF91EF91BF91AF919F915E
:101CC0008F917F916F915F914F913F912F910F90E5
:101CD0000BBE0F900FBE0F901F901895CF93DF9300
:101CE000EB010E94EB458883CE01DF91CF910895EF
:101CF0002F923F924F925F926F927F928F929F921C
:101D0000AF92BF92CF92DF92EF92FF920F931F9309
:101D1000CF93DF93CDB7DEB7A9970FB6F894DEBFA8
:101D20000FBECDBF5C014B015DA34CA33AA329A319
:101D30000BA3E8A6DFA2CEA219821A821B821C8204
:101D4000FE0135968AE1DF011D928A95E9F7C5010A
:101D50000E94362A282E00E010E0312CD12CC12C14
:101D60007501B2E0EB0EF11CC7010E94741F8823BD
:101D700009F480C0C70198D5892BB1F3C7010E942F
:101D8000811E8F8FC11070C0282F082E000C330BBE
:101D9000632C712CF401E60DF71D449150E02417DB
:101DA000350719F4DD2009F4DBC0E491F0E02E17CB
:101DB0003F0709F400C1DD2009F4FBC04BA1442317
:101DC00009F4DCC0BE01615E7F4F8EA19FA1800F30
:101DD000911FA2DC0F5F1F4F8F8D082E000C990BF7
:101DE000ECA1FDA1E60DF71D249130E082179307C9
:101DF00009F0C0C0E491F0E08E179F0709F0BBC066
:101E00003394321408F4B7C0222D30E04BA14423A0
:101E100009F4C4C08EA19FA1800F911F48A544233F
:101E200009F4B4C02C01421A530A86EAC82E82E093
:101E3000D82E320184E0680E711CD6016D916D01BF
:101E4000C20169A70E94EB4569A5681719F0C20194
:101E50000E94F345BFEF4B1A5B0A4614570469F71B
:101E6000DD24D394CC24C3946F8D89EF96E00E9437
:101E7000DB2E80CF1E8E80E194E00E94C728C70130
:101E80000E94971F6DEB74E089EF96E00E94512F3E
:101E9000BE016F5F7F4F89EF96E00E943F2F4BA1FD
:101EA000411139C029818E010E5F1F4FF80180E07A
:101EB00090E0222329F0203209F001962191F9CFF8
:101EC0000E940829298180E090E0222339F0203205
:101ED00009F00196D8012D918D01F7CF892BA9F03A
:101EE0006CEC74E089EF96E00E943F2FCE010196E2
:101EF0000E94AD44E9A1FAA19183808364ED74E06E
:101F000089EF96E00E943F2F06C084EF91E0A9A1DF
:101F1000BAA18D939C936BED74E089EF96E00E94DB
:101F2000512FE9A1FAA1808191810E940829A996E7
:101F30000FB6F894DEBF0FBECDBFDF91CF911F91DA
:101F40000F91FF90EF90DF90CF90BF90AF909F9058
:101F50008F907F906F905F904F903F902F9008955B
:101F60003394321408F480CF6CA17DA1C5010E9486
:101F7000362A282E312CDD24D39476CFE1E0F0E010
:101F8000EC0FFD1FE00FF11F808324CF18A2BE01CC
:101F9000605E7F4F821B930BBFDB62CFF801E21BB9
:101FA000F30B81E090E08C0F9D1FE80FF91F10826A
:101FB00057CF312C59CFDD2009F456CFFFCECF9328
:101FC000DF93EC012296CE010E94741F882369F0F2
:101FD000CE016AD4892BB9F3CE010E94811E682FED
:101FE00089EF96E00E94DB2EF3CF81E094E00E941F
:101FF000C728CE01DF91CF910C94971F80E090E02D
:10200000089508950895DC012D913C912115310525
:1020100039F46DEE74E089EF96E00E943F2F20C006
:1020200062177307ECF4DC011296ED91FC911397A3
:102030002481358181E090E0309769F06817790755
:102040006CF02115310551F00280F381E02D2481DF
:1020500035810196F1CF6817790714F0C901089509
:1020600080E090E0089560E070E04096CCDF00975B
:1020700001F40895CF93DF93EB01488150E0405382
:10208000584F052E000C660B770B2AE089EF96E07F
:102090000E94F72E83E794E00E94A628498150E031
:1020A00060E070E02AE089EF96E00E94F72E81E779
:1020B00094E00E94A6284A8150E060E070E02AE0A7
:1020C00089EF96E00E94F72E8FE694E00E94A62802
:1020D0004B8150E060E070E02AE089EF96E00E94DA
:1020E000F72E8DE694E00E94A6284C8150E060E037
:1020F00070E02AE089EF96E00E94F72E8BE694E0EC
:102100000E94A6284D8150E060E070E02AE089EF4F
:1021100096E00E94F72E89E694E0DF91CF910C942F
:10212000C7280F931F93CF93DF9300D000D0CDB774
:10213000DEB78C01BC016A5F7F4FCE0101960E9421
:10214000921CBE016F5F7F4FF8018685978592DFF5
:1021500026960FB6F894DEBF0FBECDBFDF91CF91AC
:102160001F910F910895CF93DF93EC010E94A72553
:10217000892B69F08FE194E00E94C72840E050E08D
:1021800064E070E0CE010E949D2461E00CC087E312
:1021900094E00E94C72841E050E064E070E0CE0186
:1021A0000E949D2460E086E0DF91CF910C947F1A1D
:1021B000FC01118614861786768365838EEA92E089
:1021C00091838083118A108A138A128A158A148A4D
:1021D000F78BE68B108E87E090E0938382830895DF
:1021E0006F3F7105A9F0A4F06B3581E0780754F0DA
:1021F000693B81E078074CF0643172404CF48AE02E
:1022000095E0089584EF94E0089589EF94E00895AF
:102210008DEF94E008958F929F92AF92BF92DF92DC
:10222000EF92FF920F931F93CF93DF937C01EA010C
:1022300061E082E00E947F1A68EE73E080E090E047
:102240000E94EA1A80917B00877F80937B0081E463
:1022500080937C0080917A00806480937A008091E2
:102260007A0086FDFCCF809178002091790090E083
:10227000922B998388830C851D85C8010E942B2091
:102280008823A9F1D80116968C918B3041F178F111
:102290008551823060F5D8016C9170E080E090E06B
:1022A0000E94D64420E030E040E853E40E943745E5
:1022B0004B015C01F8018181682F70E080E090E0C3
:1022C0000E94D8449B01AC01C501B4010E946E4636
:1022D0002DEC3CEC4CEC5DE30E9437450CC0F80162
:1022E000608170E080E090E00E94D64404C060E02D
:1022F00070E080EC9FE7688779878A879B870C85E9
:102300001D85C8010E942B208823E1F1D801169673
:102310008C918B3029F0B0F18551823048F032C079
:10232000F801628170E080E090E00E94D6442EC007
:10233000D8011296DC906D2D6F7770E080E090E010
:102340000E94D84420E030E040E853E40E94374542
:102350004B015C01F8018381682F70E080E090E020
:102360000E94D8449B01AC01C501B4010E946E4695
:102370002DEC3CEC4CEC5DE30E943745D7FE06C0EB
:10238000905804C060E070E080EC9FE76C837D8330
:102390008E839F8360E082E00E947F1AD701ED91D7
:1023A000FC91C489D58905E91DE220E030E0E12CEB
:1023B00041E06EE474E0CE010E94DB1FCE01DF91AC
:1023C000CF911F910F91FF90EF90DF90BF90AF9052
:1023D0009F908F90F4CD0F931F93CF93DF93EC01D9
:1023E0008B0186E090E00E942B43FC011182108259
:1023F00013821282158304838881D80114968C93EA
:1024000014978E819F8118969C938E93179741E025
:1024100019964C932A813B8188819981232B19F449
:10242000FB83EA831CC06C817D8171836083DB0147
:1024300014962D913C911597D8011B963C932E93A1
:102440001A971C964C93D9011E961C930E931D97B8
:102450001F964C93DB011396FC93EE931297FD832A
:10246000EC83019699838883DF91CF911F910F911F
:102470000895FC0122813381C9010197039748F037
:1024800081E02530310539F02630310521F080E03A
:10249000089581E0089508958F929F92BF92CF9200
:1024A000DF92EF92FF920F931F93CF93DF938C01F4
:1024B000DC011696ED91FC911797408150E060E0A9
:1024C00070E02AE089EF96E00E94F72E60E289EF43
:1024D00096E00E94DB2EF801408550E060E070E05D
:1024E0002AE089EF96E00E94F72E60E289EF96E0FD
:1024F0000E94DB2ED8011296ED91FC911397658115
:10250000768189EF96E00E943F2FF8018181FCEFF0
:10251000CF2EC80E86E894E00E94C728D8011696F0
:10252000ED91FC9117971896DC908081D81AB12C08
:10253000EC2CF12C6D2D70E0D80118968C91189729
:1025400090E01696ED91FC9117972081821B9109DE
:102550002C91820F911D681779070CF051C1F80179
:102560008281938140964FDDEC01892B09F434C1BF
:10257000D8011696ED91FC9117978081B81202C090
:102580006EE301C060E289EF96E00E94DB2EB39417
:10259000AD81BE81FD0101900020E9F73197EA1B72
:1025A000FB0BEE15FF0510F4912C1BC0812C912C18
:1025B0008C1468F4ED81FE81E80DF91D608189EFCE
:1025C00096E00E94DB2EBFEF8B1A9B0AF1CFCE0163
:1025D00050DF811145C060E289EF96E00E94DB2E5A
:1025E0003FC06D817E81FB0101900020E9F73197AA
:1025F000E61BF70B292D30E0C7018E1B9F0B96952C
:1026000087952817390738F460E289EF96E00E9431
:10261000DB2E9394E6CF89EF96E00E94512F912C08
:10262000AD81BE81FD0101900020E9F73197EA1BE1
:10263000FB0BC7018E1B9F0B292D30E0AC014170B5
:10264000552796958795840F951F2817390708F009
:10265000BECF60E289EF96E00E94DB2E9394E0CF3C
:10266000EA81FB81E830F10508F0ACC08827EE581C
:10267000FF4F8F4F0C94E7486BE2A0C060E289EFF8
:1026800096E00E94DB2E60E289EF96E00E94DB2E4E
:1026900094C0EC89FD8990818E89981302C060E214
:1026A00001C06FE589EF96E00E94DB2E8A819B8155
:1026B0008B7F6E89029709F4B2C070E089EF96E0D3
:1026C0000E94D528EC89FD8990818E89981313C0CA
:1026D00074C0672B09F4ADC06FE689EF96E00E94E5
:1026E000DB2EEC89FD89208131818E899F89281715
:1026F000390709F462C06FE561C0EC89FD8920816A
:1027000031818E899F892817390711F460E201C051
:102710006FE589EF96E00E94DB2E8A819B818B7F9B
:102720006E897F890297A9F289EF96E00E94D528E9
:10273000D8CFCE010E94E225288D398D82179307CC
:1027400011F460E201C06FE589EF96E00E94DB2E94
:102750008A819B818B7F688D798D029709F46BC08C
:1027600089EF96E00E94D528CE010E94E225288DAF
:10277000398D8217930709F0BECF1FC0CE010E948A
:102780000126988D891302C060E201C06FE589EFD0
:1027900096E00E94DB2E8A819B818B7F688D029759
:1027A00009F453C070E089EF96E00E94D528CE016D
:1027B0000E940126988D89139ECF60E289EF96E0F2
:1027C0000E94DB2ECE0155DE811112C060E289EF3E
:1027D00096E00E94DB2E0CC0C0E0F8018181C81792
:1027E00038F460E289EF96E00E94DB2ECF5FF5CFF0
:1027F0006BE673E089EF96E00E94E22ED3949ACEC6
:1028000085E794E0DF91CF911F910F91FF90EF90BA
:10281000DF90CF90BF909F908F900C94C728662335
:1028200011F06FE601C068E789EF96E00E94DB2EA9
:1028300049CF68E752CF672B11F06FE601C068E718
:1028400089EF96E00E94DB2E8FCF662311F06FE6B2
:1028500001C068E789EF96E00E94DB2EA8CFCF93F6
:10286000DF931F92CDB7DEB76983DC01ED91FC9158
:102870000280F381E02D41E050E0BE016F5F7F4FA9
:1028800019950F90DF91CF910895DC01ED91FC91A6
:10289000068CF78DE02D199591E089270895862FF4
:1028A000089581E086270895FC018485843011F025
:1028B0000C94130680E090E0089508958CBD9DBDB2
:1028C00008958F929F92AF92BF92CF92DF92EF9234
:1028D000FF920F931F93CF936C015B017A01FC0170
:1028E000C485C43041F481E090E0F6019383828393
:1028F00080E090E04BC08A014130584010F000E089
:1029000018E080E590E0DADF8C2F0E941A2A4C0153
:1029100063E070E08C2F0E94C41E873111F08C316F
:1029200021F48016910668F302C000E010E080E513
:1029300090E0C4DF9801A50160E070E08C2F0E9458
:10294000B52960E270E08C2F0E943D2962E070E0C2
:102950008C2F0E94C41E84FD0FC063E070E08C2F9A
:102960000E94C41E811104C08C2F0E942107BBCF7E
:1029700080E590E0A3DFEACF40E162E070E08C2FD9
:102980000E949B1E012B09F4AECFC701CF911F916E
:102990000F91FF90EF90DF90CF90BF90AF909F90FE
:1029A0008F900895CF92DF92FF920F931F93CF9352
:1029B000DF93FC012485243009F075C06A01EB0126
:1029C0008C01F12C8F2D0E94EC07811103C0F801BE
:1029D000F48607C08B7F8831D1F3F394F4E0FF12C3
:1029E000F1CFF8018485843009F45DC020910002A4
:1029F000309101022F5F3F4F11F420E030EC309313
:102A0000010220930002409100025091010220E057
:102A100061E00E943507F801F4848A818F3F51F408
:102A20008B818F3F91F48C818F3F79F48D818F3F23
:102A300061F436C0811109C08B81811106C08C817F
:102A4000811103C08D81882359F1C114D10441F152
:102A500080E590E033DFBE016E5F7F4F8F2D90E009
:102A6000982F882744E050E0845F9B4F0E94B20576
:102A7000B6018F2D0E941E1F64E070E08F2D0E9412
:102A80003D29C8010E946C1F873181F061E070E030
:102A900080E090E09FD5C8010E946C1F8111F1CFAA
:102AA00084E0F801848780E090E002C081E090E05B
:102AB000DF91CF911F910F91FF90DF90CF900895FC
:102AC0002F923F924F925F926F927F928F929F923E
:102AD000AF92BF92CF92DF92EF92FF920F931F932C
:102AE000CF93DF93CDB7DEB765970FB6F894DEBF0F
:102AF0000FBECDBF7C016B013A01FB0120E080E0FD
:102B000090E06AE03191332309F140ED430F4A3000
:102B100080F4689FA001699F500D1124CA01C097DD
:102B2000830F911D37FD9A958F3F910559F350F30F
:102B300013C03E3289F4233079F0D301A20FB11DC6
:102B400012968C932F5F80E090E0DCCF233021F44D
:102B5000F301858381E020C0F701428153816481C4
:102B600075818091E8079091E907A091EA07B091FB
:102B7000EB07481759076A077B0709F498C162D524
:102B80008701085F1F4F6F7077277C5FC8010E9425
:102B90002D1E813019F080E090E0EEC184E593E0D5
:102BA0009A838983F70182819381A481B5818B8384
:102BB0009C83AD83BE8345E350E0BE016F5F7F4FD2
:102BC000C8010E942D1F892B19F4C12CD12C6BC177
:102BD00039D5F701778366837627672776277A8347
:102BE000698342E050E0BE016F5F7F4FC8010E94E1
:102BF000020481E090E09E878D8742E050E0BE01B4
:102C0000635F7F4FC8010E94020480E091E09E87CD
:102C10008D8742E050E0BE01635F7F4FC8010E9494
:102C200002041E861D8642E050E0BE01635F7F4FB6
:102C3000C8010E94020442E050E0BE01635F7F4F82
:102C4000C8010E94020442E050E0BE01635F7F4F72
:102C5000C8010E9402045601F5018081882311F108
:102C6000F6015F018191811115C045018C189D0805
:102C70001814190494F48F8641E050E0BE01615F9E
:102C80007F4FC8010E940204A401B601C8010E943E
:102C9000020403C08E3229F7E8CF6501FFEFCF1A97
:102CA000DF0ADACF1F8641E050E0BE01615F7F4F4F
:102CB000C8010E940204C12CDD24D394DE86CD8697
:102CC00042E050E0BE01635F7F4FC8010E940204F2
:102CD000DE86CD8642E050E0BE01635F7F4FC801D3
:102CE0000E940204C8010E94EA1E892B09F46DCFDC
:102CF00063E0A62EB12CF2E06F0E711CA3D41B0171
:102D00002C01C8010E94CA061816190694F09AD41C
:102D1000DC01CB0182199309A409B50989389341D3
:102D2000A105B105C8F462E370E080E090E052D400
:102D3000E8CFF7014281538164817581808D918D47
:102D4000A28DB38D481759076A077B0741F4848D1C
:102D5000958DC59721F406C02FEF3FEF9AC02EEF57
:102D60003FEF97C0F70181A192A10C970CF4A5C089
:102D70004CE050E0BE016F5F7F4FC8010E948406A7
:102D80008B8190E0982F88272C81822B9A8B898BBE
:102D9000298130E0322F22274A81242BF7014681F6
:102DA00057814217530709F085C097FF83C08F7082
:102DB0009270892B09F0DDC0CF80D12CDC2CCC2483
:102DC0008885C82AC114D10409F4D0C0812C912C63
:102DD0008D8190E0982F88272E81822B8816990666
:102DE00008F46EC0812C912C41E050E0BE016D5E74
:102DF0007F4FC8010E9484068B89982F907C09F030
:102E000092C0811185C08B898111EECF42E050E0E4
:102E1000BE01615F7F4FC8010E94840642E050E01E
:102E2000BE01635F7F4FC8010E948406C8010E94F3
:102E3000A206C8010E94A206C8010E94A206C801FB
:102E40000E94A20642E050E0BE016F5E7F4FC801C3
:102E50000E9484068F8598898115914009F068C089
:102E60002D853E853227232732272130310509F071
:102E70005FC089899A898115944009F074C044E043
:102E800050E0B301C8012C8B3D8B0E9484062C8935
:102E90003D896901F1E0AF1AB10829F02FEFC216A0
:102EA000D20609F42BCFC801C3D6C60165C08EEF88
:102EB0009FEF62C02CEF3FEFECCF2DEF3FEFE9CF5C
:102EC00041E050E0BE01635F7F4FC8010E9484066D
:102ED0008D85811113C08D858111F2CFC8010E94AB
:102EE000A206C8010E94A206C8010E94A206C8014B
:102EF0000E94A206FFEF8F1A9F0A6ACF8D859FEF6F
:102F0000980F9D87882339F3C8010E94A206F6CF47
:102F10008B899FEF980F9B8B882309F474CFC8018E
:102F20000E94A206F5CFC8010E94A2061B8A6BCFA1
:102F3000412C512C89899A899827892798274816E6
:102F4000590638F4C8010E94A2068FEF481A580AA1
:102F5000F1CFEFEF8E1A9E0A8C149D0409F044CF36
:102F600026EF3FEF96CF27EF3FEF93CF2AEF3FEFCC
:102F700090CF2BEF3FEF8DCF65960FB6F894DEBF65
:102F80000FBECDBFDF91CF911F910F91FF90EF90BA
:102F9000DF90CF90BF90AF909F908F907F906F9079
:102FA0005F904F903F902F900895CF92DF92EF92D5
:102FB000FF920F931F93CF93DF93CDB7DEB7AF97F9
:102FC0000FB6F894DEBF0FBECDBF7C016A0104E5E9
:102FD00013E01A8309831C861B8688EE93E0A0E029
:102FE000B0E08D879E87AF87B88B80EE92E09A879E
:102FF0008987188F0F8B198E1A8E1B8E1C8E84E07A
:1030000089A31DA30CA31EA21FA218A619A6809116
:10301000E0079091E107A091E207B091E3078CA748
:103020009DA7AEA7BFA78B839C83AD83BE83188665
:103030001F82AE014C5D5F4FCE01019641DD8130B4
:103040009105B1F4D701ED91FC910684F785E02D4F
:103050001BA70AA78EA19FA1A8A5B9A58CA79DA76C
:10306000AEA7BFA7A601BE01665D7F4FC701199538
:10307000AF960FB6F894DEBF0FBECDBFDF91CF91F4
:103080001F910F91FF90EF90DF90CF900895FC017A
:10309000538D448D252F30E0842F90E0821B930BBD
:1030A000541710F0CF96089501970895FC01918D63
:1030B000828D981761F0828DDF01A80FB11D5D969A
:1030C0008C91928D9F5F9F73928F90E008958FEF08
:1030D0009FEF0895FC01918D828D981731F0828DBC
:1030E000E80FF11D858D90E008958FEF9FEF089513
:1030F000FC01918D228D892F90E0805C9F4F821B77
:1031000091098F739927089589EF96E0F1DF21E007
:10311000892B09F420E0822F0895FC01848DDF01C2
:10312000A80FB11DA35ABF4F2C91848D90E001963A
:103130008F739927848FA689B7892C93A089B18929
:103140008C9180648C93938D848D981306C0028833
:10315000F389E02D80818F7D80830895EF92FF9227
:103160000F931F93CF93DF93EC0181E0888F9B8DAA
:103170008C8D981305C0E889F989808185FD23C06D
:10318000F62E0B8D10E00F5F1F4F0F731127E02EEF
:103190008C8DE8120BC00FB607FCFACFE889F989CD
:1031A000808185FFF5CFCE01B8DFF2CF8B8DFE0198
:1031B000E80FF11DE35AFF4FF0820B8FEA89FB897C
:1031C0008081806207C0EE89FF896083E889F98980
:1031D00080818064808381E090E0DF91CF911F91B6
:1031E0000F91FF90EF900895CF93DF93EC01888DBE
:1031F0008823C1F0EA89FB89808185FD05C0A88903
:10320000B9898C9186FD0EC00FB607FCF5CF808181
:1032100085FFF2CFA889B9898C9185FFEDCFCE01CA
:103220007CDFE8CFDF91CF91089580E090E0892B9B
:1032300019F06ADF811125C080E090E0892B41F010
:1032400080E090E0892B21F00E94000081111CC0D9
:1032500080E090E0892B41F080E090E0892B21F024
:103260000E940000811113C080E090E0892BA1F042
:1032700080E090E0892B81F00E94000081110AC05B
:1032800008950E940000D8CF0E940000E1CF0E9464
:103290000000EACF0C94000008953FB7F8948091A5
:1032A000DD069091DE06A091DF06B091E00626B51E
:1032B000A89B05C02F3F19F00196A11DB11D3FBF6E
:1032C000BA2FA92F982F8827820F911DA11DB11DFC
:1032D000BC01CD0142E0660F771F881F991F4A95F8
:1032E000D1F708958F929F92AF92BF92CF92DF92C3
:1032F000EF92FF920F931F93CF93DF937C018B018B
:103300006C0182E0C80ED11C4701E5E08E0E911CD5
:10331000C0E0D0E0F60141916F0150E060E070E064
:103320002AE0C8010E94F72E5C016EE2C8010E94EB
:10333000DB2E8A0D9B1DC80FD91FC814D90451F765
:10334000F701458150E060E070E02AE0C8010E948A
:10335000F72E8C0F9D1FDF91CF911F910F91FF9042
:10336000EF90DF90CF90BF90AF909F908F90089597
:103370000E94414924E533E0FC0131832083FB01B5
:103380004081518162817381FC0142835383648354
:10339000758308951F920F920FB60F9211240BB6EA
:1033A0000F922F933F934F935F936F937F938F93DE
:1033B0009F93AF93BF93EF93FF9389EF96E0ADDEBA
:1033C000FF91EF91BF91AF919F918F917F916F91FD
:1033D0005F914F913F912F910F900BBE0F900FBEB9
:1033E0000F901F9018951F920F920FB60F921124F5
:1033F0000BB60F922F938F939F93EF93FF93E091D0
:103400000907F0910A078081E0910F07F0911007FA
:1034100082FD12C09081809112078F5F8F7320917F
:103420001307821751F0E0911207F0E0E750F94FCF
:10343000958F8093120701C08081FF91EF919F913A
:103440008F912F910F900BBE0F900FBE0F901F907A
:10345000189590E0FC013197E231F10508F04EC07B
:103460008827E658FF4F8F4F0C94E74880918000E3
:103470008F7703C0809180008F7D809380000895B6
:1034800080918000877FF9CF84B58F7702C084B5A3
:103490008F7D84BD08958091B0008F7703C08091A7
:1034A000B0008F7D8093B0000895809190008F7759
:1034B00007C0809190008F7D03C080919000877F2E
:1034C0008093900008958091A0008F7707C080912D
:1034D000A0008F7D03C08091A000877F8093A00013
:1034E0000895809120018F7707C0809120018F7D02
:1034F00003C080912001877F8093200108951F934E
:10350000CF93DF93282F30E0F901EB51FB4F8491EB
:10351000F901E451FE4FD491F901EA55FE4FC491EF
:10352000CC23C1F0162F811194DFEC2FF0E0EE0FC9
:10353000FF1FE553FB4FA591B4918FB7F89411117C
:1035400005C09C91ED2FE095E92302C0EC91ED2B95
:10355000EC938FBFDF91CF911F910895CF93DF93AD
:1035600090E0FC01E451FE4F2491FC01EA55FE4F2E
:103570008491882361F190E0880F991FFC01EF543A
:10358000FB4FC591D491FC01E553FB4FA591B4913C
:10359000611109C09FB7F8948881209582238883A0
:1035A000EC912E230BC0623061F49FB7F894388100
:1035B000822F809583238883EC912E2B2C939FBFA1
:1035C00006C08FB7F894E8812E2B28838FBFDF9138
:1035D000CF9108958F929F92AF92BF92CF92DF9238
:1035E000EF92FF926B017C0158DE4B015C01C1142C
:1035F000D104E104F104E9F050DEDC01CB018819CB
:103600009909AA09BB09883E9340A105B10578F341
:1036100021E0C21AD108E108F10888EE880E83E0A3
:10362000981EA11CB11CC114D104E104F10421F7BE
:10363000DECFFF90EF90DF90CF90BF90AF909F9044
:103640008F9008952FB7F8946091D9067091DA069B
:103650008091DB069091DC062FBF08951F920F9298
:103660000FB60F9211242F933F938F939F93AF9395
:10367000BF938091D9069091DA06A091DB06B091B4
:10368000DC063091D80623E0230F2D3720F4019675
:10369000A11DB11D05C026E8230F0296A11DB11D75
:1036A0002093D8068093D9069093DA06A093DB0680
:1036B000B093DC068091DD069091DE06A091DF06D6
:1036C000B091E0060196A11DB11D8093DD06909397
:1036D000DE06A093DF06B093E006BF91AF919F9105
:1036E0008F913F912F910F900FBE0F901F901895C3
:1036F000CF92DF92EF92FF920F931F93CF93DF93BE
:10370000EC0181E08093720688E68093D7061092E0
:103710004A051092490560E08CEE97E00E94A708E8
:1037200080914905813208F045C09091480591117A
:10373000FCCF92E09093480591E0909347059FEF6E
:103740009093B6061092B5068093B406A3E7B6E050
:1037500023E936E0F9019E2F921B981718F49D91EA
:103760009193F9CF1092B3068091B306806D809348
:10377000B30680914605813061F410924605809130
:10378000B3068093BB008091BC0083FDF8CF85EC2D
:1037900001C085EE8093BC00809148058230E1F342
:1037A0008091B6068F3F31F08091B606803211F0DD
:1037B0008091B60610924A05109249051092720641
:1037C000809148058111FCCF81E08093480580936A
:1037D00047059FEF9093B6061092B50696E090933A
:1037E000B4068093B3068091B306806D8093B306D0
:1037F00080914605813061F4109246058091B306B0
:103800008093BB008091BC0083FDF8CF85EC01C0A4
:1038100085EE8093BC00809148058130E1F3809172
:10382000B506873018F48091B50601C087E0A3E99A
:10383000B6E027EB36E0F9019E2F921B981718F49B
:103840009D919193F9CF10924C0580934B058CEE8E
:1038500097E00E945C088F77982F92959F701AEFDF
:10386000082F919F000D11248CEE97E00E945C08B8
:103870009C01332794E0359527959A95E1F7F82E2A
:10388000129FF00C11248CEE97E00E945C089C01C2
:10389000332744E0359527954A95E1F7E82E129FA6
:1038A000E00C11248CEE97E00E945C088CEE97E00F
:1038B0000E945C089C01332754E0359527955A9562
:1038C000E1F7D82E129FD00C11248CEE97E00E94C5
:1038D0005C089C01332764E0359527956A95E1F7EC
:1038E000C82E129FC00C11248CEE97E00E945C0839
:1038F0009C01332774E0359527957A95E1F7129F5F
:10390000800D11248883C982DA82EB82FC820D83C8
:10391000CE01DF91CF911F910F91FF90EF90DF903B
:10392000CF900895FC01DB018C91808311968C91DE
:103930001197818312968C911297828313968C91A2
:103940001397838314968C911497848315968C9186
:10395000858308958F929F92AF92BF92CF92DF920C
:10396000EF92FF920F931F93CF93DC011796CC91A8
:103970001797662311F08C2F01C080E018962C91C8
:10398000189730E0220F331F29563B4F40E050E09C
:10399000BA01F90105911491F80190819C239813C3
:1039A00015C06A017B019FEFC91AD90AE90AF90A11
:1039B0001D968D909D90AD90BC90509748155905DF
:1039C0006A057B0538F4B701A601E3CF342F252F14
:1039D000CB0104C030E020E080E090E0632F722F44
:1039E000CF911F910F91FF90EF90DF90CF90BF90FC
:1039F000AF909F908F9008958F929F92AF92BF92B9
:103A0000CF92DF92EF92FF920F931F93CF93DF93AA
:103A1000DA01CD91DC91FB0184859585C817D90722
:103A20000CF04CC0CE01880F991F0284F385E02D65
:103A3000E80FF91F80809180C170DD27F1E0CF276A
:103A4000209719F484E690E002C08CE99FEF5901B9
:103A50006A017801E80EF91EB701C4010E94210530
:103A6000892B99F4E00EF11EB701C4010E942105D3
:103A7000892B71F4B701600F711FC4010E942105E9
:103A8000892BF9F023E030E005C021E030E002C0EE
:103A900022E030E0D5018D919C911197019682171B
:103AA000930744F0F50111821082D6018D919C910B
:103AB000119701968D939C93CE0105C081E090E013
:103AC00002C08FEF9FEFDF91CF911F910F91FF9079
:103AD000EF90DF90CF90BF90AF909F908F90089520
:103AE000FC01818D928D0895FC018489958908954A
:103AF00024E533E0FC0131832083FB0140895189B7
:103B000062897389FC0142835383648375830895BA
:103B1000DC01ED91FC91048CF58DE02D199480E091
:103B20000895FC019485FB018485981303C081E00E
:103B3000943009F480E0089521E0FC01848584300C
:103B400009F420E0822F08950895CF92DF92EF923A
:103B5000FF920F931F93CF93DF93CDB7DEB7AF974D
:103B60000FB6F894DEBF0FBECDBF7C016A0104E53D
:103B700013E01A8309831C861B8688EE93E0A0E07D
:103B8000B0E08D879E87AF87B88B80EE92E09A87F2
:103B90008987188F0F8B198E1A8E1B8E1C8E84E0CE
:103BA00089A31DA30CA31EA21FA218A619A680916B
:103BB000E0079091E107A091E207B091E3078CA79D
:103BC0009DA7AEA7BFA78B839C83AD83BE831886BA
:103BD0001F82AE014C5D5F4FCE0101960E946015C1
:103BE00081309105B1F4D701ED91FC910488F589FC
:103BF000E02D1BA70AA78EA19FA1A8A5B9A58CA7F8
:103C00009DA7AEA7BFA7A601BE01665D7F4FC701F6
:103C10001995AF960FB6F894DEBF0FBECDBFDF91FA
:103C2000CF911F910F91FF90EF90DF90CF9008956B
:103C3000CF93DF93EC01888D843061F00E942107DF
:103C4000E88DF0E0EE0FFF1FEF51F94F1182108267
:103C500084E0888FDF91CF910895EF92FF921F93B8
:103C6000CF93DF93FC01208D243011F080E01CC045
:103C70007B01EC0110E0812F0E94EC07811102C052
:103C8000188F05C08831E1F31F5F1430A1F7888DCC
:103C9000843061F3FD86EC861A8E198E20E0A70130
:103CA00062E00E94350781E0DF91CF911F91FF9084
:103CB000EF9008950F931F93CF93DF931F92CDB78B
:103CC000DEB78C01DC01ED91FC910084F185E02DE3
:103CD0001995892B51F0BE016F5F7F4FF8018485E4
:103CE0000E94DB05898190E002C08FEF9FEF0F906B
:103CF000DF91CF911F910F910895FC0184850C9461
:103D00003306CF93DF931F92CDB7DEB741E050E08B
:103D1000BE016F5F7F4FFC0184850E943306181639
:103D200019061CF4898190E002C08FEF9FEF0F907D
:103D3000DF91CF9108950F931F93CF93DF931F923D
:103D4000CDB7DEB7282F30E02C5F3F4F322F222730
:103D50008901060F171F49830E94670580EF0E94A3
:103D60008105812F0E948105802F0E948105498154
:103D7000842F0E9481050E94650581E00F90DF91EC
:103D8000CF911F910F9108950F931F93CF93DF93BE
:103D90001F92CDB7DEB790E00496982F88278C014C
:103DA000060F171F0E9467058FE00E948105812F73
:103DB0000E948105802F0E94810580E00E9481057C
:103DC00089830E94650589810F90DF91CF911F91B2
:103DD0000F910895CF93FC01C08D80E590E00E9483
:103DE0005E1460E270E08C2F0E943D2962E070E07A
:103DF0008C2FCADF84FD17C062E070E08C2FC4DF17
:103E000083FF0AC048E162E070E08C2F94DF0E94DB
:103E10005D1480E090E010C00E945D1480E590E0A9
:103E20000E945E14E3CF40E162E070E08C2F83DFFC
:103E30000E945D1481E090E0CF910895CF93DF93CD
:103E4000C82FD62F472F60E170E075DF4D2F61E15D
:103E500070E08C2FDF91CF916ECFFF920F931F9365
:103E6000CF93DF93FB01DC0157961C921E9256976D
:103E70005896FC908281811109C08381811106C00E
:103E80008481811103C085818823F1F0411551059A
:103E9000D9F08A01EF0180E590E00E945E14BE0136
:103EA0006E5F7F4F2F2D30E0922F882744E050E047
:103EB000845F9B4F0E94B205B8018F2DBFDF0E9427
:103EC0005D1481E090E002C080E090E0DF91CF914E
:103ED0001F910F91FF900895FC018485843011F0AB
:103EE0000C94EC0780E00895CF93DF93FC012485C8
:103EF0002430C9F0EC01F0DF843181F0882371F0C7
:103F0000883161F08C3161F4E881F9810084F185B8
:103F1000E02DCE01199521E0892B19F420E001C094
:103F200021E0822F01C080E0DF91CF910895CF92F0
:103F3000DF92EF92FF921F93CF93DF93FC011485E2
:103F4000143089F1EC0180E590E00E945E1468E095
:103F500070E0812F0E943D290E945D1473DB6B018C
:103F60007C01CE01B9DF8823A1F061E070E080E040
:103F700090E030DB67DBDC01CB018C199D09AE09D9
:103F8000BF09883E9340A105B10558F38C850E9476
:103F90002107EC85F0E0EE0FFF1FEF51F94F118282
:103FA000108284E08C87DF91CF911F91FF90EF907A
:103FB000DF90CF900895CF92DF92EF92FF920F9310
:103FC0001F93CF93DF93EC016B01F42E0E943B2CE7
:103FD0008823A9F18AE696E00E94C728B601CE019F
:103FE000E11003C00E945C2C08C002960E94512F71
:103FF000B60189EF96E00E94512F60E476E0CE0191
:104000000E945C2CFF2019F0CE010E940B2C6CE268
:1040100076E0CE010E945C2C6BE076E0CE010E943F
:104020005C2C61EF75E0CE010E945C2CCE01F801A2
:104030001995CE010E947B2C8EEE95E002C08CED8E
:1040400095E0DF91CF911F910F91FF90EF90DF905E
:10405000CF900C94C7288F929F92AF92BF92CF922D
:10406000DF92EF92FF920F931F93CF93DF93CDB721
:10407000DEB7C054D1400FB6F894DEBF0FBECDBF3F
:104080008C01E0DAF801C184D284E384F4849B01DA
:10409000AC012C193D094E095F0969017A0130ED27
:1040A000C31637E0D306E104F10410F48189A9C0F6
:1040B000F801618772878387948714821382128242
:1040C0001182108261E085811ADA6AEF70E080E087
:1040D00090E080DA61E0F801858140DA60E0F80183
:1040E00085810DDA64E170E080E090E073DAF894A5
:1040F00061E0F801858103DA8BE990E00197F1F73F
:1041000062E0F80185812ADA83E290E00197F1F715
:1041100060E0C8011FDC672B682B692B21F4F801D4
:10412000118A78943FC061E0C80114DC672B682BCA
:10413000692BA9F39E012F5F3F4F79015E013FEB91
:10414000A31A3EEFB30A670160E0C80103DCF60181
:10415000608371838283938361E0C801FBDBF60196
:104160006483758386839783F8E0CF0ED11CCA14CD
:10417000DB0451F7789420E030E0F7014081518171
:104180006281738184809580A680B7804115510536
:104190006105710529F081149104A104B10421F491
:1041A000F801118A80E02DC0F90183E0F595E795CB
:1041B0008A95E1F7E00FF11F8081880F48155905B6
:1041C0006A057B0508F4816080832F5F3F4FF8E02C
:1041D000EF0EF11C2832310581F6F801248130E020
:1041E0004081818190E0840F911D4281840F911D57
:1041F0004381840F911D99272817390789F681E09B
:10420000818BC05CDE4F0FB6F894DEBF0FBECDBF12
:10421000DF91CF911F910F91FF90EF90DF90CF90A2
:10422000BF90AF909F908F9008950F931F930ADADD
:10423000609301077093020780930307909304072C
:10424000E091F906F091FA060484F585E02D89EFF6
:1042500096E0199597FF1EC0F5D9009101071091BE
:1042600002072091030730910407DC01CB01801B7A
:10427000910BA20BB30B0091FD061091FE0620914D
:10428000FF063091000780179107A207B307C0F21D
:104290008FEF9FEF1F910F9108952F923F924F92B2
:1042A0005F926F927F928F929F92AF92BF92CF92C6
:1042B000DF92EF92FF920F931F93CF93DF93CDB7CF
:1042C000DEB72D970FB6F894DEBF0FBECDBF3C0111
:1042D0008DA18C879EA19D875F834E83DB86CA86D6
:1042E0009986888663EC75E0C301FA0119954C0143
:1042F000EBA1FCA1808190E08053984F9F938F9316
:104300008EE095E09F938F93CE0101966C019F9371
:104310008F930E945949B601C301F8011995880E7F
:10432000991E6FEB75E0C301EE81FF811995880E30
:10433000991E0F900F900F900F900F900F90A12C3F
:10434000B12C8EE0282E85E0382EA114B10451F452
:10435000EBA1FCA18181482E512CFAE04F165104AB
:104360003CF10FC181E0A816B10451F4EBA1FCA10E
:104370008281482E512CFAE04F165104CCF016C120
:1043800082E0A816B10421F4EBA1FCA143800BC08C
:10439000F3E0AF16B10421F4EBA1FCA1448003C00B
:1043A000EBA1FCA14580512CFAE04F1651043CF5DD
:1043B00061EC75E0C301EE81FF8119955F924F9228
:1043C0003F922F92DF92CF920E945949B601C301CA
:1043D000F8011995880E991E0F900F900F900F906D
:1043E0000F900F90A114B10419F46FEB75E021C088
:1043F000F1E0AF16B104B9F46DEB75E01AC05F924D
:104400004F923F922F92DF92CF920E945949B6016C
:10441000C301F8011995880E991E0F900F900F9007
:104420000F900F900F90F4E0AF16B10441F06BEBDA
:1044300075E0C301EE81FF811995880E991EFFEF8B
:10444000AF1ABF0A85E0A816B10409F07ECF69EA69
:1044500075E0C301EE81FF811995880E991EFD85D7
:10446000FF938C858F938EE095E09F938F93DF92DF
:10447000CF920E945949B601C301F8011995640110
:10448000C80ED91E64E975E0C301EE81FF8119955C
:10449000C80ED91E6FA178A5C301F8011995C80EE1
:1044A000D91E63E875E0C301EE81FF811995C80E3E
:1044B000D91E49A55AA56BA57CA5C301E885F98538
:1044C0001995C80ED91E60E775E0C301EE81FF8122
:1044D0001995C80ED91E4DA55EA56FA578A9C30173
:1044E000E885F9851995C80ED91E61E675E0C30106
:1044F000EE81FF811995C80ED91E0F900F900F9075
:104500000F900F900F9089A9882319F061E175E051
:1045100002C066E175E0C301F8011995C80ED91E05
:1045200062E575E0C301EE81FF811995C80ED91EC1
:104530006CEC71E0C301EA85FB851995C80ED91EA4
:104540006DE475E0C301EE81FF8119958C0D9D1D11
:104550002D960FB6F894DEBF0FBECDBFDF91CF9181
:104560001F910F91FF90EF90DF90CF90BF90AF9091
:104570009F908F907F906F905F904F903F902F9083
:1045800008951F928F933F922F92DF92CF920E94B5
:104590005949B601C301F8011995880E991E0F906B
:1045A0000F900F900F900F900F901FCF1F928F932F
:1045B0003F922F92DF92CF920E945949B601C301D8
:1045C000F8011995880E991E0F900F900F900F907B
:1045D0000F900F9011CF2F923F924F925F926F9258
:1045E0007F928F929F92AF92BF92CF92DF92EF9283
:1045F000FF920F931F93CF93DF93CDB7DEB7299729
:104600000FB6F894DEBF0FBECDBF4C0135015F83FE
:104610004E83280176016FE375E0FA0119958C014C
:10462000F501808190E08053984F9F938F938EE0A7
:1046300095E09F938F93CE0101966C019F938F938A
:104640000E945949B601C401F2011995080F191FBA
:104650006FEB75E0C401EE81FF8119951801280EFA
:10466000391E0F900F900F900F900F900F9000E059
:1046700010E08EE0A82E85E0B82EF301011511059B
:1046800039F48181482F50E04A305105D4F099C067
:104690000130110539F48281482F50E04A3051052C
:1046A00084F0A4C00230110511F4438106C0033028
:1046B000110511F4448101C0458150E04A30510593
:1046C00054F561EC75E0C40148875987EE81FF819C
:1046D0001995488559855F934F93BF92AF92DF92AA
:1046E000CF920E945949B601C401F2011995280ED2
:1046F000391E0F900F900F900F900F900F90011593
:10470000110519F46FEB75E01FC001301105B9F404
:104710006DEB75E019C05F934F93BF92AF92DF923C
:10472000CF920E945949B601C401F2011995280E91
:10473000391E0F900F900F900F900F900F90043034
:10474000110541F06BEB75E0C401EE81FF81199515
:10475000280E391E0F5F1F4F0530110509F08DCF50
:1047600060E375E0C401EE81FF8119958101080FB6
:10477000191F6CEC71E0C401F7011995080F191F9E
:104780006BE275E0C401EE81FF811995800F911FE6
:1047900029960FB6F894DEBF0FBECDBFDF91CF9143
:1047A0001F910F91FF90EF90DF90CF90BF90AF904F
:1047B0009F908F907F906F905F904F903F902F9041
:1047C00008951F928F93BF92AF92DF92CF920E9473
:1047D0005949B601C401F2011995280E391E0F90EE
:1047E0000F900F900F900F900F908CCF1F928F9380
:1047F000BF92AF92DF92CF920E945949B601C40195
:10480000F2011995280E391E0F900F900F900F90FE
:104810000F900F907DCF08950895CF93DF93DB0124
:104820001696ED91FC911797C481D5811796DC936C
:10483000CE93169775836483209719F088819981A8
:1048400002C08FEF9FEF1496CD91DC9115972097C2
:1048500019F05881498102C05FEF4FEF252F342FA7
:10486000281739070CF49C012F5F3F4F2D933C9381
:10487000A681B781109721F09C9111968C9102C06E
:104880009FEF8FEF492F582F421753070CF4A901C0
:104890004F5F5F4F51834083CF01DF91CF910895E8
:1048A000CF93DF93DB011496ED91FC911597268150
:1048B000378115963C932E931497778366831696CB
:1048C0008D919C911797009739F0EC01588149819F
:1048D0002115310531F409C02115310519F15FEFBA
:1048E0004FEFE9018881998102C08FEF9FEF252F5B
:1048F000342F281739070CF49C012F5F3F4F2D935D
:104900003C93A481B581109721F09C9111968C91D4
:1049100002C09FEF8FEF492F582F421753072CF4F7
:10492000A90103C02FEF3FEFE8CF4F5F5F4F5183E7
:104930004083CF01DF91CF9108950F931F93CF93C1
:10494000DF93FC016A30710551F5C481D58160E0C7
:1049500070E0A1E0B0E06C177D07ECF59B01265FED
:104960003F4F828193818D0102C0000F111F2A9554
:10497000E2F798014115510519F0802B912B04C0E5
:1049800020953095822393239383828357FF02C01F
:104990004F5F5F4F559547956F5F7F4FDCCFA2818B
:1049A000B381452B59F021E030E002C0220F331FC4
:1049B0006A95E2F7CD01822B932B0BC081E090E04A
:1049C00002C0880F991F6A95E2F7809590958A2317
:1049D0009B2393838283DF91CF911F910F91089541
:1049E0004F925F926F927F928F929F92AF92BF92FF
:1049F000CF92DF92EF92FF920F931F93CF93DF93AB
:104A000000D01F92CDB7DEB77C016A30710509F086
:104A100055C0FC014480558000E010E0A12CB12C71
:104A200066246394712C041515050CF045C0C8016B
:104A30000A96B30102C0660F771F8A95E2F7F70165
:104A400082819381862397230E94D4486B01B80109
:104A5000012E000C880B990B0E94D8449B01AC01DD
:104A600060E070E080E090E40E946F479B01AC0141
:104A7000B501BB0C880B990B29833A834B835C836C
:104A80000E94D8444B015C01B601DD0C880B990BE8
:104A90000E94D84429813A814B815C810E9437452C
:104AA0009B01AC01C501B4010E946E460E943A47C9
:104AB0005B010F5F1F4FB7CFC50111C081E090E0D0
:104AC0009C0102C0220F331F6A95E2F7B901F7017A
:104AD00082819381822393230E94D448CB010F903B
:104AE0000F900F900F90DF91CF911F910F91FF903A
:104AF000EF90DF90CF90BF90AF909F908F907F907E
:104B00006F905F904F90089569E070E069CF67E023
:104B100070E066CF65E070E063CFCF93DF93EC0188
:104B2000F9DF892B49F040E050E065E070E0CE010C
:104B300004DF84EA96E008C041E050E065E070E000
:104B4000CE01FBDE8AEB96E0DF91CF9120C364E0DB
:104B500070E046CF61E070E043CF60E070E040CFAE
:104B6000CF93DF93EC01F9DF892B49F040E050E06F
:104B700060E070E0CE01E1DE83E896E020C041E035
:104B800050E060E070E0CE01D8DE40E050E065E04B
:104B900070E0CE01D2DE40E050E067E070E0CE0190
:104BA000CCDE40E050E069E070E0CE01C6DE40E0DF
:104BB00050E06DE070E0CE01C0DE84E996E0DF9168
:104BC000CF91E5C2DC0156964D915C915797549672
:104BD000ED91FC915597CA019595879550962D9129
:104BE0003C91519740FF0AC0D901A80FB91F4D91C0
:104BF0005C91E40FF51F0190F081E02D820F931F6F
:104C00001994DC0156964D915C9157975496ED910D
:104C1000FC915597CA019595879550962D913C9199
:104C2000519740FF0AC0D901A80FB91F4D915C915F
:104C3000E40FF51F0190F081E02D820F931F19956D
:104C400021E0892B09F420E0822F0895EF92FF9252
:104C50000F931F93CF93DF93EC0119861C861F8659
:104C60007E836D83598B488B3B8B2A8B81E090E050
:104C70009B838A8388E093E099838883FD8AEC8A0A
:104C80001F8B0E8BC8019595879500FF0CC0FA010C
:104C9000E80FF91F0190F081E02DEE0DFF1D01904E
:104CA000F081E02D01C0F701840F951F199521E0D7
:104CB000892B09F420E0288F84E090E09B838A838D
:104CC000DF91CF911F910F91FF90EF900895EF9298
:104CD000FF920F931F93CF93DF937C01EB018A0127
:104CE00080E090E02097C9F00097B9F48A819B8119
:104CF000FC01208531850217130724F40C80DD8127
:104D0000C02D06C02017310744F40E80DF81C02D6E
:104D1000A801BE01C701DBDFE5CFDF91CF911F9175
:104D20000F91FF90EF900895EF92FF920F931F93D2
:104D3000CF93DF938C017B01EA01209771F488E027
:104D400090E00E942B43EC01198218821D821C8284
:104D50001F821E82FB82EA8271C0EA81FB81DB0135
:104D600018962D913C9119978085918528173907C0
:104D700074F54C815D81C801D7DF9D838C830097DA
:104D800021F0FC012081318102C02FEF3FEFEE8145
:104D9000FF81309719F04081518102C04FEF5FEFE2
:104DA000241B350B2230310509F048C0DC01129676
:104DB0002D913C911397E216F30628F0BC01C8012F
:104DC0002CDD9D838C83BE01C8016ADD36C0E617E9
:104DD000F707A0F54E815F81C801A6DF9F838E8310
:104DE000009721F0FC012081318102C02FEF3FEFBD
:104DF000EC81FD81309719F04081518102C04FEF65
:104E00005FEF241B350B22303105C1F4DC01129613
:104E1000ED91FC911397D70118964D915C911997DC
:104E200020853185241735072CF0BC01C80138DDF9
:104E30009F838E83BE01C801F0DCEC01EE81FF810F
:104E4000309719F02081318102C02FEF3FEFEC81C4
:104E5000FD81309719F05081418102C05FEF4FEF23
:104E6000852F942F821793070CF4C901019699831B
:104E70008883CE01DF91CF911F910F91FF90EF902A
:104E80000895EF92FF920F931F93CF93DF938C01BE
:104E9000DC011696ED91FC91179780819181892B09
:104EA00009F44CC0E280F380F701C081D181E114A4
:104EB000F10409F443C088854E815F81EC81FD8156
:104EC000288139818823A9F0CA019595879540FFEB
:104ED0000AC0D901A80FB91F4D915C91E40FF51FCD
:104EE0000190F081E02D820F931F1995019701F534
:104EF00014C0CA019595879540FF0AC0D901A80F33
:104F0000B91F4D915C91E40FF51F0190F081E02DE8
:104F1000820F931F1995892B59F46A817B8189EF40
:104F200096E0DF91CF911F910F91FF90EF90A7C76F
:104F3000D7011696ED90FC901797B6CFF8018481B3
:104F4000958180FD06C0D8011296ED91FC911397D2
:104F500015C0D801ED91FC9111979C0135952795CD
:104F6000E20FF31F0190F081E02D12962D913C91FC
:104F70001397E20FF31F0190F081E02D959587952F
:104F8000D8012D913C91820F931FDF91CF911F91FA
:104F90000F91FF90EF901994FC018289938971DF42
:104FA00080E090E00895CF93DF93EC01F5DFCE0130
:104FB00028DE888FDF91CF9108958F929F92AF92D4
:104FC000BF92EF92FF920F931F93CF93DF93EC0169
:104FD0007B0148015901798368835987488788E0B4
:104FE00090E00E942B43FC011182108213821282F6
:104FF00015821482F782E6829F838E838A829B8247
:10500000AC82BD82DF91CF911F910F91FF90EF9005
:10501000BF90AF909F908F9008950F931F93CF9361
:10502000DF93EC018B0188E090E00E942B43FC01B0
:1050300088E0DF011D928A95E9F7118300838E8154
:105040009F8195838483888199819C012F5F3F4F45
:1050500039832883938382838A819B81892B19F4E6
:10506000FB83EA8306C0AC81BD811796FC93EE9367
:105070001697FD83EC83DF91CF911F910F910895D7
:10508000CF92DF92EF92FF92CF93DF93EC016B818F
:1050900070E080E090E00E94D6446B017C018C813E
:1050A000682F70E080E090E00E94D64420E030E07D
:1050B00040E752E40E94D2469B01AC01C701B60111
:1050C0000E946E466B017C018D81682F70E080E04C
:1050D00090E00E94D64420E030E041E655E40E9492
:1050E000D2469B01AC01C701B6010E946E46DF911A
:1050F000CF91FF90EF90DF90CF900895E9EFF6E029
:10510000A089B18982E08C93A485B5851C92A6857F
:10511000B7858FEC8C93108EA489B58986E08C932B
:10512000A289B3898C9180618C93A289B3898C9177
:1051300088608C93A289B3898C9180688C93028853
:10514000F389E02D80818F7D808308950F931F93D5
:10515000CF93DF938C01C0E0D0E0F801EC0FFD1F8E
:105160006491662371F0E091F906F091FA060190DE
:10517000F081E02D89EF96E01995892B11F02196A9
:10518000ECCFCE01DF91CF911F910F910895CF9376
:10519000DF93DCDFEC016BE673E089EF96E012D67B
:1051A0008C0F9D1FDF91CF910895CF92DF92EF92E8
:1051B000FF920F931F93CF93DF936B01770FEE084E
:1051C000FF08F7FE19C0EC016DE2F5D58C0144270C
:1051D0005527BA014C195D096E097F092AE0CE01F5
:1051E00006D6800F911FDF91CF911F910F91FF90F5
:1051F000EF90DF90CF9008952AE0B701A601DF91EC
:10520000CF911F910F91FF90EF90DF90CF90EFC55E
:10521000CF92DF92EF92FF92CF93DF936C01990FC1
:10522000EE08FF08F7FE14C06DE289EF96E0C3D5E3
:10523000EC0144275527BA014C195D096E097F0915
:105240002AE089EF96E0D3D57C01EC0EFD1E07C065
:105250002AE0B701A60189EF96E0C9D57C016BE68B
:1052600073E089EF96E0AED58E0D9F1DDF91CF9153
:10527000FF90EF90DF90CF900895CF93C82F462FE7
:1052800061E070E00E949B1E61E070E08C2F0E9444
:10529000C41E8111F9CFCF9108958F929F92AF9242
:1052A000BF92CF92DF92EF92FF920F931F93CF9313
:1052B000DF93B82E4B018A01A22E68E270E00E94B3
:1052C000C41EC82FD0E069E270E08B2D0E94C41E7E
:1052D000DC2FCC27C82B9E013770CB2CD12CC601DC
:1052E000880F991FAC014F50594F6A01FA01808114
:1052F0009181820F931FA801420F531F41305840E4
:1053000098F060E078E07B01E21AF30AA701B401AB
:105310000E948805A8014E195F09B4016E0D7F1D1A
:10532000F6018081918102C0A801B4010E94880524
:10533000A1100EC0C00FD11F4D2F68E270E08B2D61
:105340000E949B1E4C2F69E270E08B2D0E949B1ED9
:10535000DF91CF911F910F91FF90EF90DF90CF9051
:10536000BF90AF909F908F9008959F92AF92BF9201
:10537000CF92DF92EF92FF920F931F93CF93DF9321
:10538000982E8B015A01690164E270E00E94C41EEC
:10539000E82EF12C65E270E0892D0E94C41EFE2CDF
:1053A000EE24E82AE701C00FD11F9E013770E92CD7
:1053B000F12CC701880F991FAC014751594F7A0151
:1053C000FA0180819181820F931FA9014C0D5D1D0F
:1053D0004130584090F000E018E0021B130BA80188
:1053E000B5010E94B205A601401B510BB501600F2B
:1053F000711FF7018081918102C0A601B5010E9451
:10540000B205CC0DDD1D4D2F64E270E0892D0E94A8
:105410009B1E4C2F65E270E0892DDF91CF911F918B
:105420000F91FF90EF90DF90CF90BF90AF909F9043
:105430000C949B1EFF920F931F93CF93DF93F82E34
:10544000C0E0D0E08F2D0E9469058C01892B21F0EE
:105450008F2D0E946905EC01C017D10799F7CE0185
:10546000DF91CF911F910F91FF900895FB0124913F
:1054700080E090E0222331F00196FB01E80FF91F54
:105480002491F8CF0895FB0101900020E9F7CF01A6
:105490000197861B970B0895CF93DF93EB0102963C
:1054A00000D5BE0189EF96E0FCD4FE0101900020FA
:1054B000E9F7CF0101978C1B9D0BDF91CF910895E8
:1054C000CF92DF92EF92FF920F931F93CF936B01D6
:1054D000FB01C49100E010E07C01F2E0EF0EF11C52
:1054E000CC2371F00F5F1F4F6C2FC70164D46C2F5A
:1054F00089EF96E060D4F601E00FF11FC491F0CF80
:10550000C801CF911F910F91FF90EF90DF90CF9046
:1055100008954F925F926F927F928F929F92AF9277
:10552000BF92EF92FF920F931F93CF93DF9300D020
:105530001F92CDB7DEB72A013B0119821A821B8266
:105540001C82CB01BA010E943A474B015C019F9239
:105550006F938EE095E09F938F938E010F5F1F4FA7
:105560001F930F930E945949F80101900020E9F719
:105570007F01E01AF10AB401990C880B990B0E9483
:10558000D8449B01AC01C301B2010E946D4620E0EA
:1055900030E040E251E40E9437454B015C010F903E
:1055A0000F900F900F900F900F9020E030E0A90126
:1055B0000E946B4720E030E040E05FE387FD05C0DC
:1055C000C501B4010E946E4604C0C501B4010E9429
:1055D0006D460E943A479F938F937F936F938EE01F
:1055E00095E09F938F931F930F930E945949F80161
:1055F00001900020E9F73197CF01801B910B0FB686
:10560000F894DEBF0FBECDBF8E0D9F1D0F900F9083
:105610000F900F90DF91CF911F910F91FF90EF901E
:10562000BF90AF909F908F907F906F905F904F90C2
:1056300008954F925F926F927F928F929F92AF9256
:10564000BF92CF92DF92EF92FF920F931F93CF936F
:10565000DF9300D01F92CDB7DEB74C016A017B010A
:1056600019821A821B821C82CB01BA010E943A471E
:105670002B013C015F926F938EE095E09F938F9397
:105680008E010F5F1F4F1F930F930E945949B8015E
:10569000C40102DF5C0169E174E0C401FDDEA80E13
:1056A000B91EB201550C880B990B0E94D8449B017E
:1056B000AC01C701B6010E946D4620E030E040E237
:1056C00051E40E9437456B017C010F900F900F90C1
:1056D0000F900F900F9020E030E0A9010E946B47DF
:1056E00020E030E040E05FE387FD05C0C701B60180
:1056F0000E946E4604C0C701B6010E946D460E941A
:105700003A479F938F937F936F938EE095E09F939B
:105710008F931F930F930E945949B801C401BCDEB7
:105720000FB6F894DEBF0FBECDBF8A0D9B1D0F9044
:105730000F900F900F90DF91CF911F910F91FF90DD
:10574000EF90DF90CF90BF90AF909F908F907F9021
:105750006F905F904F900895DF92EF92FF920F93BA
:105760001F93CF93DF931F92CDB7DEB77C018B01E0
:10577000D42EBE016F5F7F4FC8010E946E0E82E083
:10578000E80EF11C6981662309F10F5F1F4FDD20D0
:1057900031F0C70110D3698189EF96E00CD399816C
:1057A000892F8F7D81548A3150F09D3241F0905382
:1057B0009A3028F06CE175E089EF96E072D3BE0173
:1057C0006F5F7F4FC8010E946E0EDCCFC8010F9043
:1057D000DF91CF911F910F91FF90EF90DF9008958F
:1057E000CF93DF93EB0140E0B7DF8C1B9D0BDF9184
:1057F000CF910895CF93DF93EB0141E0ADDF8C1B98
:105800009D0BDF91CF910895FC018289938939DB4B
:1058100080E090E00895EF92FF920F931F93CF9353
:10582000DF931F92CDB7DEB77C01BE016F5F7F4F64
:1058300080E090E00E946E0E00E010E082E0E80E52
:10584000F11C6981662379F00F5F1F4FC701B3D246
:10585000698189EF96E0AFD2BE016F5F7F4FC801CB
:105860000E946E0EEECF0F90DF91CF911F910F919E
:10587000FF90EF900895CF93DF9340E550E064E20E
:1058800075E002960E94D517EC01C2DC81E0CD2BB9
:1058900009F480E0DF91CF910895FB012491DA01B2
:1058A00080E090E0222339F02D930196FB01E80F70
:1058B000F91F2491F7CF0895EF92FF921F93CF9392
:1058C000DF93FB011491EB017C01F2E0EF0EF11C80
:1058D0002196112351F0612FC7016DD2612F89EFFD
:1058E00096E069D2FE011491F3CFDF91CF911F9121
:1058F000FF90EF9008956FEC76E0DECF0F931F934B
:10590000CF93DF93EC016FE277E0D6DF60EE76E0D5
:10591000CE01ACDD8C01BC01CE01029646DCB801A3
:1059200089EF96E042DCCE01E6DFCE01E4DF60EEF7
:1059300076E0CE01DF91CF911F910F91C1CDAF9253
:10594000BF92CF92DF92EF92FF920F931F93CF936C
:10595000DF93CDB7DEB728970FB6F894DEBF0FBE42
:10596000CDBF8C016FE277E0A7DF66ED76E0C8017E
:105970007DDD7C0119821A821B821C821D821E829F
:105980001F821886D801ED91FC9183818F938281CB
:105990008F938EE0A82E85E0B82EBF92AF92CE01F5
:1059A00001966C019F938F930E945949F6010190D3
:1059B0000020E9F73197EC19FD09EE0EFF1E62EDAC
:1059C00076E0C80153DDE80EF91EB701C801029662
:1059D000ECDBB70189EF96E0E8DBC8018CDFC8019A
:1059E0008ADF66ED76E0C8016BDD19821A821B82C0
:1059F0001C821D821E821F821886D801ED91FC91A7
:105A000083818F9382818F93BF92AF92DF92CF92E7
:105A10000E945949B601C8013FDD62ED76E0C80138
:105A20004FDD0FB6F894DEBF0FBECDBF28960FB680
:105A3000F894DEBF0FBECDBFDF91CF911F910F91C4
:105A4000FF90EF90DF90CF90BF90AF9008958F922E
:105A50009F92AF92BF92CF92DF92EF92FF920F93FD
:105A60001F93CF93DF93CDB7DEB72C970FB6F89483
:105A7000DEBF0FBECDBF4C016FE277E01DDFCE0170
:105A800001960E94781BBE016F5F7F4FCE01079683
:105A90000E94921C80EFC82E8BE2D82EE12CF12CB4
:105AA00003E41AE220E030E046E35AE260E070E00E
:105AB000CE0107965C01C4010E94EB228C01BC015F
:105AC000C401029672DBB80189EF96E06EDBC40177
:105AD00012DFC40110DFBE016F5F7F4FC5010E945E
